:100000000C9415010C9408070C9434010C943401E1
:100010000C9434010C9434010C9434010C9434018C
:100020000C9434010C9434010C9434010C94350775
:100030000C9434010C9436010C9434010C9434016A
:100040000C9434010C9434010C9434010C9434015C
:100050000C949B040C9427040C9434010C943401EC
:100060000C9434010C9434010C9434010C9434013C
:100070000C9434010C9434010C9434010C9434012C
:100080000C9434010C9434010C9434016E616E00B4
:10009000696E66006364696E6F70737578585B652E
:1000A000666745464700616E006E66696E697479E1
:1000B00000CDCCCC3D0AD7233C17B7D13877CC2B19
:1000C000329595E6241FB14F0A000020410000C878
:1000D0004200401C4620BCBE4CCA1B0E5AAEC59DF9
:1000E00074001F000000001F00001F101010101FE0
:1000F00000001F181818181F00001F1C1C1C1C1FB4
:1001000000001F1E1E1E1E1F00001F1F1F1F1F1F7F
:100110000003070F1F0F070300181C1E1F1E1C18CB
:10012000006952504D3D00007252504D3D0000009C
:10013000407A10F35A00A0724E18090010A5D4E8B6
:100140000000E87648170000E40B54020000CA9A49
:100150003B000000E1F5050000809698000000409B
:10016000420F000000A086010000001027000000E0
:1001700000E803000000006400000000000A000026
:100180000000000100000000002C76D888DC674FDA
:100190000823DFC1DFAE59E1B1B796E5E3E453C60A
:1001A0003AE651997696E8E6C28426EB898C9B6202
:1001B000ED407C6FFCEFBC9C9F40F2BAA56FA5F4AC
:1001C00090055A2AF75C936B6CF9676DC11BFCE0D4
:1001D000E40D47FEF520E6B500D0ED902E03009427
:1001E0003577050080841E080000204E0A000000BC
:1001F000C80C333333330F986E12831141EF8D21C6
:1002000014893BE65516CFFEE6DB18D1844B381B2C
:10021000F77C1D901DA4BBE424203284725E2281F1
:1002200000C9F124ECA1E53D270011241FBECFEF4A
:10023000D0E4DEBFCDBF11E0A0E0B1E0E6E4F2E340
:1002400000E00BBF02C007900D92AE32B107D9F7A4
:1002500012E0AEE2B1E001C01D92AE3DB107E1F7A0
:100260000E9450080C9421190C9400001F920F92C8
:100270000FB60F920BB60F9211242F923F924F920E
:100280005F926F927F928F929F92AF92BF92CF9226
:10029000DF92EF92FF920F931F932F933F934F9311
:1002A0005F936F937F938F939F93AF93BF93CF93FE
:1002B000DF93EF93FF9310926F0050908A02B09BF0
:1002C00014C08091C1029091C202A091C302B0916A
:1002D000C4020196A11DB11D8093C1029093C20278
:1002E000A093C302B093C402B09A8091840090910D
:1002F00085003C01882499248091C1029091C2021A
:10030000A091C302B091C402DC0199278827680E2E
:10031000791E8A1E9B1E4090890270E061E0FFEF0B
:10032000AF2EFFEFBF2EFFEFCF2EFFE7DF2EEBE06C
:100330002E2E33243394CBE0D0E043C0629DD00115
:100340001124A557BD4F1A968C911A978230A1F4AB
:100350001296ED90FD900D911C9115976E147F04EF
:100360008006910620F01A963C921A9705C0EA146E
:10037000FB040C051D0510F0860175011A968C9181
:100380001A978130D9F4872F90E08C9FF0018D9FD0
:10039000F00D9C9FF00D1124E757FD4F16962D91FF
:1003A0003D914D915C91199780859185A285B3858A
:1003B000281739074A075B0708F4762F6F5F570144
:1003C0006801461608F0BACF7515B1F0EBE05E9EF5
:1003D000D0011124A557BD4F8DB78C938EB71196C0
:1003E0008C937E9FF0011124E557FD4F81818EBFD4
:1003F00080818DBF70938A02A092C502B092C6021E
:10040000C092C702D092C80220918400309185002A
:1004100040E050E08091C1029091C202A091C302DD
:10042000B091C402DC0199278827280F391F4A1F81
:100430005B1FD601C501821B930BA40BB50B9C015E
:10044000AD0184309105A105B10524F424E030E02C
:1004500040E050E08091840090918500A0E0B0E001
:10046000820F931FA41FB51F80509040A140B04041
:1004700038F48091840090918500820F931F0EC004
:1004800080918400909185008C5F9F4F28F410929A
:1004900089001092880006C084E090E09093890063
:1004A0008093880082E080936F00FF91EF91DF914D
:1004B000CF91BF91AF919F918F917F916F915F91FC
:1004C0004F913F912F911F910F91FF90EF90DF90EF
:1004D000CF90BF90AF909F908F907F906F905F90E4
:1004E0004F903F902F900F900BBE0F900FBE0F902C
:1004F0001F90189510928500109284001092800031
:1005000025E02093810022E020936F002FEF30E45C
:10051000281B390B3093C0022093BF02109289022E
:1005200010928A021092C1021092C2021092C3026B
:100530001092C4028FEF9FEFAFEFBFE78093C50229
:100540009093C602A093C702B093C8028093910211
:1005500090939202A0939302B093940210928D0212
:1005600010928E0210928F02109290027894089549
:100570008F929F92AF92BF92CF92DF92EF92FF92B3
:100580000F931F93CF93DF9349015A01F894209161
:1005900089022F5F20938902C091BF02D091C002CF
:1005A0009E01261B370B3093C0022093BF02888325
:1005B000FE0192933197DF01CE014C971C92119767
:1005C000A817B907D9F77A97C082D2923197DF017D
:1005D0009E01245230401C921197A217B307D9F7FD
:1005E0009F0126503040E09189028BE0E89FF001A6
:1005F0001124E557FD4F82829382A482B582E68260
:10060000F7820087118782E08287208331830E94EE
:100610003601DF91CF911F910F91FF90EF90DF9006
:10062000CF90BF90AF909F908F900895F894E9E895
:10063000F2E0E80FF11D65A778940895482F209106
:100640008A02F894E82FF0E0EA54FD4F8081882375
:1006500019F08150808310C030E08BE090E0289F3B
:10066000F001299FF00D389FF00D1124E557FD4F43
:100670004E5F42870E94360178940895FF920F934F
:100680001F93182FF89400918902E1E04FEF5FEF7C
:100690006FEF7FEFF0E08BE0F82E212F30E02E5F40
:1006A0003F4F1EC0EF9DD0011124A557BD4F1A9694
:1006B0008C911A9790E08217930769F416968D91A2
:1006C0009D910D90BC91A02D481759076A077B0793
:1006D00010F0FE2F02C0DB01CA01EF5FAC01BD01CB
:1006E0000E1700F7FF2341F4E12FF0E0E857FD4F2C
:1006F00086A58F5F86A711C02F2F30E08BE090E09A
:10070000289FF001299FF00D389FF00D1124E75725
:10071000FD4F81E084870E94360178941F910F91EC
:10072000FF900895209184003091850040E050E0D2
:100730008091C1029091C202A091C302B091C40203
:10074000DC0199278827280F391F4A1F5B1FB90131
:10075000CA010895E0918A02ABE0EA9FF0011124FA
:10076000E557FD4FF894A2E0A287628373838483E8
:10077000958326833783408751870E9436010895E9
:1007800080918A0290E02BE030E0829FF001839F0D
:10079000F00D929FF00D1124E757FD4FDF011496E5
:1007A000648111967C91119712968C9112971396F1
:1007B0009C91089580918A0290E02BE030E0829F26
:1007C000F001839FF00D929FF00D1124E757FD4F2C
:1007D000DF011896608511967C91119712968C9185
:1007E000129713969C910895F89480918A0290E054
:1007F0002BE030E0829FF001839FF00D929FF00D7F
:100800001124E757FD4F14860E9436010895F8948D
:10081000E82FF0E0EA54FD4F8081882319F08150E1
:1008200080838F5F7894089587E68093C400E1EC1D
:10083000F0E088E18083109283011092820110928F
:1008400085011092840180818068808308951F92C1
:100850000F920FB60F920BB60F9211242F933F9366
:100860008F939F93EF93FF932091820130918301A7
:1008700080918401909185012817390731F4809186
:10088000C1008F7D8093C1001DC0E0918401F09173
:100890008501EA57FE4F80818093C60080918401D4
:1008A00090918501019690938501809384018091B8
:1008B000840190918501883C910521F41092850175
:1008C00010928401FF91EF919F918F913F912F9111
:1008D0000F900BBE0F900FBE0F901F9018951F9397
:1008E000182F8A3019F48DE00E946F0480918201E4
:1008F000909183018F5F883C09F480E0E091820150
:10090000F0918301EA57FE4F1083282F30E0809149
:1009100084019091850128173907C9F33093830129
:10092000209382018091C10080628093C10080E0A9
:1009300090E01F9108951F920F920FB60F920BB681
:100940000F9211242F933F934F935F936F937F9355
:100950008F939F93AF93BF93EF93FF938091C600C4
:100960008093D10281E00E943E03FF91EF91BF91FD
:10097000AF919F918F917F916F915F914F913F9137
:100980002F910F900BBE0F900FBE0F901F901895D8
:10099000EF92FF920F931F93CF93DF937C0180918F
:1009A000300190913101892B09F0A1C002E311E0DF
:1009B00081E00E941E038091C00084FF03C02EEFDF
:1009C0003FEFA9C08091C00083FDA3C09091D102E8
:1009D0009D3011F09A3081F48AE0F8018083B701EC
:1009E0000E946F0482E391E0909331018093300183
:1009F00082E00E943E037BC0993009F490E2892F87
:100A000080528F3510F0903A70F0F1E001381F07F6
:100A100011F487E004C0F80191938F01892FB70189
:100A20000E946F04C5CF923139F1933138F493307D
:100A300009F46FC0983009F0BBCF09C0973109F4B1
:100A40004BC09F3721F0953109F0B2CF32C0F1E0B1
:100A500002331F0709F008F4ABCF88E0B7010E940A
:100A60006F0480E2B7010E946F0488E0B7010E9422
:100A70006F04015010409CCF8DE0B7010E946F04BD
:100A8000C2E3D1E004C08991B7010E946F04C0178E
:100A9000D107C8F38DCF88E0B7010E946F0480E2D0
:100AA000B7010E946F0488E0B7010E946F040150F3
:100AB000104081E00233180709F068F779CF88E029
:100AC000B7010E946F0480E2B7010E946F0488E0C2
:100AD000B7010E946F048E01E1E002331E0709F0A6
:100AE00008F466CFE8018A91803249F761CFE0913E
:100AF0003001F09131018191F0933101E0933001A7
:100B00008A3021F41092310110923001282F30E008
:100B100002C02FEF3FEFC901DF91CF911F910F91DD
:100B2000FF90EF900895282F207F28B9409A429A8D
:100B300020E43FE1F9013197F1F742984098F9013B
:100B40003197F1F790E074E0880F991F7A95E1F7FB
:100B500088B9409A429AC9010197F1F742984098A2
:100B6000C9010197F1F70895282F207F28B9429AEB
:100B700020E43FE1F9013197F1F74298F90131970B
:100B8000F1F790E0E4E0880F991FEA95E1F788B962
:100B9000429AC9010197F1F74298C9010197F1F70B
:100BA000089581E00E94B405089582E00E94B40592
:100BB00008950F931F93CF93DF93062F009749F06B
:100BC000EC0110E004C089910E9493051F5F10178B
:100BD000D0F3DF91CF911F910F910895623031F0E2
:100BE000633031F0613029F4805C03C08C5E01C059
:100BF0008C5A80680E94B40508951F93CF93DF93A9
:100C0000EC01862F642F0E94EE0510E003C00E94C5
:100C100093051F5FFE01E10FF11D84918823B9F751
:100C2000DF91CF911F910895EF92FF920F931F9341
:100C3000CF93DF937C01162F110F110F110F10644A
:100C4000C0E0D0E0F701EC0FFD1F0491812F8C0F65
:100C50000E94B405802F0E9493052196C830D105CB
:100C600089F7DF91CF911F910F91FF90EF90089539
:100C70001F93CF93DF9380E69AEE0197F1F718B8B0
:100C800018B887B1806F87B987B1876087B980E36B
:100C900088B9429A20E43FE1F9013197F1F742988F
:100CA000F9013197F1F788B9429AC9010197F1F733
:100CB0004298C9010197F1F780E288B9429AC901C7
:100CC0000197F1F74298C9010197F1F788E20E9474
:100CD000B4058CE00E94B405C1EED0E060E0162FB0
:100CE0001F5FCE010E9414062896612F1830B9F7B5
:100CF000DF91CF911F9108950F931F93082F10E05C
:100D000004C08EE10E94B4051F5F1017D0F31F913D
:100D10000F9108950F931F93082F10E004C088E1EE
:100D20000E94B4051F5F1017D0F31F910F91089513
:100D30008EE00E94B40508958FE00E94B4050895E6
:100D40008CE00E94B405089588E00E94B4050895DF
:100D50008CE00E94B40508950F931F93082F10E0B4
:100D600004C080E10E94B4051F5F1017D0F31F91EB
:100D70000F9108950F931F93082F10E004C084E192
:100D80000E94B4051F5F1017D0F31F910F910895B3
:100D9000DF92EF92FF920F931F93CF93DF93D42EA6
:100DA00096E0899FC0011124242F30E0AC01429FBE
:100DB000C001439F900D529F900D112470E00E943E
:100DC000AF16EB01CB0166E070E00E949B16E82EA7
:100DD000FF2400E010E012C0C8010596C817D9072B
:100DE00010F085E006C0C017D10710F08E2D01C0AD
:100DF00080E00E949305F3940A5F1F4FFD1460F397
:100E0000DF91CF911F910F91FF90EF90DF900895A8
:100E10001F920F920FB60F920BB60F9211242F93C1
:100E20008F939F93EF93FF93E2EBF0E0208180910B
:100E3000870290918802820F911D9093D302809334
:100E4000D2021082109288021092870281E0809371
:100E50002E01FF91EF919F918F912F910F900BBEDB
:100E60000F900FBE0F901F9018951F920F920FB604
:100E70000F9211248F939F93809187029091880203
:100E800080509F4F909388028093870281E08093E7
:100E90002F019F918F910F900FBE0F901F9018956B
:100EA0000E9438060E94A0060E94D10580E060E002
:100EB0000E94EE05089514B8239A249A10926E00A9
:100EC000E0E7F0E080818160808314BC83E085BD31
:100ED0008BEA84BD80E887BD88BD08958FEF87B910
:100EE00018B884E00E941E0380E090E0AAE7B4E412
:100EF0008093CD029093CE02A093CF02B093D00204
:100F000080E090E0A0E0B0E08093830290938402C0
:100F1000A0938502B093860280E090E0A0E2B1E465
:100F20008093C9029093CA02A093CB02B093CC02E3
:100F30008DEC9CECACE4BEE3809367029093680276
:100F4000A0936902B0936A0280E090E0A0E8BFE35A
:100F500080934E0290934F02A0935002B09351029F
:100F600084E00E943E030E9450070E94D10581E266
:100F700091E060E040E00E94FD0588E291E060E0E1
:100F800041E00E94FD0591E09DBB83E080936900F4
:100F900087E08093B100909370000E945B07789483
:100FA0000895AF92BF92CF92DF92EF92FF920F938C
:100FB0001F937C01882777FD8095982F0E948214CB
:100FC00020E030E040E752E40E94BD145B016C0178
:100FD0000027F7FC0095102FC801B7010E9482146A
:100FE00020E030E040EE50E40E94BD149B01AC01D3
:100FF000C601B5010E94DA151F910F91FF90EF9085
:10100000DF90CF90BF90AF900895AF92BF92CF92F4
:10101000DF92EF92FF920F931F937C01882777FD59
:101020008095982F0E94821420E030E040E752E43F
:101030000E94BD145B016C010027F7FC0095102F86
:10104000C801B7010E94821420E030E040EE50E475
:101050000E94BD149B01AC01C601B5010E94DA15C6
:101060001F910F91FF90EF90DF90CF90BF90AF90C6
:101070000895482F87B5242F332727FD3095B901D0
:10108000680F711D6F3F710509F04CF487B5280F8B
:10109000311D121613061CF487B5840F87BD089501
:1010A000CF92DF92EF92FF920F931F930E9414044E
:1010B0006FE171E07093DD026093DC027093D902FE
:1010C0006093D8027093DB026093DA0280E091E0D3
:1010D0000E94391880E590E00E947A02F8941092FC
:1010E000B7027894F8941092B8027894F89481E05A
:1010F0008093BA0278948FEE99E068EE73E02AE16B
:1011000036E040E050E0EAE1EE2EE6E0FE2E012D72
:10111000112DB2E5CB2EB2E0DB2E0E94B8028EE399
:1011200099E068EE73E025E33CE040E050E0AAE699
:10113000EA2EA8E1FA2E012D112D0E94B80280EBB3
:1011400098E068EE73E028E331E040E050E0F4ED31
:10115000EF2EF1E0FF2E012D112D0E94B802FFCFDE
:10116000AF92BF92CF92DF92EF92FF920F931F93B5
:1011700080912E01882309F457C084E00E941E0349
:101180008091D2029091D30269E07DE30E94D10761
:101190006093830270938402809385029093860209
:1011A00010922E0184E00E943E0310922F01609164
:1011B000CD027091CE028091CF029091D002E0904A
:1011C0008302F090840200918502109186020E94B1
:1011D00042165B016C01C801B7010E9442169B01D7
:1011E000AC01C501B9014BE652E00E943C0B0E94E4
:1011F0004216DC01CB010E94390860918302709194
:101200008402809185029091860220E030E040E4E3
:1012100051EC0E94DA1520E030E04FE753E40E94E1
:1012200072150E94471668BD2091C1023091C2021A
:101230004091C3025091C402A90133272227609133
:10124000840070918500E0908400F090850080E03B
:1012500090E0620F731F841F951F685C7E4F8F4F55
:101260009F4F00E010E02E0D3F1D401F511F2C52DC
:101270003E4F4F4F5F4F0E94AA037ACFCF92DF922B
:10128000EF92FF920F931F93CF93DF93C6E5D2E0C7
:10129000B4E1CB2EB1E0DB2E84E00E941E0340912E
:1012A000CD025091CE026091CF027091D0022DB745
:1012B0003EB7285030400FB6F8943EBF0FBE2DBF4A
:1012C000EDB7FEB73196ADB7BEB71296DC93CE93AD
:1012D0001197D382C28244835583668377830E94A9
:1012E00075182DB73EB7285F3F4F0FB6F8943EBF35
:1012F0000FBE2DBF87E060E00E94EE05FE01019069
:101300000020E9F73197EC1BFD0BCE016E2F0E94F8
:10131000D9054091830250918402609185027091B9
:1013200086028DB79EB708970FB6F8949EBF0FBE82
:101330008DBFEDB7FEB73196ADB7BEB71296DC9351
:10134000CE931197D382C282448355836683778379
:101350000E9475182DB73EB7285F3F4F0FB6F8941F
:101360003EBF0FBE2DBF87E061E00E94EE05FE018B
:1013700001900020E9F73197EC1BFD0BCE016E2F99
:101380000E94D90584E00E943E032091C102309161
:10139000C2024091C3025091C402A90133272227FF
:1013A0006091840070918500E0908400F090850049
:1013B00080E090E0620F731F841F951F6B5C734F7A
:1013C0008F4F9F4F00E010E02E0D3F1D401F511F1B
:1013D0002659374E4F4F5F4F0E94AA035DCF6F9241
:1013E0007F928F929F92AF92BF92CF92DF92EF92B5
:1013F000FF920F931F93DF93CF93CDB7DEB728975C
:101400000FB6F894DEBF0FBECDBF0E946E071AE183
:10141000612E11E0712EB5E08B2E912C8C0E9D1E4D
:101420005E010894A11CB11C6091DA027091DB028C
:101430008EE390E00E940D188DB79EB708970FB607
:10144000F8949EBF0FBE8DBFEDB7FEB73196809169
:10145000D8029091D902ADB7BEB712969C938E93E5
:1014600011977382628295828482B782A6820E94DB
:1014700064188DB79EB708960FB6F8949EBF0FBE3E
:101480008DBF84E00E941E038D81833769F48981BA
:101490009A81AB81BC818093CD029093CE02A093C0
:1014A000CF02B093D0022CC0803751F589819A8148
:1014B000AB81BC818093C9029093CA02A093CB02F6
:1014C000B093CC026091C9027091CA028091CB02A4
:1014D0009091CC0220914E0230914F0240915002E7
:1014E00050915102E0906702F09068020091690209
:1014F00010916A02ABE6CA2EA2E0DA2E0E94E80A38
:101500008D81893651F589819A81AB81BC81809327
:101510004E0290934F02A0935002B09351026091FB
:10152000C9027091CA028091CB029091CC022091A5
:101530004E0230914F024091500250915102E09082
:101540006702F09068020091690210916A02FBE65E
:10155000CF2EF2E0DF2E0E94E80A8D81843651F50D
:1015600089819A81AB81BC818093670290936802E4
:10157000A0936902B0936A026091C9027091CA0295
:101580008091CB029091CC0220914E0230914F027B
:101590004091500250915102E0906702F090680231
:1015A0000091690210916A02EBE6CE2EE2E0DE2E97
:1015B0000E94E80A8D818F3639F469817A818B81A6
:1015C0009C810E94471667BD84E00E943E032CCF99
:1015D0008F929F92AF92BF92CF92DF92EF92FF9243
:1015E0000F931F9349015A01F6011282138214824C
:1015F0001582118210826683778380879187228784
:10160000338744875587E686F786008B118B20E069
:1016100030E040E85FE30E9472159B01AC0160E09E
:1016200070E08EEF92E40E94DA150E944216F601F5
:10163000738B628BC501B40120E030E040E85FE3CA
:101640000E9472159B01AC0160E07CEF8FE796E48D
:101650000E94DA150E944216F601648B758B868B08
:10166000978B1F910F91FF90EF90DF90CF90BF90DD
:10167000AF909F908F9008952F923F924F925F92DC
:101680006F927F928F929F92AF92BF92CF92DF9292
:10169000EF92FF920F931F93DF93CF9300D000D070
:1016A000CDB7DEB77A8369835C834B83861B970B48
:1016B000AA2797FDA095BA2FBC01CD010E948214E4
:1016C0007B018C01EB81FC81C288D388B60188271D
:1016D00077FD8095982F0E9482149B01AC01C80170
:1016E000B7010E94971618165CF40F2EF0E02F2E0B
:1016F000F0E03F2EFEEF4F2EF2E45F2EF02D29C0DA
:10170000662777276C197D09882777FD8095982FA4
:101710000E9482149B01AC01C801B7010E94D6153A
:1017200088235CF40F2EF0E02F2EF0E03F2EFEEF2A
:101730004F2EF2EC5F2EF02D0CC0C801B701EB81EB
:10174000FC8126813781408551850E94BD141B0193
:101750002C01EB81FC8162817381848195810E94DF
:101760008214A80197010E9472155B016C01EB8144
:10177000FC81E488F58806891789C801B7010E94B1
:1017800082149B01AC01C601B5010E949716181680
:101790008CF4EB81FC81E282F382048315830F2EAB
:1017A000F0E0AF2EFCEFBF2EFFE7CF2EF6E4DF2EEA
:1017B000F02D3AC06624772443016E187F08800A12
:1017C000910AC401B3010E9482149B01AC01C601BD
:1017D000B5010E94D61588238CF4EB81FC816282CE
:1017E0007382848295820F2EF0E0AF2EFCEFBF2E25
:1017F000FFE7CF2EF6ECDF2EF02D16C0C601B501A7
:101800000E944216EB81FC816283738384839583FB
:101810000E948214EB81FC812285338544855585A5
:101820000E94BD145B016C01EB81FC8160817181C0
:1018300029813A81621B730B882777FD8095982F49
:101840000E948214EB81FC8126853785408951896D
:101850000E94BD147B018C0129813A81EB81FC81BE
:1018600031832083C201B101A60195010E94721546
:10187000A80197010E94721520E030E040E05CE38F
:101880000E94BD147B018C0120E030E04EEF52E459
:101890000E94971618165CF40F2EF0E0EF2EF0E081
:1018A000FF2EFEEF0F2FF2E41F2FF02D14C0C80102
:1018B000B70120E030E04EEF52EC0E94D6158823AD
:1018C00054F40F2EF0E0EF2EF0E0FF2EFEEF0F2F7E
:1018D000F2EC1F2FF02DB701C8010F900F900F9061
:1018E0000F90CF91DF911F910F91FF90EF90DF90BC
:1018F000CF90BF90AF909F908F907F906F905F90B0
:101900004F903F902F900895FC0112821382148211
:10191000158208952F923F924F925F926F927F921D
:101920008F929F92AF92BF92CF92DF92EF92FF92EF
:101930000F931F93DF93CF93CDB7DEB761970FB6A9
:10194000F894DEBF0FBECDBF3C017F876E876A0172
:10195000FC0117821682838181FD03C06FEF7FEF48
:101960006FC39E012F5F3F4F398B288BF30123817B
:10197000EE85FF8523FD859123FF8191FF87EE870B
:10198000882309F45AC3853251F4EE85FF8523FD7F
:10199000859123FF8191FF87EE87853229F490E0BE
:1019A000B3010E940D18E2CF982F10E088249924EB
:1019B0001032B0F49B3269F09C3228F4903251F02E
:1019C000933271F40BC09D3239F0903349F41160B9
:1019D00028C01260146025C0186023C0106121C0A7
:1019E00017FD2AC0892F80538A3078F416FF06C06D
:1019F000FAE09F9E902C1124980E13C03AE0839E2B
:101A0000802C1124880E10620CC09E3221F416FD29
:101A100014C3106406C09C3611F4106802C09836D6
:101A200059F4EE85FF8523FD959123FF9191FF8762
:101A3000EE87992309F0BCCF892F8554833020F499
:101A4000812F8061905E07C0892F8556833008F012
:101A50009FC1812F8F7E86FD02C076E0972E6FE3B7
:101A6000F62EF822953619F4F0E4FF2A07C09636D0
:101A700019F420E8F22A02C091109A94F7FE0AC0E5
:101A80003BE3391518F45CE3B52E02C0B92CB394CE
:101A900027E009C047E0491520F4BB2447E0942E15
:101AA000F7CF292DBB24C60104969D878C87F601AC
:101AB0006081718182819381AE014F5F5F4F0B2DF9
:101AC0000E94C2166C010981202E332400FF04C03D
:101AD00003FD02C01DE209C0F1FE02C01BE205C009
:101AE000F2FC02C010E001C010E2C1018C709070E5
:101AF000892BB9F1112311F483E001C084E088152A
:101B000010F088240AC0881AF3FC07C080E290E035
:101B1000B3010E940D188A94C9F7112329F0812F6F
:101B200090E0B3010E940D1823FE03C00CE810E002
:101B30000EC000E910E00BC0E114F10409F080527E
:101B400090E0B3010E940D180F5F1F4F05C0EF2CEE
:101B5000FF24F0E1EF22FF24F8018491882361F74C
:101B600014C1F7FE12C0BC0C24FE04C08A8181336C
:101B700009F4BA941B141CF0BB24B3942DC0F8E0F4
:101B8000FB1550F538E0B32E27C0F6FC25C0892D93
:101B900090E08C159D054CF02CEFC2162FEFD2066D
:101BA00024F030E8F32A01C09A94992049F0E2E049
:101BB000F0E0EC0FFD1FE90DF11D80818033A1F3F2
:101BC000F7FE0AC0B92CB394892D90E0C816D90647
:101BD00014F0992401C09C18F7FC03C025E030E004
:101BE00009C01C141D041CF021E030E003C0960164
:101BF0002F5F3F4F112311F02F5F3F4F992029F0A6
:101C0000892D90E00196280F391F882D90E0281724
:101C1000390714F0882401C0821A4F2C5524C201C0
:101C200089709070892B39F008C080E290E0B30190
:101C30000E940D188A948820C1F7112329F0812F62
:101C400090E0B3010E940D1843FE07C008C080E376
:101C500090E0B3010E940D188A948820C1F7F7FE26
:101C600046C08601D7FE02C000E010E0760108946D
:101C7000E11CF11CE01AF10A41E050E04C0F5D1F3D
:101C8000E40EF51E26014B185108892D90E0AA2478
:101C9000BB24A81AB90A5FEF0F3F150729F48EE29B
:101CA00090E0B3010E940D18C016D10634F0401622
:101CB00051061CF4F701808101C080E301501040FF
:101CC0000894E11CF11C0A151B052CF090E0B301EF
:101CD0000E940D18E0CF0C151D0539F49A8196333A
:101CE00018F4953311F424FE81E390E04BC08A810F
:101CF000813309F00F7E90E0B3010E940D18992006
:101D0000A1F08EE290E0B3010E940D1812E0E1E034
:101D1000F0E0EC0FFD1FE10FF11D1F5F808190E0EF
:101D2000B3010E940D189A9491F744FC03C085E614
:101D300090E002C085E490E0B3010E940D18D7FC4A
:101D400005C0C114D10441F404FF06C0D094C1946D
:101D5000D108D3948DE201C08BE290E0B3010E94E0
:101D60000D1880E305C08F5F26EF3FEFC20ED31E34
:101D70003AE0C316D104BCF790E0B3010E940D18FD
:101D8000C601C096B3010E940D18CC84DD8452C1F7
:101D9000933631F0933799F0933509F059C023C049
:101DA000F601808189835E010894A11CB11C22E0A8
:101DB00030E0C20ED31E21E0E22EF12C12C0F6015B
:101DC000A080B18016FD03C06FEF7FEF02C0692DC8
:101DD00070E022E030E0C20ED31EC5010E94C017A1
:101DE0007C011F7713C0F601A080B18016FD03C0EF
:101DF0006FEF7FEF02C0692D70E022E030E0C20E8D
:101E0000D31EC5010E94B5177C01106813FF07C0DF
:101E10001BC080E290E0B3010E940D188A94882DC7
:101E200090E0E816F906A8F30FC0F50117FD8591BB
:101E300017FF81915F0190E0B3010E940D1881109E
:101E40008A940894E108F108E114F10471F7F2C0F2
:101E5000943611F0993689F517FF08C0F6012081F4
:101E600031814281538184E090E00AC0F601808193
:101E700091819C01442737FD4095542F82E090E0EA
:101E8000C80ED91E9FE6F92EF12257FF09C05095C2
:101E90004095309521953F4F4F4F5F4F90E8F92A7D
:101EA000CA01B901AE014F5F5F4F2AE030E00E94E6
:101EB000C018E82EE889EE1A41C0953721F41F7E3C
:101EC0002AE030E01CC0197F9F3661F0903720F483
:101ED000983509F0B2C00FC0903739F0983709F043
:101EE000ACC004C028E030E00AC0106114FD1460EA
:101EF00020E130E004C014FD166020E132E017FF5D
:101F000008C0F601608171818281938144E050E0D4
:101F100008C0F60180819181BC0180E090E042E040
:101F200050E0C40ED51EAE014F5F5F4F0E94C01837
:101F3000E82E5889E51A8FE7F82EF122F6FE0BC03D
:101F40008EEFF822E91438F4F4FE07C0F2FC05C065
:101F50009FEEF92202C01E2D01C0192DF4FE0DC006
:101F6000FE01EE0DF11D8081803319F4E9EEFE22B1
:101F700008C01F5FF2FE05C003C08F2D867809F0F0
:101F80001F5F0F2DF3FC14C0F0FE0FC0181510F0EA
:101F90009E2C0BC09E2C980C911A182D06C080E226
:101FA00090E0B3010E940D181F5F1815C0F304C024
:101FB000181510F4811A01C0882404FF0FC080E3B3
:101FC00090E0B3010E940D1802FF1DC001FD03C087
:101FD00088E790E00EC088E590E00BC0802F8678FF
:101FE00091F001FF02C08BE201C080E2F7FC8DE2BC
:101FF00090E0B3010E940D1806C080E390E0B301A9
:102000000E940D189A94E914C0F3EA94E1E0F0E01C
:10201000EC0FFD1FEE0DF11D808190E0B3010E94D9
:102020000D18EE2091F706C080E290E0B3010E9407
:102030000D188A948820C1F799CCF30166817781C5
:10204000CB0161960FB6F894DEBF0FBECDBFCF9126
:10205000DF911F910F91FF90EF90DF90CF90BF9095
:10206000AF909F908F907F906F905F904F903F9038
:102070002F900895FC0120FD08C023FD05C022FF1C
:1020800002C073836283518340830895EF92FF926D
:102090000F931F9344FF02C033E011C046FF02C0FC
:1020A00034E00DC0DB01FC01AA0FBB1FEE1FFF1FB8
:1020B0001094D1F76A0F7B1F8E1F9F1F31E0660FB0
:1020C000771F881F991F3150D1F77B018C01E20ED9
:1020D000F11C011D111DA8019701B701CA011F9133
:1020E0000F91FF90EF9008950F931F93CF93DF937D
:1020F0008C01C8010E94CB17EC0197FD08C00E941B
:102100009A17892BB1F7CE01B8010E94A618CE010B
:10211000DF91CF911F910F9108958F929F92AF926F
:10212000BF92DF92EF92FF920F931F93CF93DF93B3
:102130005C01EB014A01122F0E94CB17AC018B32DC
:1021400019F08D3251F41068219709F46DC0C50162
:102150000E94CB17AC0197FD67C06DEFD62ED12240
:102160008D2D807301F54033F1F4219709F447C0B8
:10217000C5010E94CB17AC0197FD41C082E0D82A6F
:10218000483711F0483559F480E4D82A2197B9F13D
:10219000C5010E94CB17AC0199232CF430C0D6FCAA
:1021A00002C080E1D82AEE24FF248701242F205387
:1021B000283088F0D4FC09C02A3068F0D6FE05C06B
:1021C0002F7D822F8151863028F0CA01B5010E94EF
:1021D000A61812C02750C801B7014D2D0E94461005
:1021E0007B018C0182E0D82A219761F0C5010E9411
:1021F000CB17AC0197FFDACFD1FC04C015C0EE2499
:10220000FF248701D7FE08C010950095F094E09454
:10221000E11CF11C011D111DC401B801A7012D2DE8
:102220000E943A1081E001C080E0DF91CF911F91C0
:102230000F91FF90EF90DF90BF90AF909F908F90A5
:1022400008956F927F928F929F92AF92BF92CF929A
:10225000DF92EF92FF920F931F93DF93CF93CDB74F
:10226000DEB7A0970FB6F894DEBF0FBECDBF5C01FE
:102270006B018A017901FE01319680E2DF011D9236
:102280008A95E9F770E030E060E040E050E03F011F
:10229000A1E0B0E0F5018381F70183FD259183FF83
:1022A00021917F01222309F481C02E3519F44115B3
:1022B000510569F1872F90E08417950744F42D3577
:1022C00051F12D3221F4332329F431E021C033239D
:1022D00009F4622F322F832F869586958695F30118
:1022E000E80FF11D832F87704D0102C0880C991CE7
:1022F0008A95E2F7208128292083361711F430E0EF
:1023000007C0361710F43F5FE6CF3150E4CF71E0DD
:102310004F5F5F4FBFCF332319F08E8180628E8372
:10232000772359F0FE0131969E012F5D3F4F80814A
:1023300080958193E217F307D1F7992493943E0196
:102340000894611C711CC5010E94CB17AC0197FD5C
:1023500025C0869586958695F301E80FF11D80814D
:1023600090E09A012770307002C0959587952A9564
:10237000E2F780FD05C0CA01B5010E94A6180EC093
:102380000115110519F0D8014D938D010894C1086C
:10239000D1089924C114D104B1F602C0992031F4B6
:1023A0000115110529F0F801108202C0EE24FF2466
:1023B000C701A0960FB6F894DEBF0FBECDBFCF9178
:1023C000DF911F910F91FF90EF90DF90CF90BF9022
:1023D000AF909F908F907F906F9008952F923F9233
:1023E0005F926F927F928F929F92AF92BF92CF92A5
:1023F000DF92EF92FF920F931F93CF93DF933C01F5
:102400007B011A010E94CB17EC018B3239F08D321F
:1024100011F0552411C0B0E85B2E01C0552408947A
:10242000E108F108E114F10409F418C1C3010E94A4
:10243000CB17EC0197FD12C1CE010E94A21789367D
:10244000910521F08E36910599F51DC009EA10E03D
:102450001CC00894E108F108E114F10471F0C30113
:102460000E94CB17EC0197FD08C00E94A217D81656
:1024700061F0CE01B3010E94A61820E00C3A1207C9
:1024800009F0ECC008C006EA10E0F8010F5F1F4F2A
:10249000D490DD20F1F6095A104029F080E090E058
:1024A000A0E8BFE7CFC080E090E0A0ECBFE7CAC0E3
:1024B000CC24DD24882499245401AE014053242FD8
:1024C0004A3038F552E0552A852D90E0AC0148702D
:1024D000507052FE06C0452B11F50894C11CD11C4A
:1024E0001EC0452B19F00894C108D108C501B401DC
:1024F00040E20E9446104B015C0188E9881689E998
:10250000980689E9A80689E1B80648F094E0592AB6
:1025100006C04E3F81F453FC0EC0E8E05E2A0894EA
:10252000E108F108E114F10431F0C3010E94CB1776
:10253000EC0197FFC2CF51FE91C0C53619F0C534EA
:1025400009F046C00894E108F108E114F10409F427
:1025500085C0C3010E94CB17EC0197FD7FC08B3271
:1025600021F08D3269F4F0E15F2A0894E108F10866
:10257000E114F10409F472C0C3010E94CB17EC010D
:10258000CE01C0970A9708F069C000E010E0B801DA
:10259000882777FD8095982FAE014053242F40E285
:1025A0000E9446108B010894E108F108E114F1043F
:1025B00039F0C3010E94CB17EC01C0970A9738F39A
:1025C000B80154FE03C0709561957F4FC60ED71EAB
:1025D000EF2831F0D7FD04C0CE01B3010E94A61848
:1025E000C501B4010E948014D7FE0DC0A5ECEA2EEF
:1025F000A0E0FA2ED094C194D108D394C0E2D0E0E8
:1026000000E010E00EC0FDEDEF2EF0E0FF2EF6CF63
:10261000F70125913591459154910E94BD14CC1A32
:10262000DD0ACC16DD06A0F7D695C7950F5F1F4FC4
:102630000630110529F0ECEFFFEFEE0EFF1EF1CF93
:10264000DC01CB0157FCB0582114310429F0F10111
:1026500080839183A283B38381E001C080E0DF9116
:10266000CF911F910F91FF90EF90DF90CF90BF908F
:10267000AF909F908F907F906F905F903F902F9042
:1026800008955F926F927F928F929F92AF92BF92C6
:10269000CF92DF92EF92FF920F931F93CF93DF932E
:1026A0004C015B013A01FC0117821682552404C1DA
:1026B000812F90E00E949A17892B21F0C4010E947B
:1026C0007410FAC0153249F4F501F3FC6591F3FE7C
:1026D00061915F01653269F415E2C4010E94CB1774
:1026E00097FDF6C0181709F4E7C0B4010E94A618B8
:1026F000F4C06A3219F0162F00E006C0F3FC159101
:10270000F3FE11915F0101E0CC24DD240EC00260D4
:10271000B60180E090E040E20E9446106B01F501B6
:10272000F3FC1591F3FE11915F01212F20532A3004
:1027300070F301FD04C0CC24CA94DC2C04C0C11485
:10274000D10409F4CAC0183621F01C3699F4F501F9
:102750000BC0F501F3FC6591F3FE6191683619F049
:102760005F01162F07C008600460F3FC1591F3FEAB
:1027700011915F01112309F4B0C084E990E0612F49
:1027800070E00E94AA17892B09F4A7C0802F00FFD0
:1027900003C0EE24FF2407C0F301E080F18022E0B3
:1027A00030E0620E731E1E3651F4F40146815781EB
:1027B00060E070E0C701202F0E943A107DC0133600
:1027C000B9F481FD03C011E0C12ED12CC4010E94D7
:1027D000CB1797FD7DC0E114F10419F0F701819347
:1027E0007F010894C108D108C114D10479F762C0EF
:1027F0001B3559F4C401B601A70195010E942111AE
:102800005C01009709F056C050C0C4010E947410CA
:1028100097FD5EC01F36D1F1103738F41436A1F1A0
:102820001936A9F11835D1F52DC0133751F01437E9
:1028300018F4103799F526C0153731F1183771F5AE
:1028400021C0C4010E94CB17EC0197FD15C00E9466
:102850009A17892B29F0CE01B4010E94A6180CC04A
:10286000E114F10419F0F701C1937F010894C10844
:10287000D108C114D10429F7E114F104D9F0F7010A
:10288000108218C0006403C0006201C00061C4016E
:10289000B601A701202F0E948D1005C0C401B6010A
:1028A000A7010E94EE11882329F4F401838180732B
:1028B00079F413C000FF5394F401F380F501F3FCA5
:1028C0001591F3FE11915F01112309F0F1CE05C0BE
:1028D000552019F42FEF3FEF02C0252D30E0C9013C
:1028E000DF91CF911F910F91FF90EF90DF90CF90EC
:1028F000BF90AF909F908F907F906F905F90089562
:10290000E89409C097FB3EF4909580957095619589
:102910007F4F8F4F9F4F9923A9F0F92F96E9BB273F
:102920009395F695879577956795B795F111F8CFBB
:10293000FAF4BB0F11F460FF1BC06F5F7F4F8F4F26
:102940009F4F16C0882311F096E911C0772321F01C
:102950009EE8872F762F05C0662371F096E8862FB4
:1029600070E060E02AF09A95660F771F881FDAF70B
:10297000880F9695879597F908950BD078C069D000
:1029800028F06ED018F0952309F05AC05FC01124CA
:10299000A2C07ED0A0F3959FD1F3950F50E0551FB4
:1029A000629FF001729FBB27F00DB11D639FAA27A4
:1029B000F00DB11DAA1F649F6627B00DA11D661FF3
:1029C000829F2227B00DA11D621F739FB00DA11D14
:1029D000621F839FA00D611D221F749F3327A00DCE
:1029E000611D231F849F600D211D822F762F6A2F6A
:1029F00011249F5750408AF0E1F088234AF0EE0FEF
:102A0000FF1FBB1F661F771F881F91505040A9F7FB
:102A10009E3F510570F014C05EC05F3FECF3983EDE
:102A2000DCF3869577956795B795F795E7959F5F62
:102A3000C1F7FE2B880F911D9695879597F90895FC
:102A400097F99F6780E870E060E008959FEF80EC61
:102A5000089500240A941616170618060906089504
:102A600000240A9412161306140605060895092E6A
:102A70000394000C11F4882352F0BB0F40F4BF2BD9
:102A800011F460FF04C06F5F7F4F8F4F9F4F089519
:102A900057FD9058440F551F59F05F3F71F047950F
:102AA000880F97FB991F61F09F3F79F087950895F4
:102AB000121613061406551FF2CF4695F1DF08C013
:102AC000161617061806991FF1CF86957105610530
:102AD00008940895E894BB2766277727CB0197F9D8
:102AE00008955058BB27AA270ED0C1CFB2DF30F0CF
:102AF000B7DF20F031F49F3F11F41EF4A7CF0EF49E
:102B0000E095E7FB9DCFE92FC3DF80F3BA1762079B
:102B100073078407950718F071F49EF5DBCF0EF468
:102B2000E0950B2EBA2FA02D0B01B90190010C01DD
:102B3000CA01A0011124FF27591B99F0593F50F4F5
:102B4000503E68F11A16F040A22F232F342F44274D
:102B5000585FF3CF469537952795A795F040539545
:102B6000C9F77EF41F16BA0B620B730B840BBAF015
:102B70009150A1F0FF0FBB1F661F771F881FC2F780
:102B80000EC0BA0F621F731F841F48F48795779594
:102B90006795B795F7959E3F08F0B3CF9395880F4B
:102BA00008F09927EE0F9795879508959CD008F423
:102BB00081E008950CD05BCF53DF40F04ADF30F066
:102BC00021F45F3F19F03CCF511185CF3FCF60DF3B
:102BD00098F39923C9F35523B1F3951B550BBB27E4
:102BE000AA2762177307840738F09F5F5F4F220F91
:102BF000331F441FAA1FA9F333D00E2E3AF0E0E88A
:102C000030D091505040E695001CCAF729D0FE2FD5
:102C100027D0660F771F881FBB1F26173707480767
:102C2000AB07B0E809F0BB0B802DBF01FF2793581D
:102C30005F4F2AF09E3F510568F002CF4CCF5F3FB7
:102C4000ECF3983EDCF3869577956795B795F79505
:102C50009F5FC9F7880F911D9695879597F90895FD
:102C6000E1E0660F771F881FBB1F62177307840799
:102C7000BA0720F0621B730B840BBA0BEE1F88F7A8
:102C8000E095089504D06894B11125CF089508DF28
:102C900088F09F5790F0B92F9927B751A0F0D1F045
:102CA000660F771F881F991F1AF0BA95C9F712C0CF
:102CB000B13081F00FDFB1E008950CCF672F782F8E
:102CC0008827B85F39F0B93FCCF38695779567953B
:102CD000B395D9F73EF490958095709561957F4FA7
:102CE0008F4F9F4F0895990F0008550FAA0BE0E8EA
:102CF000FEEF16161706E807F907C0F012161306BE
:102D0000E407F50798F0621B730B840B950B39F4FD
:102D10000A2661F0232B242B252B21F408950A2663
:102D200009F4A140A6958FEF811D811D0895DBDF79
:102D300008F48FEF0895AA1BBB1B51E107C0AA1F1F
:102D4000BB1FA617B70710F0A61BB70B881F991F4C
:102D50005A95A9F780959095BC01CD01089597FBF0
:102D6000092E07260AD077FD04D0E5DF06D0002023
:102D70001AF4709561957F4F0895F6F790958195B7
:102D80009F4F0895283008F027E03327DA01990F84
:102D9000311D87FD916000966105710539F432603F
:102DA0002E5F3D9330E32A95E1F708959F3F30F081
:102DB00080387105610509F03C5F3C5F3D939130BF
:102DC00008F08068911DDF93CF931F930F93FF92BC
:102DD000EF92192F987F9695E92F96959695E90F82
:102DE000FF27E757FE4F99273327EE24FF24A7013B
:102DF000E70105900894079428F4360FE71EF81EA3
:102E0000491F511D660F771F881F991F0694A1F750
:102E10000590079428F4E70EF81E491F561FC11DA0
:102E2000770F881F991F661F0694A1F705900794D6
:102E300028F4F80E491F561FC71FD11D880F991F70
:102E4000661F771F0694A1F70590079420F4490F99
:102E5000561FC71FD81F990F661F771F881F06941C
:102E6000A9F784911095177041F0D695C79557959D
:102E70004795F794E7941A95C1F7EFE2F1E068946B
:102E80001590159135916591959105907FE2739517
:102E9000E118F10A430B560BC90BD009C0F7E10C3E
:102EA000F11E431F561FC91FD01D7EF4703311F44D
:102EB0008A95E6CFE894015030F0080F0AF4002715
:102EC000021708F4202F2395022F7A3328F079E394
:102ED0007D932A95E9F710C07D932A9589F606948B
:102EE00097956795379517951794E118F10A430B55
:102EF000560BC90BD00998F023957E9173957A33C0
:102F000008F070E37C932013B8F77E9170617D9395
:102F100030F0839571E37D9370E32A95E1F71124F6
:102F2000EF90FF900F911F91CF91DF91992787FD2F
:102F300090950895911182C1803219F08950855081
:102F4000D0F708959111089581548A5108F4805E54
:102F5000855A0895FC010590061621F00020D9F746
:102F6000C00108953197CF010895FC01059061508B
:102F700070400110D8F7809590958E0F9F1F08958F
:102F8000FC016150704001900110D8F78095909538
:102F90008E0F9F1F0895CF93DF93EC014B8140FF6D
:102FA0001AC046FF0AC04F7B4B838E819F810196DA
:102FB0009F838E838A81282F2BC042FF13C0E88114
:102FC000F9818081282F332727FD30952115310580
:102FD00029F440624B832FEF3FEF1BC03196F983FA
:102FE000E88311C0EA85FB85CE0109959C0197FF16
:102FF0000AC09B812F5F3F4F11F080E201C080E14A
:10300000892B8B83E8CF8E819F8101969F838E834E
:1030100030E0C901DF91CF9108950F931F93CF93B3
:10302000DF938C01EB018B8181FF1BC082FF0DC000
:103030002E813F818C819D812817390764F4E881B6
:10304000F9810193F983E88306C0E885F985802F2B
:103050000995892B31F48E819F8101969F838E8300
:1030600002C00FEF1FEFC801DF91CF911F910F91A9
:103070000895EF92FF920F931F93CF93DF937C01FC
:103080008B01DB0113968C9181FD03C0CFEFDFEF45
:1030900013C0C0E0D0E00BC0D8011896ED91FC91B0
:1030A0001997B8010995892B11F0CFEFDFEFF701E0
:1030B00081917F01882381F7CE01DF91CF911F910C
:1030C0000F91FF90EF900895DF93CF93CDB7DEB7C8
:1030D0009E01275F3F4F8D819E816F817885A90179
:1030E0000E944113CF91DF9108950F931F93DF93B7
:1030F000CF93CDB7DEB72E970FB6F894DEBF0FBED5
:10310000CDBF0D891E8986E08C831A8309838FEFDA
:103110009FE79E838D839E01275E3F4FCE010196E0
:103120006F89788DA9010E948A0C2F813885020F42
:10313000131FF80110822E960FB6F894DEBF0FBE53
:10314000CDBFCF91DF911F910F9108959C01FB019D
:10315000838180FF11C086FD0FC09FEF2F3F39078D
:1031600059F0228380648F7D8383868197810197C4
:103170009783868330E002C02FEF3FEFC9010895A7
:10318000FA01AA27283051F1203181F1E8946F9398
:103190006E7F6E5F7F4F8F4F9F4FAF4FB1E03ED03E
:1031A000B4E03CD0670F781F891F9A1FA11D680FDC
:1031B000791F8A1F911DA11D6A0F711D811D911D0F
:1031C000A11D20D009F468943F912AE0269F112484
:1031D0003019305D3193DEF6CF010895462F4770E8
:1031E000405D4193B3E00FD0C9F7F6CF462F4F7043
:1031F000405D4A3318F0495D31FD4052419302D0A1
:10320000A9F7EACFB4E0A695979587957795679546
:10321000BA95C9F700976105710508959B01AC0146
:103220000A2E06945795479537952795BA95C9F76D
:10323000620F731F841F951FA01D0895992788276B
:063240000895F894FFCF91
:103246000A0D205452542039666562323030390AEC
:103256000D0A0D0025662020200025732566000036
:0E326600000003000000006F04C80400000018
:00000001FF
