:100000000C94F7000C9416010C9416010C94160134
:100010000C9416010C9416010C9416010C94160104
:100020000C9416010C9416010C9416010C941601F4
:100030000C9428030C9414030C9416010C941601D0
:100040000C94E8020C9416010C9416010C94160101
:100050000C9416010C9416010C9416010C941601C4
:100060000C9416010C9416010C9416010C941601B4
:100070000C9416010C9416010C9416010C941601A4
:100080000C9416010C9416010C941601001F00002C
:1000900000001F00001F101010101F00001F181874
:1000A00018181F00001F1C1C1C1C1F00001F1E1EF8
:1000B0001E1E1F00001F1F1F1F1F1F0003070F1FF3
:1000C0000F070300181C1E1F1E1C180043617061DF
:1000D000636974616E63653D00004C434420496E62
:1000E000697469616C697A656400006E616E0069AB
:1000F0006E660000407A10F35A00A0724E18090094
:1001000010A5D4E80000E87648170000E40B54027C
:100110000000CA9A3B000000E1F5050000809698B7
:1001200000000040420F000000A086010000001007
:100130002700000000E80300000000640000000049
:10014000000A00000000000100000000002C76D82A
:1001500088DC674F0823DFC1DFAE59E1B1B796E510
:10016000E3E453C63AE651997696E8E6C28426EB74
:10017000898C9B62ED407C6FFCEFBC9C9F40F2BA87
:10018000A56FA5F490055A2AF75C936B6CF9676D1F
:10019000C11BFCE0E40D47FEF520E6B500D0ED9074
:1001A0002E0300943577050080841E080000204E41
:1001B0000A000000C80C333333330F986E128311DA
:1001C00041EF8D2114893BE65516CFFEE6DB18D1B1
:1001D000844B381BF77C1D901DA4BBE42420328483
:1001E000725E228100C9F124ECA1E53D27001124B3
:1001F0001FBECFEFD0E4DEBFCDBF11E0A0E0B1E085
:10020000ECEDF9E100E00BBF02C007900D92AE33B8
:10021000B107D9F721E0AEE3B1E001C01D92AD3BDB
:10022000B207E1F70E942E050C94EC0C0C94000030
:10023000982F907F98B9409A429AEFE3FFE1319767
:10024000F1F700C0000042984098EFE3FFE13197DA
:10025000F1F700C00000F0E18F9FC001112488B9C0
:10026000409A429A8FE39FE10197F1F700C00000A6
:1002700042984098EFE3FFE13197F1F700C00000AA
:100280000895982F907F98B9429AEFE3FFE1319754
:10029000F1F700C000004298EFE3FFE13197F1F77A
:1002A00000C00000F0E18F9FC001112488B9429A7C
:1002B0008FE39FE10197F1F700C000004298EFE360
:1002C000FFE13197F1F700C00000089581E00C9440
:1002D000410182E00C944101EF92FF921F93CF9372
:1002E000DF931F92CDB7DEB7009771F0182F7C0116
:1002F00007C0F70181917F0169830E94180169811C
:100300008E2D811B8617A8F30F90DF91CF911F913F
:10031000FF90EF900895623031F0633031F061303A
:1003200029F4805C03C08C5E01C08C5A80680C94F8
:1003300041011F93CF93DF93EC01862F642F0E941E
:100340008B0110E003C00E9418011F5FFE01E10F46
:10035000F11D84918111F7CFDF91CF911F91089505
:10036000EF92FF920F931F93CF93DF938C0188E05E
:10037000689FB001112480E4E82EE62AC0E0D0E0B6
:10038000F801EC0FFD1FF4908C2F8E0D0E9441019F
:100390008F2D0E9418012196C830D10589F7DF9171
:1003A000CF911F910F91FF90EF9008951F93CF93DE
:1003B000DF938FE59AEE0197F1F700C0000018B8BF
:1003C00018B887B1806F87B987B1876087B980E334
:1003D00088B9429AEFE3FFE13197F1F700C00000DE
:1003E0004298EFE3FFE13197F1F700C0000088B9D0
:1003F000429A8FE39FE10197F1F700C00000429815
:10040000EFE3FFE13197F1F700C0000080E288B927
:10041000429A8FE39FE10197F1F700C000004298F4
:10042000EFE3FFE13197F1F700C0000088E20E949E
:1004300041018CE00E944101CCE8D0E060E0162F41
:100440001F5FCE010E94B0012896612F1830B9F7C6
:10045000DF91CF911F910895CF93DF93D82FC0E004
:1004600004C08EE10E944101CF5FCD13FACFDF912E
:10047000CF910895CF93DF93D82FC0E004C088E1D7
:100480000E944101CF5FCD13FACFDF91CF91089544
:100490008EE00C9441018FE00C9441018CE00C94AF
:1004A000410188E00C9441018CE00C944101CF9310
:1004B000DF93D82FC0E004C080E10E944101CF5FEC
:1004C000CD13FACFDF91CF910895CF93DF93D82F3B
:1004D000C0E004C084E10E944101CF5FCD13FACF98
:1004E000DF91CF910895CF92DF92EF92FF920F9319
:1004F0001F93CF93DF931F92CDB7DEB756E0459F92
:1005000090011124E82FE29FC001E39F900D112478
:1005100070E00E94FF0A8B01CB0166E070E00E9450
:10052000EB0AE82EC12CD12CF12C16C096012B5FC2
:100530003F4F0217130728F40C151D0520F08E2DD0
:1005400003C085E001C080E049830E941801F39454
:10055000F6E0CF0ED11C4981F412E8CF0F90DF9165
:10056000CF911F910F91FF90EF90DF90CF90089562
:10057000E1E8F0E01082808181648083EFE6F0E0C2
:10058000108280818062808310BE80B7846080BFCB
:1005900080B78F7B80BF14B884B1837F84B90895FE
:1005A00022E020936F008AE590E090938900809389
:1005B000880020938100E0E8F0E010828081826072
:1005C0008083089514B82398229A2A980C94D00214
:1005D0001F920F920FB60F9211248F939F938091C9
:1005E000B1019091B201892B49F08091B1019091B4
:1005F000B20101979093B2018093B1018091900173
:1006000090919101892B49F08091900190919101F5
:10061000019790939101809390019F918F910F90FA
:100620000FBE0F901F9018951F920F920FB60F924A
:1006300011248F939F9381E090E09093A901809380
:10064000A8019F918F910F900FBE0F901F9018954A
:100650001F920F920FB60F9211240BB60F922F9389
:100660003F934F935F936F937F938F939F93AF933A
:10067000BF93CF93DF93EF93FF93C6E8D0E06881F9
:10068000798180E090E00E9427066093A401709336
:10069000A5018093A6019093A7011982188281E099
:1006A00090E09093B6018093B501FF91EF91DF91B7
:1006B000CF91BF91AF919F918F917F916F915F91FA
:1006C0004F913F912F910F900BBE0F900FBE0F9047
:1006D0001F9018958BB194E089278BB9089582E01B
:1006E00080936E0089EF87BD83E085BD14BC84B51F
:1006F000826084BD08950E94D6010E944E020E942D
:10070000660160E080E00E948B0140E060E08CECDC
:1007100090E00C9499016091A4017091A5018091E1
:10072000A6019091A70120E030E04AEF52E40E9438
:10073000C20520E030E048EC52E40E94B5061816ED
:10074000FCF48091A4019091A501A091A601B09123
:10075000A701BF93AF939F938F9382E191E09F9303
:100760008F9382E991E09F938F930E945F0C8DB7E6
:100770009EB708960FB6F8949EBF0FBE8DBF06C0F9
:1007800068E171E082E991E00E94F60B61E080E0AF
:100790000E948B01E2E9F1E0DF010D900020E9F712
:1007A000BD01615071096E1B7F0BCF010E946C016E
:1007B00061E08091A3010E948B0180E20E941801F8
:1007C0009091A3019F3010F08FEF03C0993018F47F
:1007D00081E08093AE018091AE01890F8093A301E7
:1007E00061E00E948B018FE60C94180188E08093F1
:1007F000A3011092B2011092B1010E946F0314B8CC
:100800001AB884E08AB98FEF8BB91092AA011092BE
:10081000AB011092AC011092AD011092A4011092A4
:10082000A5011092A6011092A7011092A9011092A1
:10083000A8011092B4011092B3011092B601109267
:10084000B5010E947B030E9466010E943C0480E087
:1008500091E09093BC018093BB019093B801809389
:10086000B7019093BA018093B901BC0181E291E094
:100870000E94340C7894089587E68093C40088E140
:100880008093C1000895CF93C82F873049F46091B9
:10089000BB017091BC0186E391E00E94340C0BC057
:1008A0008A3019F48DE00E9443048091C00085FFD6
:1008B000FCCFC093C60080E090E0CF910895EF9206
:1008C000FF920F931F93CF93DF938C0180913E0192
:1008D00090913F01892B09F0A1C0C0E4D1E0809143
:1008E000C00087FFFCCF8091C00084FDAAC080912A
:1008F000C00083FDA9C08091C6008D3061F48AE0FC
:100900008883B8010E94430480E491E090933F0102
:1009100080933E0183C08A3091F3893009F480E2EC
:10092000982F90529F3510F0803A90F091E0CF3898
:10093000D90749F46091BB017091BC0186E391E055
:100940000E94340CCCCF8993B8010E944304C7CFD6
:10095000823129F138F4833009F476C0883009F007
:10096000BECF09C0873109F44DC08F3721F08531E2
:1009700009F0B5CF34C0E1E0C034DE0709F008F477
:10098000AECFB80188E00E944304B80180E20E9423
:100990004304B80188E00E9443042197A0CFB80126
:1009A0008DE00E94430480E4E82E81E0F82E06C02A
:1009B000B801F70181917F010E944304EC16FD0606
:1009C000B8F38DCFB80188E00E944304B80180E2FB
:1009D0000E944304B80188E00E9443042197F1E09B
:1009E000C034DF0709F070F77ACFB80188E00E94C1
:1009F0004304B80180E20E944304B80188E00E94E9
:100A00004304E70181E0C034D80709F008F467CF58
:100A1000FE0182917F01803241F761CFE0913E017A
:100A2000F0913F0120812A3031F03196F0933F015F
:100A3000E0933E0104C010923F0110923E0130E06D
:100A400005C02EEF3FEF02C02FEF3FEFC901DF914E
:100A5000CF911F910F91FF90EF9008950E94F603A0
:100A600040E060E08CEC90E00E949901C4EFD1E09E
:100A700008EC10E0EE24E394F12C8091B101909108
:100A8000B201892B31F4D093B201C093B1010E941D
:100A90006A038091900190919101892B31F4109318
:100AA0009101009390010E948B038091A801909185
:100AB000A901892B81F48091B3019091B401892B14
:100AC00051F48091B5019091B601892B21F4F894ED
:100AD0000E94E20278948091A8019091A901892B4B
:100AE00071F08091B3019091B401892B41F4F89495
:100AF000F092B401E092B3010E94B8027894809120
:100B0000B3019091B401892B09F4B7CF8091B5015D
:100B10009091B601892B09F4B0CFF8941092A901F5
:100B20001092A8011092B4011092B3011092B60174
:100B30001092B50180B78B7F80BF809181008F7B41
:100B4000809381006091A4017091A5018091A6011C
:100B50009091A70120E030E048EF52E40E94C205E6
:100B600023E63BEB43E15CE30E94B906AB01BC0129
:100B70004093AA015093AB016093AC017093AD0117
:100B800078947BCF5058BB27AA270ED0B4C0A5D0ED
:100B900030F0AAD020F031F49F3F11F41EF49AC037
:100BA0000EF4E095E7FB90C0E92FB6D080F3BA17BA
:100BB000620773078407950718F071F49EF5CEC09D
:100BC0000EF4E0950B2EBA2FA02D0B01B901900168
:100BD0000C01CA01A0011124FF27591B99F0593FAC
:100BE00050F4503E68F11A16F040A22F232F342FF4
:100BF0004427585FF3CF469537952795A795F04042
:100C00005395C9F77EF41F16BA0B620B730B840B56
:100C1000BAF09150A1F0FF0FBB1F661F771F881F0E
:100C2000C2F70EC0BA0F621F731F841F48F4879566
:100C300077956795B795F7959E3F08F0B3CF939555
:100C4000880F08F09927EE0F979587950895E894F7
:100C500009C097FB3EF490958095709561957F4F04
:100C60008F4F9F4F9923A9F0F92F96E9BB279395B2
:100C7000F695879577956795B795F111F8CFFAF4C2
:100C8000BB0F11F460FF1BC06F5F7F4F8F4F9F4FF3
:100C900016C0882311F096E911C0772321F09EE851
:100CA000872F762F05C0662371F096E8862F70E0B7
:100CB00060E02AF09A95660F771F881FDAF7880F91
:100CC0009695879597F9089597F99F6780E870E062
:100CD00060E008959FEF80EC089500240A941616B2
:100CE000170618060906089500240A94121613061A
:100CF000140605060895092E0394000C11F48823A8
:100D000052F0BB0F40F4BF2B11F460FF04C06F5FC3
:100D10007F4F8F4F9F4F089557FD9058440F551F99
:100D200059F05F3F71F04795880F97FB991F61F06D
:100D30009F3F79F087950895121613061406551FE4
:100D4000F2CF4695F1DF08C0161617061806991F50
:100D5000F1CF86957105610508940895E894BB2745
:100D600066277727CB0197F9089566D008F48FEFAF
:100D700008950BD0C0CFB1DF28F0B6DF18F095236F
:100D800009F0A2CFA7CF1124EACFC6DFA0F3959F29
:100D9000D1F3950F50E0551F629FF001729FBB2762
:100DA000F00DB11D639FAA27F00DB11DAA1F649F0E
:100DB0006627B00DA11D661F829F2227B00DA11DC1
:100DC000621F739FB00DA11D621F839FA00D611D47
:100DD000221F749F3327A00D611D231F849F600D68
:100DE000211D822F762F6A2F11249F5750408AF0A1
:100DF000E1F088234AF0EE0FFF1FBB1F661F771F2D
:100E0000881F91505040A9F79E3F510570F05CCF6C
:100E1000A6CF5F3FECF3983EDCF386957795679518
:100E2000B795F795E7959F5FC1F7FE2B880F911D4A
:100E30009695879597F90895990F0008550FAA0B75
:100E4000E0E8FEEF16161706E807F907C0F01216DD
:100E50001306E407F50798F0621B730B840B950BE0
:100E600039F40A2661F0232B242B252B21F4089535
:100E70000A2609F4A140A6958FEF811D811D0895D2
:100E80002F923F924F925F926F927F928F929F929A
:100E9000AF92BF92CF92DF92EF92FF920F931F9388
:100EA000CF93DF93CDB7DEB762970FB6F894DEBF6E
:100EB0000FBECDBF7C011B016A01FC0117821682A7
:100EC000838181FD03C06BC3650105C088248394C1
:100ED000912C8C0E9D1EF7019381F10193FD85915C
:100EE00093FF81911F01882309F455C3853239F49A
:100EF00093FD859193FF81911F01853231F4B701F4
:100F000090E00E94080C5601DFCF712C612C20E08C
:100F10002032A8F48B3261F028F4803251F0833211
:100F200071F40BC08D3239F0803349F4216028C050
:100F30002260246025C0286023C0206121C027FDD5
:100F400027C0382F30533A3078F426FF06C0FAE035
:100F50007F9E300D1124732E13C04AE0649E300D25
:100F60001124632E20620CC08E3221F426FD13C39F
:100F7000206406C08C3611F4206802C0883641F423
:100F8000F10193FD859193FF81911F018111C0CFE4
:100F9000982F9554933018F42061805E06C0982FE6
:100FA0009556933008F0A4C12F7E26FD02C016E0AE
:100FB000712EBFE35B2E5222853619F4F0E45F2ACE
:100FC00007C0863619F440E8542A02C071107A949A
:100FD00057FE07C05BE3571548F0472C439427E0C2
:100FE0000DC087E0871530F0272D07C027E0ACE360
:100FF0004A2E04C027E0F7E07F2E412C560194E0F2
:10100000A90EB11CF6016081718182819381042D4A
:10101000A4010E94130B8C0149814C8740FF02C040
:1010200043FF07C051FC08C052FE09C0E0E2DE2EBB
:1010300007C07DE2D72E04C06BE2D62E01C0D12CB2
:101040008C858C70A1F1DD2011F084E001C083E07B
:10105000861510F0612C0BC0681A53FC08C0B7014C
:1010600080E290E00E94080C6A94C9F7F3CFDD207B
:1010700029F0B7018D2D90E00E94080C5C8553FD8E
:1010800003C00FEE10E00CC00BEE10E009C05110D1
:101090008052B70190E00E94080C0F5F1F4F02C002
:1010A00080E15822F80184918111F1CF71C257FE7D
:1010B0000EC0400E4C8544FF04C08A81813309F480
:1010C0004A9414144CF558E0541548F12CC056FCC1
:1010D0002AC0872D90E08017910744F00C3F8FEFD6
:1010E000180724F090E8592A01C07A94772049F033
:1010F000E2E0F0E0EC0FFD1FE70DF11D8081803391
:10110000A1F357FE10C0472C4394872D90E0081799
:10111000190744F4701A07C04424439404C058E0EB
:10112000452E01C0712C57FE07C0101611063CF465
:1011300098012F5F3F4F05C025E030E002C021E05D
:1011400030E0DD2011F02F5F3F4F772031F0472D49
:1011500050E04F5F5F4F240F351F462D50E024179E
:10116000350714F4621A01C0612C852D897049F489
:1011700006C0B70180E290E00E94080C6A946110FA
:10118000F8CFDD2029F0B7018D2D90E00E94080CEA
:1011900053FC09C006C0B70180E390E00E94080C30
:1011A0006A946110F8CF57FE56C0680117FF02C05D
:1011B000C12CD12C20E030E0A801441951095E87F0
:1011C0004D8728014C185D08480C591C872D90E06C
:1011D00044275527481B590B588B4F875FEFC5167F
:1011E000D50649F4B7018EE290E02A8B398B0E9434
:1011F000080C39892A890C151D0554F04D855E852A
:101200004C155D052CF4F201E20FF31F818101C042
:1012100080E351E0C51AD1082F5F3F4F4F855889B1
:10122000C416D5064CF0B70190E02A8B398B0E948A
:10123000080C2A893989D2CFC016D10649F49A817F
:10124000963328F4953321F45C8554FD01C081E385
:10125000B70190E04AC08A81813319F04C854F7EF6
:101260004C87B70190E00E94080C711005C054FE35
:1012700016C085E490E015C0B7018EE290E00E94B0
:10128000080C42E0D42EF401ED0DF11DD394B7010A
:10129000808190E00E94080C7A94A9F7E8CF85E657
:1012A00090E0B7010E94080C17FD06C0011511055A
:1012B00041F45C8554FF05C01195019511098DE23B
:1012C00001C08BE2B70190E00E94080C80E303C0EC
:1012D0008F5F0A5011090A301105D4F7B70190E069
:1012E0000E94080CB701C801C0960E94080C50C1AA
:1012F000833631F0833781F0833509F05EC024C036
:10130000560182E0A80EB11CF60180818983CC24AD
:10131000C394D12C840114C05601F2E0AF0EB11C6D
:10132000F6010081118126FF03C0672D70E002C025
:101330006FEF7FEFC8012A8B0E94FD0B6C012A8999
:101340009FE7592E522217C05601F2E0AF0EB11C92
:10135000F6010081118126FF03C0672D70E002C0F5
:101360006FEF7FEFC8012A8B0E94EB0B6C012A897B
:1013700080E8582E522A53FC1CC006C0B70180E2F8
:1013800090E00E94080C6A94862D90E0C816D90659
:10139000A8F30FC0F80157FC859157FE81918F018A
:1013A000B70190E00E94080C61106A94F1E0CF1A36
:1013B000D108C114D10471F7EBC0843611F089361D
:1013C00051F5560127FF09C044E0A40EB11CF601F7
:1013D00060817181828193810AC0F2E0AF0EB11CFD
:1013E000F60160817181882777FD8095982F122FF3
:1013F0001F7697FF08C090958095709561957F4FF7
:101400008F4F9F4F10682AE030E0A4010E948E0C9D
:10141000D82ED81840C0122F853721F41F7E2AE01D
:1014200030E01FC0197F8F36A1F020F4883509F015
:10143000B2C00BC0803721F0883709F0ACC001C0C2
:10144000106114FF09C0146007C024FF08C01660B3
:1014500006C028E030E005C020E130E002C020E115
:1014600032E0560117FF09C0F4E0AF0EB11CF601DF
:10147000608171818281938108C0F2E0AF0EB11C5E
:10148000F6016081718180E090E0A4010E948E0CE1
:10149000D82ED8181F7716FF0BC0212F2E7FD714F8
:1014A00050F414FF0AC012FD08C0212F2E7E05C083
:1014B0000D2D212F03C00D2D01C0072D24FF0CC0C1
:1014C000FE01ED0DF11D8081803311F4297E08C0ED
:1014D00022FF05C00E5F04C0822F867809F00F5FDF
:1014E00023FD14C020FF0FC07D2C061560F4760C80
:1014F000701A062D08C0B70180E290E02A8B0E9486
:10150000080C0F5F2A890615B0F304C0061510F405
:10151000601A01C0612C24FF12C0B70180E390E083
:101520002A8B0E94080C2A8922FF1EC021FF03C0BB
:1015300088E590E002C088E790E0B7010CC0822FF8
:10154000867891F021FD02C080E201C08BE227FD88
:101550008DE2B70190E00E94080C06C0B70180E35D
:1015600090E00E94080C7A94D714C0F3DA94F40146
:10157000ED0DF11DB701808190E00E94080CD110A3
:10158000F5CF06C0B70180E290E00E94080C6A9493
:101590006110F8CF99CCF7012681378102C02FEF77
:1015A0003FEFC90162960FB6F894DEBF0FBECDBF04
:1015B000DF91CF911F910F91FF90EF90DF90CF902F
:1015C000BF90AF909F908F907F906F905F904F9063
:1015D0003F902F900895AA1BBB1B51E107C0AA1F83
:1015E000BB1FA617B70710F0A61BB70B881F991FC4
:1015F0005A95A9F780959095BC01CD01089597FB68
:10160000072E16F4009407D077FD09D00E94EB0A4C
:1016100007FC05D03EF4909581959F4F08957095F5
:1016200061957F4F0895283008F027E03327DA01CD
:10163000990F311D87FD916000966105710539F4A0
:1016400032602E5F3D9330E32A95E1F708959F3F86
:1016500030F080387105610509F03C5F3C5F3D93D7
:10166000913008F08068911DDF93CF931F930F9303
:10167000FF92EF92192F987F9695E92F9695969560
:10168000E90FFF27E35BFE4F99273327EE24FF2462
:10169000A701E70105900894079428F4360FE71E88
:1016A000F81E491F511D660F771F881F991F06944A
:1016B000A1F70590079428F4E70EF81E491F561F5E
:1016C000C11D770F881F991F661F0694A1F705900B
:1016D000079428F4F80E491F561FC71FD11D880F05
:1016E000991F661F771F0694A1F70590079420F4B1
:1016F000490F561FC71FD81F990F661F771F881FD6
:101700000694A9F784911095177041F0D695C79566
:1017100057954795F794E7941A95C1F7E3EFF0E0F2
:1017200068941590159135916591959105907FE29A
:101730007395E118F10A430B560BC90BD009C0F79A
:10174000E10CF11E431F561FC91FD01D7EF47033DC
:1017500011F48A95E6CFE894015030F0080F0AF4AE
:101760000027021708F4202F2395022F7A3328F040
:1017700079E37D932A95E9F710C07D932A9589F640
:10178000069497956795379517951794E118F10A80
:10179000430B560BC90BD00998F023957E91739596
:1017A0007A3308F070E37C932013B8F77E91706170
:1017B0007D9330F0839571E37D9370E32A95E1F793
:1017C0001124EF90FF900F911F91CF91DF919927F6
:1017D00087FD90950895FC010590615070400110BF
:1017E000D8F7809590958E0F9F1F0895FB01DC011F
:1017F00001900D920020E1F70895FC0161507040C6
:1018000001900110D8F7809590958E0F9F1F089535
:101810000F931F93CF93DF938C01EB018B8181FD9D
:1018200003C00FEF1FEF1AC082FF0DC02E813F8152
:101830008C819D812817390764F4E881F98101932F
:10184000F983E88306C0E885F985802F0995892BFF
:1018500041F78E819F8101969F838E83C801DF911E
:10186000CF911F910F910895EF92FF920F931F93C5
:10187000CF93DF937C018B01DB0113968C9181FF69
:1018800014C0C0E0D0E00BC0D8011896ED91FC91D7
:101890001997B8010995892B11F0CFEFDFEFF70108
:1018A00081917F018111F0CF02C0CFEFDFEFCE0138
:1018B000DF91CF911F910F91FF90EF9008950F93BB
:1018C0001F93CF93DF93CDB7DEB72E970FB6F89463
:1018D000DEBF0FBECDBF0D891E8986E08C831A83C3
:1018E00009838FEF9FE79E838D83CE014996AC01DC
:1018F0006F89788DCE0101960E944007EF81F885AF
:10190000E00FF11F10822E960FB6F894DEBF0FBEC7
:10191000CDBFDF91CF911F910F910895FA01AA27B2
:10192000283051F1203181F1E8946F936E7F6E5F22
:101930007F4F8F4F9F4FAF4FB1E03ED0B4E03CD0D0
:10194000670F781F891F9A1FA11D680F791F8A1FB3
:10195000911DA11D6A0F711D811D911DA11D20D01A
:1019600009F468943F912AE0269F11243019305DD4
:101970003193DEF6CF010895462F4770405D4193C5
:10198000B3E00FD0C9F7F6CF462F4F70405D4A3312
:1019900018F0495D31FD4052419302D0A9F7EACFDA
:1019A000B4E0A6959795879577956795BA95C9F709
:1019B00000976105710508959B01AC010A2E0694FC
:1019C0005795479537952795BA95C9F7620F731FB5
:0C19D000841F951FA01D0895F894FFCF00
:1019DC00000000030000000043045F04000063BB30
:1019EC00133C252D2E3466004E2F41202020202024
:1019FC00005374617274696E672074696D657273DB
:0E1A0C002E2E2E0A0D002A72696E672A0A001D
:00000001FF
