:100000000C94F7000C9416010C9416010C94160134
:100010000C9416010C9416010C9416010C94160104
:100020000C9416010C9416010C9416010C941601F4
:100030000C943C030C9428030C9416010C941601A8
:100040000C94FC020C9416010C9416010C941601ED
:100050000C9416010C9416010C9416010C941601C4
:100060000C9416010C9416010C9416010C941601B4
:100070000C9416010C9416010C9416010C941601A4
:100080000C9416010C9416010C941601001F00002C
:1000900000001F00001F101010101F00001F181874
:1000A00018181F00001F1C1C1C1C1F00001F1E1EF8
:1000B0001E1E1F00001F1F1F1F1F1F0003070F1FF3
:1000C0000F070300181C1E1F1E1C180043617061DF
:1000D000636974616E63653D00004C434420496E62
:1000E000697469616C697A656400006E616E0069AB
:1000F0006E660000407A10F35A00A0724E18090094
:1001000010A5D4E80000E87648170000E40B54027C
:100110000000CA9A3B000000E1F5050000809698B7
:1001200000000040420F000000A086010000001007
:100130002700000000E80300000000640000000049
:10014000000A00000000000100000000002C76D82A
:1001500088DC674F0823DFC1DFAE59E1B1B796E510
:10016000E3E453C63AE651997696E8E6C28426EB74
:10017000898C9B62ED407C6FFCEFBC9C9F40F2BA87
:10018000A56FA5F490055A2AF75C936B6CF9676D1F
:10019000C11BFCE0E40D47FEF520E6B500D0ED9074
:1001A0002E0300943577050080841E080000204E41
:1001B0000A000000C80C333333330F986E128311DA
:1001C00041EF8D2114893BE65516CFFEE6DB18D1B1
:1001D000844B381BF77C1D901DA4BBE42420328483
:1001E000725E228100C9F124ECA1E53D27001124B3
:1001F0001FBECFEFD0E4DEBFCDBF11E0A0E0B1E085
:10020000E8E7F4E100E00BBF02C007900D92AA30CE
:10021000B107D9F721E0AAE0B1E001C01D92A333F4
:10022000B207E1F70E9409040C943A0A0C9400000A
:10023000982F907F98B9409A429AEFE3FFE1319767
:10024000F1F700C0000042984098EFE3FFE13197DA
:10025000F1F700C00000F0E18F9FC001112488B9C0
:10026000409A429A8FE39FE10197F1F700C00000A6
:1002700042984098EFE3FFE13197F1F700C00000AA
:100280000895982F907F98B9429AEFE3FFE1319754
:10029000F1F700C000004298EFE3FFE13197F1F77A
:1002A00000C00000F0E18F9FC001112488B9429A7C
:1002B0008FE39FE10197F1F700C000004298EFE360
:1002C000FFE13197F1F700C00000089581E00C9440
:1002D000410182E00C944101EF92FF921F93CF9372
:1002E000DF931F92CDB7DEB7009771F0182F7C0116
:1002F00007C0F70181917F0169830E94180169811C
:100300008E2D811B8617A8F30F90DF91CF911F913F
:10031000FF90EF900895623031F0633031F061303A
:1003200029F4805C03C08C5E01C08C5A80680C94F8
:1003300041011F93CF93DF93EC01862F642F0E941E
:100340008B0110E003C00E9418011F5FFE01E10F46
:10035000F11D84918111F7CFDF91CF911F91089505
:10036000EF92FF920F931F93CF93DF938C0188E05E
:10037000689FB001112480E4E82EE62AC0E0D0E0B6
:10038000F801EC0FFD1FF4908C2F8E0D0E9441019F
:100390008F2D0E9418012196C830D10589F7DF9171
:1003A000CF911F910F91FF90EF9008951F93CF93DE
:1003B000DF938FE59AEE0197F1F700C0000018B8BF
:1003C00018B887B1806F87B987B1876087B980E334
:1003D00088B9429AEFE3FFE13197F1F700C00000DE
:1003E0004298EFE3FFE13197F1F700C0000088B9D0
:1003F000429A8FE39FE10197F1F700C00000429815
:10040000EFE3FFE13197F1F700C0000080E288B927
:10041000429A8FE39FE10197F1F700C000004298F4
:10042000EFE3FFE13197F1F700C0000088E20E949E
:1004300041018CE00E944101CCE8D0E060E0162F41
:100440001F5FCE010E94B0012896612F1830B9F7C6
:10045000DF91CF911F910895CF93DF93D82FC0E004
:1004600004C08EE10E944101CF5FCD13FACFDF912E
:10047000CF910895CF93DF93D82FC0E004C088E1D7
:100480000E944101CF5FCD13FACFDF91CF91089544
:100490008EE00C9441018FE00C9441018CE00C94AF
:1004A000410188E00C9441018CE00C944101CF9310
:1004B000DF93D82FC0E004C080E10E944101CF5FEC
:1004C000CD13FACFDF91CF910895CF93DF93D82F3B
:1004D000C0E004C084E10E944101CF5FCD13FACF98
:1004E000DF91CF910895CF92DF92EF92FF920F9319
:1004F0001F93CF93DF931F92CDB7DEB756E0459F92
:1005000090011124E82FE29FC001E39F900D112478
:1005100070E00E947F088B01CB0166E070E00E94D2
:100520006B08E82EC12CD12CF12C16C096012B5F44
:100530003F4F0217130728F40C151D0520F08E2DD0
:1005400003C085E001C080E049830E941801F39454
:10055000F6E0CF0ED11C4981F412E8CF0F90DF9165
:10056000CF911F910F91FF90EF90DF90CF90089562
:10057000E1E8F0E01082808181648083EFE6F0E0C2
:10058000108280818062808310BE80B7846080BFCB
:1005900080B78F7B80BF14B884B1837F84B90895FE
:1005A00022E020936F008AE590E090938900809389
:1005B000880020938100E0E8F0E010828081826072
:1005C000808308951092260110922701109228012D
:1005D00010922901109223011092220110921E0103
:1005E00010921F01109220011092210114B823983B
:1005F000229A2A980C94D0021F920F920FB60F9253
:1006000011248F939F9380912D0190912E01892B1E
:1006100049F080912D0190912E01019790932E0128
:1006200080932D0180910A0190910B01892B49F053
:1006300080910A0190910B01019790930B01809397
:100640000A019F918F910F900FBE0F901F901895E8
:100650001F920F920FB60F9211248F939F9381E0F8
:1006600090E090932501809324019F918F910F90AA
:100670000FBE0F901F9018951F920F920FB60F92FA
:1006800011240BB60F928F939F93EF93FF93E6E89D
:10069000F0E0808191819093230180932201118267
:1006A000108281E090E09093320180933101FF91BC
:1006B000EF919F918F910F900BBE0F900FBE0F90F7
:1006C0001F9018958BB194E089278BB9089582E02B
:1006D00080936E0089EF87BD83E085BD14BC84B52F
:1006E000826084BD08950E94D6010E944E020E943D
:1006F000660160E080E00E948B0140E060E08CECED
:1007000090E00C949901CF93DF9380912601909112
:100710002701A0912801B0912901BF93AF939F9326
:100720008F9384E091E09F938F93CCE0D1E0DF93AF
:10073000CF930E94AD0961E080E00E948B01FE0131
:1007400001900020E9F7BF01615071096C1B7D0B1E
:10075000CE010E946C0161E080911D010E948B011D
:1007600080E20E94180190911D012DB73EB7285FCD
:100770003F4F0FB6F8943EBF0FBE2DBF9F3010F015
:100780008FEF03C0993018F481E080932A018091A3
:100790002A01890F80931D0161E00E948B018FE681
:1007A000DF91CF910C94180188E080931D01109285
:1007B0002E0110922D010E94670314B81AB884E02C
:1007C0008AB98FEF8BB910922601109227011092EF
:1007D00028011092290110922301109222011092F7
:1007E0001E0110921F0110922001109221011092FF
:1007F0002501109224011092300110922F011092C5
:100800003201109231010E9473030E9466017894B4
:1008100008950E94D40340E060E08CEC90E00E94D8
:100820009901C4EFD1E008EC10E0EE24E394F12C40
:1008300080912D0190912E01892B31F4D0932E01BE
:10084000C0932D010E94620380910A0190910B01D7
:10085000892B31F410930B0100930A010E9483034A
:100860008091240190912501892B71F480912F01B1
:1008700090913001892B41F48091310190913201A6
:10088000892B11F40E94E2028091240190912501AC
:10089000892B61F080912F0190913001892B31F4E7
:1008A000F0923001E0922F010E94B80280912F0156
:1008B00090913001892B09F4BBCF80913101909147
:1008C0003201892B09F4B4CF109225011092240132
:1008D0001092300110922F011092320110923101CA
:1008E0006091220170912301882777FD8095982FD0
:1008F0000E9485046093260170932701809328014C
:100900009093290195CFE89409C097FB3EF4909508
:100910008095709561957F4F8F4F9F4F9923A9F0D8
:10092000F92F96E9BB279395F69587957795679567
:10093000B795F111F8CFFAF4BB0F11F460FF1BC0AB
:100940006F5F7F4F8F4F9F4F16C0882311F096E93E
:1009500011C0772321F09EE8872F762F05C06623EC
:1009600071F096E8862F70E060E02AF09A95660FA5
:10097000771F881FDAF7880F9695879597F908955E
:100980002F923F924F925F926F927F928F929F929F
:10099000AF92BF92CF92DF92EF92FF920F931F938D
:1009A000CF93DF93CDB7DEB762970FB6F894DEBF73
:1009B0000FBECDBF7C011B016A01FC0117821682AC
:1009C000838181FD03C06BC3650105C088248394C6
:1009D000912C8C0E9D1EF7019381F10193FD859161
:1009E00093FF81911F01882309F455C3853239F49F
:1009F00093FD859193FF81911F01853231F4B701F9
:100A000090E00E9481095601DFCF712C612C20E01B
:100A10002032A8F48B3261F028F4803251F0833216
:100A200071F40BC08D3239F0803349F4216028C055
:100A30002260246025C0286023C0206121C027FDDA
:100A400027C0382F30533A3078F426FF06C0FAE03A
:100A50007F9E300D1124732E13C04AE0649E300D2A
:100A60001124632E20620CC08E3221F426FD13C3A4
:100A7000206406C08C3611F4206802C0883641F428
:100A8000F10193FD859193FF81911F018111C0CFE9
:100A9000982F9554933018F42061805E06C0982FEB
:100AA0009556933008F0A4C12F7E26FD02C016E0B3
:100AB000712EBFE35B2E5222853619F4F0E45F2AD3
:100AC00007C0863619F440E8542A02C071107A949F
:100AD00057FE07C05BE3571548F0472C439427E0C7
:100AE0000DC087E0871530F0272D07C027E0ACE365
:100AF0004A2E04C027E0F7E07F2E412C560194E0F7
:100B0000A90EB11CF6016081718182819381042D4F
:100B1000A4010E9493088C0149814C8740FF02C0C8
:100B200043FF07C051FC08C052FE09C0E0E2DE2EC0
:100B300007C07DE2D72E04C06BE2D62E01C0D12CB7
:100B40008C858C70A1F1DD2011F084E001C083E080
:100B5000861510F0612C0BC0681A53FC08C0B70151
:100B600080E290E00E9481096A94C9F7F3CFDD200A
:100B700029F0B7018D2D90E00E9481095C8553FD1D
:100B800003C00FEE10E00CC00BEE10E009C05110D6
:100B90008052B70190E00E9481090F5F1F4F02C091
:100BA00080E15822F80184918111F1CF71C257FE82
:100BB0000EC0400E4C8544FF04C08A81813309F485
:100BC0004A9414144CF558E0541548F12CC056FCC6
:100BD0002AC0872D90E08017910744F00C3F8FEFDB
:100BE000180724F090E8592A01C07A94772049F038
:100BF000E2E0F0E0EC0FFD1FE70DF11D8081803396
:100C0000A1F357FE10C0472C4394872D90E008179E
:100C1000190744F4701A07C04424439404C058E0F0
:100C2000452E01C0712C57FE07C0101611063CF46A
:100C300098012F5F3F4F05C025E030E002C021E062
:100C400030E0DD2011F02F5F3F4F772031F0472D4E
:100C500050E04F5F5F4F240F351F462D50E02417A3
:100C6000350714F4621A01C0612C852D897049F48E
:100C700006C0B70180E290E00E9481096A94611089
:100C8000F8CFDD2029F0B7018D2D90E00E94810979
:100C900053FC09C006C0B70180E390E00E948109BF
:100CA0006A946110F8CF57FE56C0680117FF02C062
:100CB000C12CD12C20E030E0A801441951095E87F5
:100CC0004D8728014C185D08480C591C872D90E071
:100CD00044275527481B590B588B4F875FEFC51684
:100CE000D50649F4B7018EE290E02A8B398B0E9439
:100CF000810939892A890C151D0554F04D855E85B9
:100D00004C155D052CF4F201E20FF31F818101C047
:100D100080E351E0C51AD1082F5F3F4F4F855889B6
:100D2000C416D5064CF0B70190E02A8B398B0E948F
:100D300081092A893989D2CFC016D10649F49A810E
:100D4000963328F4953321F45C8554FD01C081E38A
:100D5000B70190E04AC08A81813319F04C854F7EFB
:100D60004C87B70190E00E948109711005C054FEC4
:100D700016C085E490E015C0B7018EE290E00E94B5
:100D8000810942E0D42EF401ED0DF11DD394B70199
:100D9000808190E00E9481097A94A9F7E8CF85E6E6
:100DA00090E0B7010E94810917FD06C001151105E9
:100DB00041F45C8554FF05C01195019511098DE240
:100DC00001C08BE2B70190E00E94810980E303C07B
:100DD0008F5F0A5011090A301105D4F7B70190E06E
:100DE0000E948109B701C801C0960E94810950C1C3
:100DF000833631F0833781F0833509F05EC024C03B
:100E0000560182E0A80EB11CF60180818983CC24B2
:100E1000C394D12C840114C05601F2E0AF0EB11C72
:100E2000F6010081118126FF03C0672D70E002C02A
:100E30006FEF7FEFC8012A8B0E9476096C012A8927
:100E40009FE7592E522217C05601F2E0AF0EB11C97
:100E5000F6010081118126FF03C0672D70E002C0FA
:100E60006FEF7FEFC8012A8B0E946B096C012A8902
:100E700080E8582E522A53FC1CC006C0B70180E2FD
:100E800090E00E9481096A94862D90E0C816D906E8
:100E9000A8F30FC0F80157FC859157FE81918F018F
:100EA000B70190E00E94810961106A94F1E0CF1AC5
:100EB000D108C114D10471F7EBC0843611F0893622
:100EC00051F5560127FF09C044E0A40EB11CF601FC
:100ED00060817181828193810AC0F2E0AF0EB11C02
:100EE000F60160817181882777FD8095982F122FF8
:100EF0001F7697FF08C090958095709561957F4FFC
:100F00008F4F9F4F10682AE030E0A4010E94DC0957
:100F1000D82ED81840C0122F853721F41F7E2AE022
:100F200030E01FC0197F8F36A1F020F4883509F01A
:100F3000B2C00BC0803721F0883709F0ACC001C0C7
:100F4000106114FF09C0146007C024FF08C01660B8
:100F500006C028E030E005C020E130E002C020E11A
:100F600032E0560117FF09C0F4E0AF0EB11CF601E4
:100F7000608171818281938108C0F2E0AF0EB11C63
:100F8000F6016081718180E090E0A4010E94DC099B
:100F9000D82ED8181F7716FF0BC0212F2E7FD714FD
:100FA00050F414FF0AC012FD08C0212F2E7E05C088
:100FB0000D2D212F03C00D2D01C0072D24FF0CC0C6
:100FC000FE01ED0DF11D8081803311F4297E08C0F2
:100FD00022FF05C00E5F04C0822F867809F00F5FE4
:100FE00023FD14C020FF0FC07D2C061560F4760C85
:100FF000701A062D08C0B70180E290E02A8B0E948B
:1010000081090F5F2A890615B0F304C0061510F494
:10101000601A01C0612C24FF12C0B70180E390E088
:101020002A8B0E9481092A8922FF1EC021FF03C04A
:1010300088E590E002C088E790E0B7010CC0822FFD
:10104000867891F021FD02C080E201C08BE227FD8D
:101050008DE2B70190E00E94810906C0B70180E3EC
:1010600090E00E9481097A94D714C0F3DA94F401D5
:10107000ED0DF11DB701808190E00E948109D11032
:10108000F5CF06C0B70180E290E00E9481096A9422
:101090006110F8CF99CCF7012681378102C02FEF7C
:1010A0003FEFC90162960FB6F894DEBF0FBECDBF09
:1010B000DF91CF911F910F91FF90EF90DF90CF9034
:1010C000BF90AF909F908F907F906F905F904F9068
:1010D0003F902F900895AA1BBB1B51E107C0AA1F88
:1010E000BB1FA617B70710F0A61BB70B881F991FC9
:1010F0005A95A9F780959095BC01CD01089597FB6D
:10110000072E16F4009407D077FD09D00E946B08D3
:1011100007FC05D03EF4909581959F4F08957095FA
:1011200061957F4F0895283008F027E03327DA01D2
:10113000990F311D87FD916000966105710539F4A5
:1011400032602E5F3D9330E32A95E1F708959F3F8B
:1011500030F080387105610509F03C5F3C5F3D93DC
:10116000913008F08068911DDF93CF931F930F9308
:10117000FF92EF92192F987F9695E92F9695969565
:10118000E90FFF27E35BFE4F99273327EE24FF2467
:10119000A701E70105900894079428F4360FE71E8D
:1011A000F81E491F511D660F771F881F991F06944F
:1011B000A1F70590079428F4E70EF81E491F561F63
:1011C000C11D770F881F991F661F0694A1F7059010
:1011D000079428F4F80E491F561FC71FD11D880F0A
:1011E000991F661F771F0694A1F70590079420F4B6
:1011F000490F561FC71FD81F990F661F771F881FDB
:101200000694A9F784911095177041F0D695C7956B
:1012100057954795F794E7941A95C1F7E3EFF0E0F7
:1012200068941590159135916591959105907FE29F
:101230007395E118F10A430B560BC90BD009C0F79F
:10124000E10CF11E431F561FC91FD01D7EF47033E1
:1012500011F48A95E6CFE894015030F0080F0AF4B3
:101260000027021708F4202F2395022F7A3328F045
:1012700079E37D932A95E9F710C07D932A9589F645
:10128000069497956795379517951794E118F10A85
:10129000430B560BC90BD00998F023957E9173959B
:1012A0007A3308F070E37C932013B8F77E91706175
:1012B0007D9330F0839571E37D9370E32A95E1F798
:1012C0001124EF90FF900F911F91CF91DF919927FB
:1012D00087FD90950895FC010590615070400110C4
:1012E000D8F7809590958E0F9F1F0895FC0161504F
:1012F000704001900110D8F7809590958E0F9F1F38
:1013000008950F931F93CF93DF938C01EB018B8193
:1013100081FD03C00FEF1FEF1AC082FF0DC02E81A9
:101320003F818C819D812817390764F4E881F98118
:101330000193F983E88306C0E885F985802F099534
:10134000892B41F78E819F8101969F838E83C801EF
:10135000DF91CF911F910F9108950F931F93CF931A
:10136000DF93CDB7DEB72E970FB6F894DEBF0FBE72
:10137000CDBF0D891E8986E08C831A8309838FEF88
:101380009FE79E838D83CE014996AC016F89788D4E
:10139000CE0101960E94C004EF81F885E00FF11F95
:1013A00010822E960FB6F894DEBF0FBECDBFDF9130
:1013B000CF911F910F910895FA01AA27283051F17A
:1013C000203181F1E8946F936E7F6E5F7F4F8F4F76
:1013D0009F4FAF4FB1E03ED0B4E03CD0670F781FD5
:1013E000891F9A1FA11D680F791F8A1F911DA11DBA
:1013F0006A0F711D811D911DA11D20D009F46894F3
:101400003F912AE0269F11243019305D3193DEF69A
:10141000CF010895462F4770405D4193B3E00FD050
:10142000C9F7F6CF462F4F70405D4A3318F0495D3B
:1014300031FD4052419302D0A9F7EACFB4E0A6951E
:101440009795879577956795BA95C9F70097610540
:10145000710508959B01AC010A2E06945795479596
:1014600037952795BA95C9F7620F731F841F951F8B
:08147000A01D0895F894FFCFC0
:0A1478001872313F252D2E35660055
:00000001FF
