:100000000C94F7000C9416010C9416010C94160134
:100010000C9416010C9416010C9416010C94160104
:100020000C9416010C9416010C9416010C941601F4
:100030000C9488010C9474010C9416010C94160114
:100040000C9448010C9416010C9416010C941601A2
:100050000C9416010C9416010C9416010C941601C4
:100060000C9416010C9416010C9416010C941601B4
:100070000C9416010C9416010C9416010C941601A4
:100080000C9416010C9416010C94160143617061D6
:10009000636974616E63653D00004C434420496EA2
:1000A000697469616C697A65640000001F00000072
:1000B000001F00001F101010101F00001F1818183C
:1000C000181F00001F1C1C1C1C1F00001F1E1E1ED2
:1000D0001E1F00001F1F1F1F1F1F0003070F1F0FE2
:1000E000070300181C1E1F1E1C18006E616E00699D
:1000F0006E660000407A10F35A00A0724E18090094
:1001000010A5D4E80000E87648170000E40B54027C
:100110000000CA9A3B000000E1F5050000809698B7
:1001200000000040420F000000A086010000001007
:100130002700000000E80300000000640000000049
:10014000000A00000000000100000000002C76D82A
:1001500088DC674F0823DFC1DFAE59E1B1B796E510
:10016000E3E453C63AE651997696E8E6C28426EB74
:10017000898C9B62ED407C6FFCEFBC9C9F40F2BA87
:10018000A56FA5F490055A2AF75C936B6CF9676D1F
:10019000C11BFCE0E40D47FEF520E6B500D0ED9074
:1001A0002E0300943577050080841E080000204E41
:1001B0000A000000C80C333333330F986E128311DA
:1001C00041EF8D2114893BE65516CFFEE6DB18D1B1
:1001D000844B381BF77C1D901DA4BBE42420328483
:1001E000725E228100C9F124ECA1E53D27001124B3
:1001F0001FBECFEFD0E4DEBFCDBF11E0A0E0B1E085
:10020000E4E6F6E100E00BBF02C007900D92AA30D1
:10021000B107D9F721E0AAE0B1E001C01D92A133F6
:10022000B207E1F70E94F3030C94300B0C9400002A
:10023000E1E8F0E01082808181648083EFE6F0E005
:10024000108280818062808310BE80B7846080BF0E
:1002500080B78F7B80BF14B884B1837F84B9089541
:1002600022E020936F008AE590E0909389008093CC
:10027000880020938100E0E8F0E0108280818260B5
:100280008083089514B82398229A2A980C943001F8
:100290001F920F920FB60F9211248F939F9380910C
:1002A0002F0190913001892B49F080912F0190917D
:1002B000300101979093300180932F0180911001BC
:1002C00090911101892B49F08091100190911101B9
:1002D000019790931101809310019F918F910F903E
:1002E0000FBE0F901F9018951F920F920FB60F928E
:1002F00011248F939F9381E090E090930D01809360
:100300000C019F918F910F900FBE0F901F90189529
:100310001F920F920FB60F9211240BB60F922F93CC
:100320003F934F935F936F937F938F939F93AF937D
:10033000BF93EF93FF93609186007091870080E0F8
:1003400090E00E94C50420E030E04AE752E40E94B9
:100350005305AB01BC0140932401509325016093E8
:1003600026017093270181E090E090930B01809328
:100370000A01FF91EF91BF91AF919F918F917F9172
:100380006F915F914F913F912F910F900BBE0F9006
:100390000FBE0F901F9018958BB194E089278BB9F1
:1003A000089582E080936E0089EF87BD83E085BD6C
:1003B00014BC84B5826084BD08950E9411030E941C
:1003C00089030E94A10260E080E00E94C60240E032
:1003D00060E08CE890E00C94D402CF93DF9380919E
:1003E000280190912901A0912A01B0912B01BF937E
:1003F000AF939F938F9384E091E09F938F93C2E19B
:10040000D1E0DF93CF930E94A30A61E080E00E94D5
:10041000C602FE0101900020E9F7BF016150710999
:100420006C1B7D0BCE010E94A70261E0809123012D
:100430000E94C60280E20E945302909123012DB7D0
:100440003EB7285F3F4F0FB6F8943EBF0FBE2DBF9B
:100450009F3010F08FEF03C0993018F481E0809343
:100460002C0180912C01890F8093230161E00E946F
:10047000C6028FE6DF91CF910C94530288E08093FF
:1004800023011092300110922F010E94D10114B863
:100490001AB884E08AB98FEF8BB90E94DD010E94FF
:1004A000A10278940895982F907F98B9409A429A23
:1004B000EFE3FFE13197F1F700C000004298409868
:1004C000EFE3FFE13197F1F700C00000F0E18F9F0B
:1004D000C001112488B9409A429A8FE39FE10197A5
:1004E000F1F700C0000042984098EFE3FFE1319738
:1004F000F1F700C000000895982F907F98B9429AB4
:10050000EFE3FFE13197F1F700C000004298EFE31D
:10051000FFE13197F1F700C00000F0E18F9FC001CB
:10052000112488B9429A8FE39FE10197F1F700C047
:1005300000004298EFE3FFE13197F1F700C00000BF
:10054000089581E00C947C0282E00C947C02EF928E
:10055000FF921F93CF93DF931F92CDB7DEB7009723
:1005600071F0182F7C0107C0F70181917F01698329
:100570000E94530269818E2D811B8617A8F30F906C
:10058000DF91CF911F91FF90EF900895623031F08D
:10059000633031F0613029F4805C03C08C5E01C0AF
:1005A0008C5A80680C947C021F93CF93DF93EC01EC
:1005B000862F642F0E94C60210E003C00E945302DF
:1005C0001F5FFE01E10FF11D84918111F7CFDF91D3
:1005D000CF911F910895EF92FF920F931F93CF93A6
:1005E000DF938C0188E0689FB001112480E4E82E3D
:1005F000E62AC0E0D0E0F801EC0FFD1FF4908C2F4C
:100600008E0D0E947C028F2D0E9453022196C830CD
:10061000D10589F7DF91CF911F910F91FF90EF9056
:1006200008951F93CF93DF938FE59AEE0197F1F72B
:1006300000C0000018B818B887B1806F87B987B1BB
:10064000876087B980E388B9429AEFE3FFE1319789
:10065000F1F700C000004298EFE3FFE13197F1F7B6
:1006600000C0000088B9429A8FE39FE10197F1F73B
:1006700000C000004298EFE3FFE13197F1F700C0BE
:10068000000080E288B9429A8FE39FE10197F1F779
:1006900000C000004298EFE3FFE13197F1F700C09E
:1006A000000088E20E947C028CE00E947C02CBEA7F
:1006B000D0E060E0162F1F5FCE010E94EB0228966B
:1006C000612F1830B9F7DF91CF911F910895CF9323
:1006D000DF93D82FC0E004C08EE10E947C02CF5F80
:1006E000CD13FACFDF91CF910895CF93DF93D82F19
:1006F000C0E004C088E10E947C02CF5FCD13FACF36
:10070000DF91CF9108958EE00C947C028FE00C94E1
:100710007C028CE00C947C0288E00C947C028CE0DF
:100720000C947C02CF93DF93D82FC0E004C080E10B
:100730000E947C02CF5FCD13FACFDF91CF91089555
:10074000CF93DF93D82FC0E004C084E10E947C02E5
:10075000CF5FCD13FACFDF91CF910895CF92DF9283
:10076000EF92FF920F931F93CF93DF931F92CDB71A
:10077000DEB756E0459F90011124E82FE29FC001AB
:10078000E39F900D112470E00E9475098B01CB014D
:1007900066E070E00E946109E82EC12CD12CF12C9A
:1007A00016C096012B5F3F4F0217130728F40C1554
:1007B0001D0520F08E2D03C085E001C080E0498337
:1007C0000E945302F394F6E0CF0ED11C4981F4123B
:1007D000E8CF0F90DF91CF911F910F91FF90EF9095
:1007E000DF90CF9008950E943E0240E060E08CE8E8
:1007F00090E00E94D402C4EFD1E008EC10E0EE24B7
:10080000E394F12C80912F0190913001892B31F4E8
:10081000D0933001C0932F010E94CC018091100130
:1008200090911101892B31F4109311010093100163
:100830000E94ED0180910C0190910D01892B61F0D6
:1008400080910E0190910F01892B31F4F0920F01EC
:10085000E0920E010E94180180910E0190910F010B
:10086000892B81F280910A0190910B01892B51F221
:1008700010920D0110920C0110920F0110920E01B6
:1008800010920B0110920A016091240170912501D0
:10089000809126019091270126EC3BE948ED55E433
:1008A0000E945D04AB01BC014093280150932901D3
:1008B00060932A0170932B01A5CF0CD0BAC0B2D09F
:1008C00040F0A9D030F021F45F3F19F09BC05111E6
:1008D000E4C09EC0BFD098F39923C9F35523B1F368
:1008E000951B550BBB27AA2762177307840738F09F
:1008F0009F5F5F4F220F331F441FAA1FA9F333D0FE
:100900000E2E3AF0E0E830D091505040E695001CB1
:10091000CAF729D0FE2F27D0660F771F881FBB1F6D
:10092000261737074807AB07B0E809F0BB0B802D47
:10093000BF01FF2793585F4F2AF09E3F510568F093
:1009400061C0ABC05F3FECF3983EDCF386957795D2
:100950006795B795F7959F5FC9F7880F911D969595
:10096000879597F90895E1E0660F771F881FBB1FF1
:10097000621773078407BA0720F0621B730B840B9E
:10098000BA0BEE1F88F7E0950895E89409C097FB2D
:100990003EF490958095709561957F4F8F4F9F4F56
:1009A0009923A9F0F92F96E9BB279395F69587959A
:1009B00077956795B795F111F8CFFAF4BB0F11F45D
:1009C00060FF1BC06F5F7F4F8F4F9F4F16C0882304
:1009D00011F096E911C0772321F09EE8872F762F3A
:1009E00005C0662371F096E8862F70E060E02AF07B
:1009F0009A95660F771F881FDAF7880F9695879567
:100A000097F9089597F99F6780E870E060E008958E
:100A10009FEF80EC089500240A9416161706180616
:100A20000906089500240A941216130614060506F2
:100A30000895092E0394000C11F4882352F0BB0F83
:100A400040F4BF2B11F460FF04C06F5F7F4F8F4FE6
:100A50009F4F089557FD9058440F551F59F05F3F21
:100A600071F04795880F97FB991F61F09F3F79F0D0
:100A700087950895121613061406551FF2CF469552
:100A8000F1DF08C0161617061806991FF1CF8695D4
:100A90007105610508940895E894BB2766277727B8
:100AA000CB0197F908950BD0C4CFB5DF28F0BADF9A
:100AB00018F0952309F0A6CFABCF1124EECFCADFF3
:100AC000A0F3959FD1F3950F50E0551F629FF00161
:100AD000729FBB27F00DB11D639FAA27F00DB11DBA
:100AE000AA1F649F6627B00DA11D661F829F222743
:100AF000B00DA11D621F739FB00DA11D621F839FCA
:100B0000A00D611D221F749F3327A00D611D231F9F
:100B1000849F600D211D822F762F6A2F11249F57ED
:100B200050408AF0E1F088234AF0EE0FFF1FBB1F10
:100B3000661F771F881F91505040A9F79E3F5105AF
:100B400070F060CFAACF5F3FECF3983EDCF3869560
:100B500077956795B795F795E7959F5FC1F7FE2B5A
:100B6000880F911D9695879597F908952F923F923A
:100B70004F925F926F927F928F929F92AF92BF92AD
:100B8000CF92DF92EF92FF920F931F93CF93DF9359
:100B9000CDB7DEB762970FB6F894DEBF0FBECDBFFC
:100BA0007C011B016A01FC0117821682838181FD91
:100BB00003C06BC3650105C088248394912C8C0EFF
:100BC0009D1EF7019381F10193FD859193FF819122
:100BD0001F01882309F455C3853239F493FD8591AB
:100BE00093FF81911F01853231F4B70190E00E949B
:100BF000770A5601DFCF712C612C20E02032A8F457
:100C00008B3261F028F4803251F0833271F40BC0E2
:100C10008D3239F0803349F4216028C0226024608D
:100C200025C0286023C0206121C027FD27C0382FA0
:100C300030533A3078F426FF06C0FAE07F9E300D3C
:100C40001124732E13C04AE0649E300D1124632ECC
:100C500020620CC08E3221F426FD13C3206406C02E
:100C60008C3611F4206802C0883641F4F10193FDFE
:100C7000859193FF81911F018111C0CF982F9554C9
:100C8000933018F42061805E06C0982F95569330FB
:100C900008F0A4C12F7E26FD02C016E0712EBFE32E
:100CA0005B2E5222853619F4F0E45F2A07C086369F
:100CB00019F440E8542A02C071107A9457FE07C014
:100CC0005BE3571548F0472C439427E00DC087E0BD
:100CD000871530F0272D07C027E0ACE34A2E04C06B
:100CE00027E0F7E07F2E412C560194E0A90EB11CBD
:100CF000F6016081718182819381042DA4010E949B
:100D000089098C0149814C8740FF02C043FF07C01D
:100D100051FC08C052FE09C0E0E2DE2E07C07DE2B1
:100D2000D72E04C06BE2D62E01C0D12C8C858C70DE
:100D3000A1F1DD2011F084E001C083E0861510F000
:100D4000612C0BC0681A53FC08C0B70180E290E028
:100D50000E94770A6A94C9F7F3CFDD2029F0B70122
:100D60008D2D90E00E94770A5C8553FD03C00FEE45
:100D700010E00CC00BEE10E009C051108052B7011A
:100D800090E00E94770A0F5F1F4F02C080E1582257
:100D9000F80184918111F1CF71C257FE0EC0400E4F
:100DA0004C8544FF04C08A81813309F44A941414A9
:100DB0004CF558E0541548F12CC056FC2AC0872D3C
:100DC00090E08017910744F00C3F8FEF180724F054
:100DD00090E8592A01C07A94772049F0E2E0F0E0E7
:100DE000EC0FFD1FE70DF11D80818033A1F357FE4D
:100DF00010C0472C4394872D90E00817190744F43E
:100E0000701A07C04424439404C058E0452E01C022
:100E1000712C57FE07C0101611063CF498012F5F85
:100E20003F4F05C025E030E002C021E030E0DD208A
:100E300011F02F5F3F4F772031F0472D50E04F5F8B
:100E40005F4F240F351F462D50E02417350714F44B
:100E5000621A01C0612C852D897049F406C0B70162
:100E600080E290E00E94770A6A946110F8CFDD205A
:100E700029F0B7018D2D90E00E94770A53FC09C03C
:100E800006C0B70180E390E00E94770A6A9461107F
:100E9000F8CF57FE56C0680117FF02C0C12CD12CF5
:100EA00020E030E0A801441951095E874D872801F0
:100EB0004C185D08480C591C872D90E04427552795
:100EC000481B590B588B4F875FEFC516D50649F461
:100ED000B7018EE290E02A8B398B0E94770A39891C
:100EE0002A890C151D0554F04D855E854C155D0550
:100EF0002CF4F201E20FF31F818101C080E351E085
:100F0000C51AD1082F5F3F4F4F855889C416D506A3
:100F10004CF0B70190E02A8B398B0E94770A2A891E
:100F20003989D2CFC016D10649F49A81963328F474
:100F3000953321F45C8554FD01C081E3B70190E055
:100F40004AC08A81813319F04C854F7E4C87B701A6
:100F500090E00E94770A711005C054FE16C085E427
:100F600090E015C0B7018EE290E00E94770A42E05F
:100F7000D42EF401ED0DF11DD394B701808190E0E2
:100F80000E94770A7A94A9F7E8CF85E690E0B70146
:100F90000E94770A17FD06C00115110541F45C8512
:100FA00054FF05C01195019511098DE201C08BE236
:100FB000B70190E00E94770A80E303C08F5F0A5078
:100FC00011090A301105D4F7B70190E00E94770AA1
:100FD000B701C801C0960E94770A50C1833631F02C
:100FE000833781F0833509F05EC024C0560182E06A
:100FF000A80EB11CF60180818983CC24C394D12C26
:10100000840114C05601F2E0AF0EB11CF60100815C
:10101000118126FF03C0672D70E002C06FEF7FEFE4
:10102000C8012A8B0E946C0A6C012A899FE7592EFD
:10103000522217C05601F2E0AF0EB11CF60100813A
:10104000118126FF03C0672D70E002C06FEF7FEFB4
:10105000C8012A8B0E94610A6C012A8980E8582EF7
:10106000522A53FC1CC006C0B70180E290E00E94E7
:10107000770A6A94862D90E0C816D906A8F30FC0A7
:10108000F80157FC859157FE81918F01B70190E0DF
:101090000E94770A61106A94F1E0CF1AD108C11456
:1010A000D10471F7EBC0843611F0893651F5560141
:1010B00027FF09C044E0A40EB11CF60160817181D4
:1010C000828193810AC0F2E0AF0EB11CF60160810B
:1010D0007181882777FD8095982F122F1F7697FFB3
:1010E00008C090958095709561957F4F8F4F9F4F69
:1010F00010682AE030E0A4010E94D20AD82ED81845
:1011000040C0122F853721F41F7E2AE030E01FC037
:10111000197F8F36A1F020F4883509F0B2C00BC0DA
:10112000803721F0883709F0ACC001C0106114FF8E
:1011300009C0146007C024FF08C0166006C028E07C
:1011400030E005C020E130E002C020E132E056018D
:1011500017FF09C0F4E0AF0EB11CF6016081718188
:101160008281938108C0F2E0AF0EB11CF60160816C
:10117000718180E090E0A4010E94D20AD82ED81894
:101180001F7716FF0BC0212F2E7FD71450F414FFAA
:101190000AC012FD08C0212F2E7E05C00D2D212F63
:1011A00003C00D2D01C0072D24FF0CC0FE01ED0D65
:1011B000F11D8081803311F4297E08C022FF05C013
:1011C0000E5F04C0822F867809F00F5F23FD14C0E4
:1011D00020FF0FC07D2C061560F4760C701A062DCA
:1011E00008C0B70180E290E02A8B0E94770A0F5F67
:1011F0002A890615B0F304C0061510F4601A01C060
:10120000612C24FF12C0B70180E390E02A8B0E947A
:10121000770A2A8922FF1EC021FF03C088E590E0DB
:1012200002C088E790E0B7010CC0822F867891F069
:1012300021FD02C080E201C08BE227FD8DE2B701F3
:1012400090E00E94770A06C0B70180E390E00E9418
:10125000770A7A94D714C0F3DA94F401ED0DF11DF6
:10126000B701808190E00E94770AD110F5CF06C0C7
:10127000B70180E290E00E94770A6A946110F8CF8B
:1012800099CCF7012681378102C02FEF3FEFC901CA
:1012900062960FB6F894DEBF0FBECDBFDF91CF913F
:1012A0001F910F91FF90EF90DF90CF90BF90AF9084
:1012B0009F908F907F906F905F904F903F902F9076
:1012C0000895AA1BBB1B51E107C0AA1FBB1FA6178D
:1012D000B70710F0A61BB70B881F991F5A95A9F7DF
:1012E00080959095BC01CD01089597FB072E16F4CB
:1012F000009407D077FD09D00E94610907FC05D052
:101300003EF4909581959F4F0895709561957F4F1C
:101310000895283008F027E03327DA01990F311DAE
:1013200087FD916000966105710539F432602E5F8A
:101330003D9330E32A95E1F708959F3F30F08038E0
:101340007105610509F03C5F3C5F3D93913008F009
:101350008068911DDF93CF931F930F93FF92EF92BD
:10136000192F987F9695E92F96959695E90FFF2767
:10137000E35BFE4F99273327EE24FF24A701E70103
:1013800005900894079428F4360FE71EF81E491FAD
:10139000511D660F771F881F991F0694A1F70590AE
:1013A000079428F4E70EF81E491F561FC11D770F3A
:1013B000881F991F661F0694A1F70590079428F4CB
:1013C000F80E491F561FC71FD11D880F991F661F92
:1013D000771F0694A1F70590079420F4490F561F34
:1013E000C71FD81F990F661F771F881F0694A9F77C
:1013F00084911095177041F0D695C79557954795EC
:10140000F794E7941A95C1F7E3EFF0E0689415902C
:10141000159135916591959105907FE27395E1184D
:10142000F10A430B560BC90BD009C0F7E10CF11EB2
:10143000431F561FC91FD01D7EF4703311F48A95C7
:10144000E6CFE894015030F0080F0AF400270217A5
:1014500008F4202F2395022F7A3328F079E37D9327
:101460002A95E9F710C07D932A9589F606949795F9
:101470006795379517951794E118F10A430B560BAA
:10148000C90BD00998F023957E9173957A3308F0B3
:1014900070E37C932013B8F77E9170617D9330F0F8
:1014A000839571E37D9370E32A95E1F71124EF9022
:1014B000FF900F911F91CF91DF91992787FD909514
:1014C0000895FC010590615070400110D8F7809597
:1014D00090958E0F9F1F0895FC0161507040019000
:1014E0000110D8F7809590958E0F9F1F08950F9348
:1014F0001F93CF93DF938C01EB018B8181FD03C0A0
:101500000FEF1FEF1AC082FF0DC02E813F818C812B
:101510009D812817390764F4E881F9810193F983E3
:10152000E88306C0E885F985802F0995892B41F766
:101530008E819F8101969F838E83C801DF91CF9119
:101540001F910F9108950F931F93CF93DF93CDB702
:10155000DEB72E970FB6F894DEBF0FBECDBF0D8954
:101560001E8986E08C831A8309838FEF9FE79E8311
:101570008D83CE014996AC016F89788DCE0101969D
:101580000E94B605EF81F885E00FF11F10822E96BC
:101590000FB6F894DEBF0FBECDBFDF91CF911F9184
:1015A0000F910895FA01AA27283051F1203181F1D5
:1015B000E8946F936E7F6E5F7F4F8F4F9F4FAF4F5B
:1015C000B1E03ED0B4E03CD0670F781F891F9A1F6E
:1015D000A11D680F791F8A1F911DA11D6A0F711D22
:1015E000811D911DA11D20D009F468943F912AE02E
:1015F000269F11243019305D3193DEF6CF01089516
:10160000462F4770405D4193B3E00FD0C9F7F6CF46
:10161000462F4F70405D4A3318F0495D31FD40520E
:10162000419302D0A9F7EACFB4E0A69597958795A4
:1016300077956795BA95C9F7009761057105089583
:101640009B01AC010A2E069457954795379527952F
:10165000BA95C9F7620F731F841F951FA01D0895C7
:04166000F894FFCF2C
:0A1664001872313F252D2E35660067
:00000001FF
