:100000000C9446000C9465000C9465000C946500FB
:100010000C9465000C9465000C9465000C946500CC
:100020000C9465000C9465000C9465000C946500BC
:100030000C9465000C9465000C9465000C946500AC
:100040000C9467000C9465000C94C6020C94650037
:100050000C9465000C9465000C9465000C9465008C
:100060000C9465000C9465000C9465000C9465007C
:100070000C9465000C9465000C9465000C9465006C
:100080000C9465000C9465000C94650011241FBE4F
:10009000CFEFD0E4DEBFCDBF13E0A0E0B1E0EAEEE9
:1000A000FEE000E00BBF02C007900D92A63AB10738
:1000B000D9F724E0A6EAB3E001C01D92AF33B2073E
:1000C000E1F70E9470040C9473070C9400001F92D7
:1000D0000F920FB60F9211248F939F938091140467
:1000E00090911504892B49F0809114049091150486
:1000F000019790931504809314049F918F910F9012
:100100000FBE0F901F9018950F931F93CF93DF93FF
:1001100084E190E090931504809314048FE081B9FA
:1001200090EF92B92AE12A95F1F700C020B120930F
:10013000160491B982B98AE18A95F1F700C090B1AD
:1001400080911604982B909316049F3FA9F080E0AD
:100150000AC0282F2F5FE82FF0E0E25CFE4F3081CD
:10016000391731F0822F8C30A0F38C3009F404C0A1
:100170008F5F8093100402C01092100480911904C4
:10018000823091F020F4813009F077C006C08330CE
:10019000D1F0843009F071C063C0809110048823CD
:1001A00009F46BC082E061C080911004882349F09B
:1001B00083E08093190481E08093110418995DC055
:1001C0005AC081E052C080911004882309F446C0CF
:1001D000189953C0843021F138F4823099F0C8F472
:1001E000813009F04AC007C0863041F100F1873004
:1001F00009F043C02AC044E650E060E070E089EBBB
:1002000092E029C044E650E060E070E082E093E0D4
:1002100022C044E650E060E070E084E593E01BC05B
:1002200044E650E060E070E08DEA93E014C044E6FC
:1002300050E060E070E089EB94E00DC044E650E0EF
:1002400060E070E088E395E006C044E650E060E0DE
:1002500070E085EC95E00E943E040FC084E005C08C
:1002600080911004882321F083E08093190405C055
:1002700081E0809319041092110480911104882365
:1002800009F471C010921104209110042A3089F4ED
:10029000E6EAF3E01192119223E0EE3BF207D1F788
:1002A0001092180410921704C6EAD3E00BE813E08A
:1002B00035C02C30F9F4C6EAD3E006E813E08991A2
:1002C0009991009791F09F938F931F930F93809133
:1002D0003C048F9380913B048F930E9493040F9072
:1002E0000F900F900F900F900F9083E0CE3BD807A8
:1002F00031F7DACF80911704909118048C30910572
:1003000098F6FC01EE0FFF1FEA55FC4F2083118287
:1003100001969093180480931704C6CF8881998121
:1003200022969F938F931F930F9380913C048F93FA
:1003300080913B048F930E9493040F900F900F9035
:100340000F900F900F9023E0CE3BD20739F76091CA
:100350003B0470913C048AE993E0DF91CF911F91B7
:100360000F910C94A304DF91CF911F910F910895E9
:1003700089EF87BD82E080936E0093E095BD84BDD8
:1003800084E190E0909315048093140414B81092C3
:10039000110481E08093190410921804109217043C
:1003A0000E9427047894089587E68093C40088E12A
:1003B0008093C1000895CF93C82F873049F460918E
:1003C0003D0470913E048DE993E00E94A3040BC0AC
:1003D0008A3019F48DE00E94DB018091C00085FF16
:1003E000FCCFC093C60080E090E0CF910895EF92DB
:1003F000FF920F931F93CF93DF938C018091BE03E5
:100400009091BF03892B09F0A1C0C0ECD3E080918B
:10041000C00087FFFCCF8091C00084FDAAC08091FE
:10042000C00083FDA9C08091C6008D3061F48AE0D0
:100430008883B8010E94DB0180EC93E09093BF03B6
:100440008093BE0383C08A3091F3893009F480E23F
:10045000982F90529F3510F0803A90F094E0CF3072
:10046000D90749F460913D0470913E048DE993E011
:100470000E94A304CCCF8993B8010E94DB01C7CFAF
:10048000823129F138F4833009F476C0883009F0DC
:10049000BECF09C0873109F44DC08F3721F08531B7
:1004A00009F0B5CF34C0E3E0C03CDE0709F008F442
:1004B000AECFB80188E00E94DB01B80180E20E9463
:1004C000DB01B80188E00E94DB012197A0CFB801D1
:1004D0008DE00E94DB0180ECE82E83E0F82E06C060
:1004E000B801F70181917F010E94DB01EC16FD0646
:1004F000B8F38DCFB80188E00E94DB01B80180E23B
:100500000E94DB01B80188E00E94DB012197F3E043
:10051000C03CDF0709F070F77ACFB80188E00E948D
:10052000DB01B80180E20E94DB01B80188E00E9493
:10053000DB01E70183E0C03CD80709F008F467CF8E
:10054000FE0182917F01803241F761CFE091BE03CD
:10055000F091BF0320812A3031F03196F093BF0330
:10056000E093BE0304C01092BF031092BE0330E0BC
:1005700005C02EEF3FEF02C02FEF3FEFC901DF9123
:10058000CF911F910F91FF90EF9008951F920F92BE
:100590000FB60F9211240BB60F922F933F934F93E8
:1005A0005F936F937F938F939F93AF93BF93CF93FB
:1005B000DF93EF93FF938091200490912104A09109
:1005C0002204B091230440911B0450911C046091BB
:1005D0001D0470911E04840F951FA61FB71F8093E2
:1005E000200490932104A0932204B09323048091CB
:1005F000280490912904A0912A04B0912B044091E1
:100600003004509131046091320470913304840FAE
:10061000951FA61FB71F8093280490932904A093C9
:100620002A04B0932B048091200490912104A0917E
:100630002204B09123048B2F9927AA27BB278093EC
:100640002C048091280490912904A0912A04B0914F
:100650002B048B2F9927AA27BB2780933404C091A2
:100660003404E0912C048091240490912504A091FD
:100670002604B0912704D0E0CA57DD4F4881F0E04E
:10068000EA57FD4F2081332727FD3095240F311D78
:1006900047FD3A95FC01E25BFE4F4081429FC0015D
:1006A000439F900D1124880F892F881F990B805824
:1006B00087BD8091350490913604A0913704B091A4
:1006C00038040196A11DB11D809335049093360422
:1006D000A0933704B0933804809135049091360488
:1006E000A0913704B091380489339140A105B10538
:1006F00098F48091240490912504A0912604B0914F
:1007000027040196A11DB11D809324049093250414
:10071000A0932604B0932704809135049091360469
:10072000A0913704B091380489339140A105B105F7
:10073000C8F48091350490913604A0913704B091AB
:1007400038048C3E924FA105B10560F487E391E037
:10075000A0E0B0E08093240490932504A0932604A5
:10076000B09327048091350490913604A09137040A
:10077000B09138048C3E924FA105B10500F18091F3
:10078000350490913604A0913704B09138048C3E22
:10079000924FA105B10598F480912404909125040D
:1007A000A0912604B09127040197A109B109809373
:1007B000240490932504A0932604B09327048091E9
:1007C000350490913604A0913704B09138048532F5
:1007D000944FA105B10540F0109224041092250415
:1007E000109226041092270480912F048150809348
:1007F0002F0480912F04811115C08EE380932F0464
:1008000080912D0490912E04019690932E04809354
:100810002D04809114049091150401969093150471
:1008200080931404FF91EF91DF91CF91BF91AF912D
:100830009F918F917F916F915F914F913F912F91F8
:100840000F900BBE0F900FBE0F901F90189514B80D
:10085000239A10922E0410922D0415BC85B5816048
:1008600085BDEEE6F0E0108280818160808314BC5B
:1008700084B5836C84BD17BC789408950895109254
:1008800035041092360410923704109238041092F6
:10089000240410922504109226041092270410922A
:1008A00030041092310410923204109233041092EA
:1008B0001B0410921C0410921D0410921E0410922E
:1008C00028041092290410922A0410922B041092EA
:1008D00020041092210410922204109223040895FF
:1008E0008FEF84B985B90E94D40180E091E09093A4
:1008F0003E0480933D0490933A048093390490938E
:100900003C0480933B04BC018FE893E00E94A30465
:100910000E94B8018091140490911504892BD1F79D
:100920000E948400F7CFCF93DF93CDB7DEB7CE011F
:100930000996AC016F8178858D819E810E94CE04DD
:10094000DF91CF910895EF92FF920F931F93CF9372
:10095000DF937C018B01DB0113968C9181FF14C026
:10096000C0E0D0E00BC0D8011896ED91FC9119972A
:10097000B8010995892B11F0CFEFDFEFF7018191D5
:100980007F018111F0CF02C0CFEFDFEFCE01DF9109
:10099000CF911F910F91FF90EF9008952F923F926A
:1009A0004F925F926F927F928F929F92AF92BF927F
:1009B000CF92DF92EF92FF920F931F93CF93DF932B
:1009C000CDB7DEB72C970FB6F894DEBF0FBECDBF04
:1009D0007C016B018A01FC0117821682838181FFF1
:1009E000C6C188248394912C8C0E9D1EF70193819F
:1009F000F60193FD859193FF81916F01882309F49E
:100A0000B2C1853239F493FD859193FF81916F01D5
:100A1000853229F4B70190E00E94E906E7CF512C16
:100A2000312C20E02032A8F48B3261F028F480329F
:100A300051F0833271F40BC08D3239F0803349F4B8
:100A4000216028C02260246025C0286023C0206166
:100A500021C027FD27C0382F30533A3078F426FFC5
:100A600006C0FAE05F9E300D1124532E13C08AE0B9
:100A7000389E300D1124332E20620CC08E3221F4AA
:100A800026FD71C1206406C08C3611F4206802C0B6
:100A9000883641F4F60193FD859193FF81916F01B2
:100AA0008111C0CF982F9554933018F09052933005
:100AB00028F40C5F1F4FFFE3F9830DC0833631F03C
:100AC000833771F0833509F05EC023C0F80180815F
:100AD00089830E5F1F4F44244394512C540115C049
:100AE0003801F2E06F0E711CF801A080B18026FF82
:100AF00003C0652D70E002C06FEF7FEFC5012C874A
:100B00000E94DE062C0183012C856FE7262E22220F
:100B100018C03801F2E06F0E711CF801A080B1809E
:100B200026FF03C0652D70E002C06FEF7FEFC501A7
:100B30002C870E94D3062C012C8550E8252E222AD2
:100B4000830123FC1CC006C0B70180E290E00E9434
:100B5000E9063A94832D90E048165906A8F30FC091
:100B6000F50127FC859127FE81915F01B70190E097
:100B70000E94E90631103A94F1E04F1A51084114ED
:100B8000510471F7EDC0843611F0893641F5F80152
:100B900027FF07C060817181828193810C5F1F4FA5
:100BA00008C060817181882777FD8095982F0E5F3E
:100BB0001F4F4FE6B42EB22297FF09C09095809543
:100BC000709561957F4F8F4F9F4FF0E8BF2A2AE0C5
:100BD00030E0A4010E941507A82EA81843C085374D
:100BE00031F43FEEB32EB2222AE030E024C099EF78
:100BF000B92EB2228F36B9F020F4883509F0B3C08F
:100C00000DC0803721F0883709F0ADC002C020E167
:100C1000B22AB4FE0BC084E0B82A08C024FF09C081
:100C2000E6E0BE2A06C028E030E005C020E130E062
:100C300002C020E132E0F801B7FE07C06081718197
:100C4000828193810C5F1F4F06C06081718180E0BB
:100C500090E00E5F1F4FA4010E941507A82EA81850
:100C6000FFE7BF22B6FE0BC02B2D2E7FA51450F43C
:100C7000B4FE0AC0B2FC08C02B2D2E7E05C07A2C13
:100C80002B2D03C07A2C01C0752C24FF0DC0FE0152
:100C9000EA0DF11D8081803311F4297E09C022FF05
:100CA00006C07394739404C0822F867809F07394FD
:100CB00023FD14C020FF0FC05A2C731460F4530C92
:100CC0005718732C08C0B70180E290E02C870E946F
:100CD000E90673942C857314B0F304C0731410F4F4
:100CE000371801C0312C24FF12C0B70180E390E017
:100CF0002C870E94E9062C8522FF1EC021FF03C01D
:100D000088E590E002C088E790E0B7010CC0822F30
:100D1000867891F021FD02C080E201C08BE227FDC0
:100D20008DE2B70190E00E94E90606C0B70180E3BA
:100D300090E00E94E9065A94A514C0F3AA94F40125
:100D4000EA0DF11DB701808190E00E94E906A11033
:100D5000F5CF06C0B70180E290E00E94E9063A9420
:100D60003110F8CF43CEF7012681378102C02FEF33
:100D70003FEFC9012C960FB6F894DEBF0FBECDBF72
:100D8000DF91CF911F910F91FF90EF90DF90CF9067
:100D9000BF90AF909F908F907F906F905F904F909B
:100DA0003F902F900895FC01059061507040011014
:100DB000D8F7809590958E0F9F1F0895FC01615084
:100DC000704001900110D8F7809590958E0F9F1F6D
:100DD00008950F931F93CF93DF938C01EB018B81C9
:100DE00081FD03C00FEF1FEF1AC082FF0DC02E81DF
:100DF0003F818C819D812817390764F4E881F9814E
:100E00000193F983E88306C0E885F985802F099569
:100E1000892B41F78E819F8101969F838E83C80124
:100E2000DF91CF911F910F910895FA01AA272830E1
:100E300051F1203181F1E8946F936E7F6E5F7F4FA7
:100E40008F4F9F4FAF4FB1E03ED0B4E03CD0670F23
:100E5000781F891F9A1FA11D680F791F8A1F911D76
:100E6000A11D6A0F711D811D911DA11D20D009F4C6
:100E700068943F912AE0269F11243019305D319308
:100E8000DEF6CF010895462F4770405D4193B3E0F1
:100E90000FD0C9F7F6CF462F4F70405D4A3318F098
:100EA000495D31FD4052419302D0A9F7EACFB4E049
:100EB000A6959795879577956795BA95C9F7009701
:100EC0006105710508959B01AC010A2E06945795A2
:100ED000479537952795BA95C9F7620F731F841FF9
:0A0EE000951FA01D0895F894FFCFA0
:100EEA000000000300000000DB01F7010000B90266
:100EFA00B902B9020203020302035403540354035E
:100F0A00AD03AD03AD03B9043805C505B904380509
:100F1A00C505B9043805C505B9043805C505777B83
:100F2A007DB7BBBDD7DBDDE7EBEDFFFFFFFF0000C1
:100F3A000001010202020303040404050506060671
:100F4A00070708080809090A0A0B0B0B0C0C0D0DF8
:100F5A000D0E0E0F0F0F1010111111121213131480
:100F6A0014141515161616171718181819191A1A07
:100F7A001A1B1B1C1C1C1D1D1E1E1F1F1F2020218F
:100F8A002121222223232324242525252626272717
:100F9A0028282829292A2A2A2B2B2C2C2C2D2D2E9D
:100FAA002E2E2F2F30303131313232333333343425
:100FBA00353535363637373738383939393A3A3BAD
:100FCA003B3C3C3C3D3D3E3E3E3F3F404040414134
:100FDA0042424243434444454545464647474748BB
:100FEA00484949494A4A4B4B4B4C4C4D4D4D4E4E44
:100FFA004F4F5050505151525252535354545455CA
:10100A0055565656575758585959595A5A5B5B5B51
:10101A005C5C5D5D5D5E5E5F5F5F606061616262D8
:10102A006263636464646565666666676768686860
:10103A0069696A6A6A6B6B6C6C6D6D6D6E6E6F6FE7
:10104A006F7070717171727273737374747575766F
:10105A007676777778787879797A7A7A7B7B7C7CF6
:10106A007C7D7D7E7E7F000306090C0F1215181BFE
:10107A001E2124272A2D303336393B3E4143464927
:10108A004B4E50525557595B5E6062646667696B96
:10109A006C6E7071727475767778797A7B7B7C7DE9
:1010AA007D7E7E7E7E7E7E7E7E7E7E7E7D7D7C7B5E
:1010BA007B7A7978777675747271706E6C6B696702
:1010CA00666462605E5B59575552504E4B494643BF
:1010DA00413E3B393633302D2A2724211E1B181551
:1010EA00120F0C09060300FDFAF7F4F1EEEBE8E53E
:1010FA00E2DFDCD9D6D3D0CDCAC7C5C2BFBDBAB725
:10110A00B5B2B0AEABA9A7A5A2A09E9C9B99979594
:10111A009492918F8E8C8B8A898887868585848321
:10112A00838282828282828282828282838384858D
:10113A0085868788898A8B8C8E8F909294959799C9
:10114A009A9C9EA0A2A5A7A9ABAEB0B2B5B7BABDEC
:10115A00BFC2C5C7CACDD0D3D6D9DCDFE2E5E8EB3A
:10116A00EEF1F4F7FAFD25750A0D00256420005307
:10117A0074617274696E672E2E2E0A0D002A7269C6
:06118A006E672A0A000056
:00000001FF
