:100000000C9446000C9465000C9465000C946500FB
:100010000C9465000C9465000C9465000C946500CC
:100020000C9465000C9465000C9465000C946500BC
:100030000C9465000C9465000C9465000C946500AC
:100040000C9465000C9465000C94BB020C94650044
:100050000C9465000C9465000C9465000C9465008C
:100060000C9465000C9465000C9465000C9465007C
:100070000C9465000C9465000C9465000C9465006C
:100080000C9465000C9465000C94650011241FBE4F
:10009000CFEFD0E4DEBFCDBF13E0A0E0B1E0E2ECF3
:1000A000FFE000E00BBF02C007900D92A03AB1073D
:1000B000D9F724E0A0EAB3E001C01D92A933B2074A
:1000C000E1F70E94CA040C94DF070C9400000F9320
:1000D0001F93CF93DF9310920F0410920E048FE0C2
:1000E00081B990EF92B92AE12A95F1F700C020B1C9
:1000F0002093120491B982B98AE18A95F1F700C080
:1001000090B180911204982B909312049F3FA9F014
:1001100080E00AC0282F2F5FE82FF0E0E25CFE4F5E
:100120003081391731F0822F8C30A0F38C3009F4F4
:1001300004C08F5F80930A0402C010920A04809169
:100140001504823091F020F4813009F077C006C0A8
:100150008330D1F0843009F071C063C080910A040B
:10016000882309F46BC082E061C080910A0488236F
:1001700049F083E08093150481E080930B04189983
:100180005DC05AC081E052C080910A04882309F4FE
:1001900046C0189953C0843021F138F4823099F068
:1001A000C8F4813009F04AC007C0863041F100F13F
:1001B000873009F043C02AC044E650E060E070E0B8
:1001C00089EB92E029C044E650E060E070E082E014
:1001D00093E022C044E650E060E070E084E593E004
:1001E0001BC044E650E060E070E08DEA93E014C08C
:1001F00044E650E060E070E089EB94E00DC044E636
:1002000050E060E070E088E395E006C044E650E02E
:1002100060E070E085EC95E00E9433040FC084E05C
:1002200005C080910A04882321F083E0809315049F
:1002300005C081E08093150410920B0480910B049B
:10024000882309F487C010920B0480910A048A3035
:1002500089F4E0EAF3E01192119223E0E83BF2071F
:10026000D1F71092140410921304C0EAD3E006E808
:1002700013E04BC08C3019F5C0EAD3E08991999115
:100280000097C1F0880F991FFC01E25FFE4F60816B
:100290007181FC01EA5DFE4F48EE53E0808191815F
:1002A0000E9433044EE150E060E070E080E090E0B6
:1002B0000E94330483E0C83BD80701F7D6CF2091D2
:1002C0001304309114042C30310578F6F901EE0F47
:1002D000FF1FE056FC4F808311822F5F3F4F30930A
:1002E00014042093130490E0880F991FFC01E25F2F
:1002F000FE4F60817181FC01EA5DFE4F48EE53E0E4
:10030000808191810E943304B0CF888199812296A7
:100310009F938F931F930F93809136048F938091B7
:1003200035048F930E94FF040F900F900F900F9051
:100330000F900F9023E0C83BD20739F76091350446
:100340007091360485E993E0DF91CF911F910F9171
:100350000C940F05DF91CF911F910F91089589EFB4
:1003600087BD82E080936E0093E095BD84BD1092BE
:100370000F0410920E0414B810920B0481E08093C5
:10038000150410921404109213040E941C04789413
:10039000089587E68093C40088E18093C1000895A2
:1003A000CF93C82F873049F4609137047091380497
:1003B00088E993E00E940F050BC08A3019F48DE0A4
:1003C0000E94D0018091C00085FFFCCFC093C60081
:1003D00080E090E0CF910895EF92FF920F931F93EA
:1003E000CF93DF938C018091B8039091B903892B4F
:1003F00009F0A1C0CAEBD3E08091C00087FFFCCF19
:100400008091C00084FDAAC08091C00083FDA9C076
:100410008091C6008D3061F48AE08883B8010E9423
:10042000D0018AEB93E09093B9038093B80383C023
:100430008A3091F3893009F480E2982F90529F35E9
:1004400010F0803A90F094E0C930D90749F46091F7
:1004500037047091380488E993E00E940F05CCCFEF
:100460008993B8010E94D001C7CF823129F138F4B5
:10047000833009F476C0883009F0BECF09C08731D7
:1004800009F44DC08F3721F0853109F0B5CF34C064
:10049000E3E0CA3BDE0709F008F4AECFB80188E01C
:1004A0000E94D001B80180E20E94D001B80188E02A
:1004B0000E94D0012197A0CFB8018DE00E94D00109
:1004C0008AEBE82E83E0F82E06C0B801F70181918F
:1004D0007F010E94D001EC16FD06B8F38DCFB80164
:1004E00088E00E94D001B80180E20E94D001B801EA
:1004F00088E00E94D0012197F3E0CA3BDF0709F0B2
:1005000070F77ACFB80188E00E94D001B80180E28C
:100510000E94D001B80188E00E94D001E70183E089
:10052000CA3BD80709F008F467CFFE0182917F012A
:10053000803241F761CFE091B803F091B903208197
:100540002A3031F03196F093B903E093B80304C038
:100550001092B9031092B80330E005C02EEF3FEFC0
:1005600002C02FEF3FEFC901DF91CF911F910F9193
:10057000FF90EF9008951F920F920FB60F921124E3
:100580000BB60F922F933F934F935F936F937F938D
:100590008F939F93AF93BF93CF93DF93EF93FF938B
:1005A00080911C0490911D04A0911E04B0911F0421
:1005B00040911704509118046091190470911A0425
:1005C000840F951FA61FB71F80931C0490931D04D2
:1005D000A0931E04B0931F048091240490912504DD
:1005E000A0912604B091270440912A0450912B0435
:1005F00060912C0470912D04840F951FA61FB71FC6
:100600008093240490932504A0932604B093270498
:1006100080911C0490911D04A0911E04B0911F04B0
:100620008B2F9927AA27BB27809328048091240425
:1006300090912504A0912604B09127048B2F99272F
:10064000AA27BB2780932E04C0912E04E091280492
:100650008091200490912104A0912204B091230460
:10066000D0E0CA57DD4F4881F0E0EA57FD4F2081C6
:10067000332727FD3095240F311D47FD3A95FC01A6
:10068000E25BFE4F4081429FC001439F900D1124C9
:10069000880F892F881F990B805887BD80912F0460
:1006A00090913004A0913104B09132040196A11DC3
:1006B000B11D80932F0490933004A0933104B09324
:1006C000320480912F0490913004A0913104B091B4
:1006D000320489339140A105B10598F4809120043A
:1006E00090912104A0912204B09123040196A11DB0
:1006F000B11D8093200490932104A0932204B09311
:10070000230480912F0490913004A0913104B09182
:10071000320489339140A105B105C8F480912F04BA
:1007200090913004A0913104B09132048C3E924FEC
:10073000A105B10560F487E391E0A0E0B0E080930B
:10074000200490932104A0932204B0932304809169
:100750002F0490913004A0913104B09132048C3E6A
:10076000924FA105B10500F180912F0490913004C2
:10077000A0913104B09132048C3E924FA105B10595
:1007800098F48091200490912104A0912204B091CA
:1007900023040197A109B1098093200490932104B7
:1007A000A0932204B093230480912F0490913004ED
:1007B000A0913104B09132048532944FA105B10566
:1007C00040F0109220041092210410922204109202
:1007D0002304809129048150809329048091290465
:1007E000811115C08EE380932904809110049091AB
:1007F00011040196909311048093100480910E04CB
:1008000090910F04019690930F0480930E04FF9132
:10081000EF91DF91CF91BF91AF919F918F917F9198
:100820006F915F914F913F912F910F900BBE0F9061
:100830000FBE0F901F90189514B8239A10921104B0
:100840001092100415BC85B5816085BDEEE6F0E020
:10085000108280818160808314BC84B5836C84BDE8
:1008600017BC78940895883325E0920761F0853CA1
:1008700025E09207A9F0893B9440B9F487E398EB0F
:10088000A3EFB4E004C088E493EEA8E7B5E080935A
:10089000170490931804A0931904B0931A040DC080
:1008A0008BE69CEBACE0B6E0F2CF1092170410920E
:1008B00018041092190410921A04623083E0780729
:1008C00091F024F4693B724029F508C0693323E0B4
:1008D0007207B1F06D3A7340E9F417C087E39AEDFF
:1008E000AAEDB2E004C08EED95E6A7E2B3E08093F6
:1008F0002A0490932B04A0932C04B0932D0412C0CF
:1009000087EB91E1A1E6B3E0F2CF83E891E5ABE8B4
:10091000B6E2EDCF10922A0410922B0410922C0410
:1009200010922D0450930D0440930C0480E887BD71
:10093000089510922F0410923004109231041092F6
:10094000320410922004109221041092220410927A
:10095000230410922A0410922B0410922C0410925B
:100960002D0410921704109218041092190410927A
:100970001A04109224041092250410922604109256
:10098000270410921C0410921D0410921E04109251
:100990001F0408958FEF84B985B90E94C90180E0D2
:1009A00091E09093380480933704909334048093BB
:1009B00033049093360480933504BC018AE893E0B5
:1009C0000E940F050E94AF0180910E0490910F04C8
:1009D000449710F00E946700209110043091110498
:1009E00080910C0490910D042817390768F3109238
:1009F00011041092100417BC0E949904E5CFCF9304
:100A0000DF93CDB7DEB7CE010996AC016F81788553
:100A10008D819E810E943A05DF91CF910895EF92DA
:100A2000FF920F931F93CF93DF937C018B01DB0128
:100A300013968C9181FF14C0C0E0D0E00BC0D801A8
:100A40001896ED91FC911997B8010995892B11F031
:100A5000CFEFDFEFF70181917F018111F0CF02C06D
:100A6000CFEFDFEFCE01DF91CF911F910F91FF907C
:100A7000EF9008952F923F924F925F926F927F92E4
:100A80008F929F92AF92BF92CF92DF92EF92FF929E
:100A90000F931F93CF93DF93CDB7DEB72C970FB68D
:100AA000F894DEBF0FBECDBF7C016B018A01FC0153
:100AB00017821682838181FFC6C188248394912C7A
:100AC0008C0E9D1EF7019381F60193FD859193FF96
:100AD00081916F01882309F4B2C1853239F493FD05
:100AE000859193FF81916F01853229F4B70190E0E0
:100AF0000E945507E7CF512C312C20E02032A8F47A
:100B00008B3261F028F4803251F0833271F40BC0E3
:100B10008D3239F0803349F4216028C0226024608E
:100B200025C0286023C0206121C027FD27C0382FA1
:100B300030533A3078F426FF06C0FAE05F9E300D5D
:100B40001124532E13C08AE0389E300D1124332E09
:100B500020620CC08E3221F426FD71C1206406C0D3
:100B60008C3611F4206802C0883641F4F60193FDFA
:100B7000859193FF81916F018111C0CF982F95547A
:100B8000933018F09052933028F40C5F1F4FFFE31E
:100B9000F9830DC0833631F0833771F0833509F066
:100BA0005EC023C0F801808189830E5F1F4F4424FB
:100BB0004394512C540115C03801F2E06F0E711CA2
:100BC000F801A080B18026FF03C0652D70E002C04F
:100BD0006FEF7FEFC5012C870E944A072C0183012C
:100BE0002C856FE7262E222218C03801F2E06F0E06
:100BF000711CF801A080B18026FF03C0652D70E054
:100C000002C06FEF7FEFC5012C870E943F072C01C8
:100C10002C8550E8252E222A830123FC1CC006C007
:100C2000B70180E290E00E9455073A94832D90E04E
:100C300048165906A8F30FC0F50127FC859127FE39
:100C400081915F01B70190E00E94550731103A94FD
:100C5000F1E04F1A51084114510471F7EDC0843688
:100C600011F0893641F5F80127FF07C060817181D5
:100C7000828193810C5F1F4F08C06081718188273A
:100C800077FD8095982F0E5F1F4F4FE6B42EB2224E
:100C900097FF09C090958095709561957F4F8F4F14
:100CA0009F4FF0E8BF2A2AE030E0A4010E948107AC
:100CB000A82EA81843C0853731F43FEEB32EB222D8
:100CC0002AE030E024C099EFB92EB2228F36B9F075
:100CD00020F4883509F0B3C00DC0803721F0883783
:100CE00009F0ADC002C020E1B22AB4FE0BC084E01E
:100CF000B82A08C024FF09C0E6E0BE2A06C028E0E2
:100D000030E005C020E130E002C020E132E0F8012F
:100D1000B7FE07C060817181828193810C5F1F4F94
:100D200006C06081718180E090E00E5F1F4FA401DA
:100D30000E948107A82EA818FFE7BF22B6FE0BC0AD
:100D40002B2D2E7FA51450F4B4FE0AC0B2FC08C0AF
:100D50002B2D2E7E05C07A2C2B2D03C07A2C01C0A2
:100D6000752C24FF0DC0FE01EA0DF11D808180333A
:100D700011F4297E09C022FF06C07394739404C045
:100D8000822F867809F0739423FD14C020FF0FC0D2
:100D90005A2C731460F4530C5718732C08C0B70105
:100DA00080E290E02C870E94550773942C85731481
:100DB000B0F304C0731410F4371801C0312C24FFB1
:100DC00012C0B70180E390E02C870E9455072C8564
:100DD00022FF1EC021FF03C088E590E002C088E723
:100DE00090E0B7010CC0822F867891F021FD02C0FF
:100DF00080E201C08BE227FD8DE2B70190E00E9406
:100E0000550706C0B70180E390E00E9455075A9449
:100E1000A514C0F3AA94F401EA0DF11DB701808175
:100E200090E00E945507A110F5CF06C0B70180E2FF
:100E300090E00E9455073A943110F8CF43CEF70165
:100E40002681378102C02FEF3FEFC9012C960FB6E4
:100E5000F894DEBF0FBECDBFDF91CF911F910F91F0
:100E6000FF90EF90DF90CF90BF90AF909F908F90CA
:100E70007F906F905F904F903F902F900895FC016E
:100E80000590615070400110D8F7809590958E0FB5
:100E90009F1F0895FC016150704001900110D8F728
:100EA000809590958E0F9F1F08950F931F93CF935A
:100EB000DF938C01EB018B8181FD03C00FEF1FEFEE
:100EC0001AC082FF0DC02E813F818C819D81281721
:100ED000390764F4E881F9810193F983E88306C056
:100EE000E885F985802F0995892B41F78E819F81AF
:100EF00001969F838E83C801DF91CF911F910F913F
:100F00000895FA01AA27283051F1203181F1E8949F
:100F10006F936E7F6E5F7F4F8F4F9F4FAF4FB1E0EC
:100F20003ED0B4E03CD0670F781F891F9A1FA11DE7
:100F3000680F791F8A1F911DA11D6A0F711D811DE8
:100F4000911DA11D20D009F468943F912AE0269FAD
:100F500011243019305D3193DEF6CF010895462F0C
:100F60004770405D4193B3E00FD0C9F7F6CF462FED
:100F70004F70405D4A3318F0495D31FD4052419356
:100F800002D0A9F7EACFB4E0A69597958795779513
:100F90006795BA95C9F700976105710508959B019A
:100FA000AC010A2E06945795479537952795BA9523
:100FB000C9F7620F731F841F951FA01D0895F89431
:020FC000FFCF61
:100FC2000000000300000000D001EC010000B902A3
:100FD200B902B90202030203020354035403540385
:100FE200AD03AD03AD03B9043805C505B904380531
:100FF200C505B9043805C505B9043805C505777BAB
:101002007DB7BBBDD7DBDDE7EBEDFFFFFFFF0000E8
:101012000001010202020303040404050506060698
:10102200070708080809090A0A0B0B0B0C0C0D0D1F
:101032000D0E0E0F0F0F10101111111212131314A7
:1010420014141515161616171718181819191A1A2E
:101052001A1B1B1C1C1C1D1D1E1E1F1F1F202021B6
:10106200212122222323232424252525262627273E
:1010720028282829292A2A2A2B2B2C2C2C2D2D2EC4
:101082002E2E2F2F3030313131323233333334344C
:10109200353535363637373738383939393A3A3BD4
:1010A2003B3C3C3C3D3D3E3E3E3F3F40404041415B
:1010B20042424243434444454545464647474748E2
:1010C200484949494A4A4B4B4B4C4C4D4D4D4E4E6B
:1010D2004F4F5050505151525252535354545455F1
:1010E20055565656575758585959595A5A5B5B5B79
:1010F2005C5C5D5D5D5E5E5F5F5F60606161626200
:101102006263636464646565666666676768686887
:1011120069696A6A6A6B6B6C6C6D6D6D6E6E6F6F0E
:101122006F70707171717272737373747475757696
:101132007676777778787879797A7A7A7B7B7C7C1D
:101142007C7D7D7E7E7F000306090C0F1215181B25
:101152001E2124272A2D303336393B3E414346494E
:101162004B4E50525557595B5E6062646667696BBD
:101172006C6E7071727475767778797A7B7B7C7D10
:101182007D7E7E7E7E7E7E7E7E7E7E7E7D7D7C7B85
:101192007B7A7978777675747271706E6C6B696729
:1011A200666462605E5B59575552504E4B494643E6
:1011B200413E3B393633302D2A2724211E1B181578
:1011C200120F0C09060300FDFAF7F4F1EEEBE8E565
:1011D200E2DFDCD9D6D3D0CDCAC7C5C2BFBDBAB74C
:1011E200B5B2B0AEABA9A7A5A2A09E9C9B999795BC
:1011F2009492918F8E8C8B8A898887868585848349
:1012020083828282828282828282828283838485B4
:1012120085868788898A8B8C8E8F909294959799F0
:101222009A9C9EA0A2A5A7A9ABAEB0B2B5B7BABD13
:10123200BFC2C5C7CACDD0D3D6D9DCDFE2E5E8EB61
:10124200EEF1F4F7FAFD25642000537461727469BB
:101252006E672E2E2E0A0D002A72696E672A0A0008
:00000001FF
