:100000000C9455000C9474000C9474000C947400BF
:100010000C9474000C9474000C9474000C94740090
:100020000C9474000C9474000C9474000C94740080
:100030000C9474000C9474000C9474000C94740070
:100040000C9474000C9474000C9487020C9474004B
:100050000C9474000C9474000C9474000C94740050
:100060000C9474000C9474000C9474000C94740040
:100070000C9474000C9474000C9474000C94740030
:100080000C9474000C9474000C94740005A84CCD6E
:10009000B2D44EB93836A9020C50B9918688083CC2
:1000A000A6AAAA2ABE000000803F11241FBECFEFDF
:1000B000D0E4DEBFCDBF11E0A0E0B1E0E4E8F7E1BD
:1000C00000E00BBF02C007900D92A035B107D9F731
:1000D00023E0A0E5B1E001C01D92A63FB207E1F721
:1000E0000E948E090C94C00B0C940000CF93DF93F8
:1000F0001092BF011092BE018FE081B990EF92B9CA
:100100002AE12A95F1F700C020B12093C20191B9EC
:1001100082B98AE18A95F1F700C090B18091C2015D
:10012000982B9093C2019F3FA9F080E00AC0282F2E
:100130002F5FE82FF0E0E05DFE4F3081391731F09E
:10014000822F8C30A0F38C3009F404C08F5F809331
:10015000BA0102C01092BA018091C601823091F0BA
:1001600020F4813009F066C006C08330D1F08430BD
:1001700009F060C052C08091BA01882309F45AC0C6
:1001800082E050C08091BA01882349F083E08093D7
:10019000C60181E08093BB0118994CC049C081E041
:1001A00041C08091BA018823B1F1189943C08430CD
:1001B000E1F030F4823079F098F48130D9F506C05E
:1001C0008630E9F0B8F08730A9F51EC060E070E035
:1001D00089EB92E01DC060E070E082E093E018C01F
:1001E00060E070E084E593E013C060E070E08DEAC9
:1001F00093E00EC060E070E089EB94E009C060E03D
:1002000070E088E395E004C060E070E085EC95E084
:100210000E947C030FC084E005C08091BA0188234E
:1002200021F083E08093C60105C081E08093C60180
:100230001092BB018091C601813011F40E9401042B
:100240008091BB01882309F453C01092BB018091B7
:10025000BA018A3069F4E0E5F1E01192119221E0EF
:10026000E836F207D1F71092C4011092C30140C0E2
:100270008C30C9F4C0E5D1E089919991009771F073
:10028000880F991FFC01E050FF4F60817181FC01D4
:10029000E85EFE4F808191810E947C0381E0C83638
:1002A000D80751F725C02091C3013091C4012C30EB
:1002B0003105F0F4F901EE0FFF1FE05BFE4F808384
:1002C00011822F5F3F4F3093C4012093C30190E010
:1002D000880F991FFC01E050FF4F60817181FC0184
:1002E000E85EFE4F80819181DF91CF910C947C0379
:1002F000DF91CF91089589EF87BD82E080936E00F2
:1003000093E095BD84BD1092BF011092BE0114B858
:100310001092BB0181E08093C6011092C40110923B
:10032000C3010E9427037894089587E68093C40050
:1003300088E18093C1000895CF93C82F873049F496
:100340006091F4037091F50388E491E00E94000A43
:100350000BC08A3019F48DE00E949C018091C0008E
:1003600085FFFCCFC093C60080E090E0CF91089558
:10037000EF92FF920F931F93CF93DF938C018091A5
:10038000680190916901892B09F0A1C0CAE6D1E00A
:100390008091C00087FFFCCF8091C00084FDAAC07F
:1003A0008091C00083FDA9C08091C6008D3061F4AA
:1003B0008AE08883B8010E949C018AE691E09093CC
:1003C00069018093680183C08A3091F3893009F410
:1003D00080E2982F90529F3510F0803A90F091E093
:1003E000C93BD90749F46091F4037091F50388E49F
:1003F00091E00E94000ACCCF8993B8010E949C0131
:10040000C7CF823129F138F4833009F476C08830BF
:1004100009F0BECF09C0873109F44DC08F3721F0F4
:10042000853109F0B5CF34C0E1E0CA36DE0709F006
:1004300008F4AECFB80188E00E949C01B80180E2C8
:100440000E949C01B80188E00E949C012197A0CFE6
:10045000B8018DE00E949C018AE6E82E81E0F82E2A
:1004600006C0B801F70181917F010E949C01EC1642
:10047000FD06B8F38DCFB80188E00E949C01B80159
:1004800080E20E949C01B80188E00E949C012197B3
:10049000F1E0CA36DF0709F070F77ACFB80188E0DB
:1004A0000E949C01B80180E20E949C01B80188E092
:1004B0000E949C01E70181E0CA36D80709F008F4E0
:1004C00067CFFE0182917F01803241F761CFE091D9
:1004D0006801F091690120812A3031F03196F09362
:1004E0006901E093680104C01092690110926801EB
:1004F00030E005C02EEF3FEF02C02FEF3FEFC90104
:10050000DF91CF911F910F91FF90EF9008951F926F
:100510000F920FB60F9211240BB60F922F933F93A9
:100520004F935F936F937F938F939F93AF93BF93FB
:10053000CF93DF93EF93FF9381E08093DD034091AE
:10054000D5035091D6036091D7037091D803809161
:10055000E0039091E103A091E203B091E303E09105
:10056000DE03F091DF03472F552766277727EA013F
:10057000CB52DD4F28818B2F9927AA27BB27DC017F
:10058000AB52BD4F8C91992787FD9095820F911D9D
:1005900027FD9A95E453FE4F4081489F9001499F63
:1005A000300D1124832F805887BD8091D503909101
:1005B000D603A091D703B091D8034091C8015091C0
:1005C000C9016091CA017091CB01840F951FA61FCC
:1005D000B71F8093D5039093D603A093D703B0930E
:1005E000D8038091E0039091E103A091E203B091E0
:1005F000E3034091E9035091EA036091EB037091AA
:10060000EC03840F951FA61FB71F8093E003909300
:10061000E103A093E203B093E3038091C50181500D
:100620008093C501FF91EF91DF91CF91BF91AF9181
:100630009F918F917F916F915F914F913F912F91FA
:100640000F900BBE0F900FBE0F901F901895EF925A
:10065000FF920F931F93CF93DF9314B8239A55ED16
:10066000E52E52E0F52E0CEC11E0C0E0D0E0BE012A
:10067000882777FD8095982F0E94490726E53EE060
:1006800049EC50E40E94350620E030E040E85BE3AE
:100690000E9435060E942B0A20E030E04EEF52E423
:1006A0000E9435060E945004F70161937F01CE013C
:1006B00095958795F80181938F012196C115F1E0F9
:1006C000DF07A9F61092C1011092C00181E085BD3B
:1006D00010926E0080916E00816080936E0014BC59
:1006E00083EC84BD80E887BD7894DF91CF911F9122
:1006F0000F91FF90EF900895893B24E0920789F0D5
:1007000044F4893B22E0920719F18D3A934051F568
:1007100024C0883325E0920749F0853C954011F5C7
:1007200012C087E398EBA3EFB4E004C088E493EE33
:10073000A8E7B5E08093C8019093C901A093CA01CE
:10074000B093CB0117C08BE69CEBACE0B6E0F2CFE8
:1007500087E39AEDAAEDB2E0EDCF83E094EBAAED4A
:10076000B3E0E8CF1092C8011092C9011092CA01FB
:100770001092CB01643583E07807D9F044F4693BEB
:1007800082E0780761F06230734091F50DC06D3AF8
:1007900083E0780799F0693B744051F51CC087E30A
:1007A0009AEDAAEDB2E00EC08EED95E6A7E2B3E0B9
:1007B00009C08CE691E6ADE7B3E004C083E094EBBA
:1007C000AAEDB3E08093E9039093EA03A093EB03CF
:1007D000B093EC03089587E398EBA3EFB4E0809324
:1007E000C8019093C901A093CA01B093CB010895A9
:1007F0001092E9031092EA031092EB031092EC03BB
:1008000008951092C7011092EF031092EE03109218
:10081000DF031092DE031092E9031092EA031092B4
:10082000EB031092EC031092C8011092C9011092D0
:10083000CA011092CB011092E0031092E1031092D2
:10084000E2031092E3031092D5031092D6031092A4
:10085000D7031092D80308958091DD038130F9F415
:100860001092DD038091C601833041F48091DE0354
:100870009091DF038F3F910590F408C0813079F4A7
:100880008091DE039091DF03892B49F08091DE0394
:100890009091DF0301969093DF038093DE03089528
:1008A000CF92DF92EF92FF920F931F936B017C0127
:1008B00020E030E040E05FE40E941A0787FD0EC0B0
:1008C00020E030E040E05FE4C701B6010E94050689
:1008D0000E94A5078B019C01305806C0C701B601D4
:1008E0000E94A5078B019C01B801C9011F910F91BE
:1008F000FF90EF90DF90CF900895A4E0B0E0E3E8A0
:10090000F4E00C94CB097C016A01FC018081823007
:1009100008F44AC1FB019081923008F442C184304E
:1009200079F4943009F040C1F7019181FB01818194
:10093000981709F439C1A0E4EA2EA1E0FA2E34C1D7
:10094000943009F42EC1923091F4823009F02CC118
:1009500088E0F701DA0101900D928A95E1F7FB0139
:100960008181F70191818923FA0181831CC1823041
:1009700009F417C1F70182819381FB01A281B38140
:10098000F7010481158126813781FB0184809580E0
:10099000A680B780FC01EA1BFB0BAF01F7FF04C088
:1009A000442755274E1B5F0B403251050CF074C095
:1009B0001E161F06B4F524013501042E04C07694DA
:1009C0006794579447940A94D2F749825A826B826B
:1009D0007C82412C512C3201439404C0440C551CA0
:1009E000661C771C4A95D2F741E0441A5108610809
:1009F0007108482059206A207B20812C912C5401B9
:100A0000839445284628472819F4812C912C5401B9
:100A100049805A806B807C8084289528A628B72836
:100A200046C0EF2B09F443C0840F951F28013901FC
:100A3000042E04C076946794579447940A94D2F78E
:100A400049825A826B827C82412C512C3201439420
:100A500004C0440C551C661C771C4A95D2F741E033
:100A6000441A5108610871084022512262227322FF
:100A700001E010E020E030E045284628472819F43E
:100A800000E010E0980149805A806B807C80042946
:100A90001529262937290BC0A817B90724F4812C5A
:100AA000912C540104C0CD0100E010E09801F70141
:100AB0004181FB015181451709F446C0442349F0A7
:100AC00024013501401A510A620A730A9301820116
:100AD00004C0081919092A093B0937FD05C0F601A8
:100AE0001182938382830CC041E0F601418393839A
:100AF000828330952095109501951F4F2F4F3F4FC2
:100B000004831583268337830EC0880F991FAA1F7D
:100B1000BB1FF60184839583A683B783828193816B
:100B2000019793838283F60184819581A681B781A1
:100B3000AC01BD0141505109610971094F3F5F4F3F
:100B40006F4F7F4310F30CC0F60141839383828380
:100B5000080D191D2A1D3B1D048315832683378329
:100B600083E0F6018083448155816681778177FF38
:100B70001AC0DB01CA0181709927AA27BB27769585
:100B8000679557954795842B952BA62BB72B848378
:100B90009583A683B7838281938101969383828311
:100BA00002C07B0101C07601C7012496E0E10C94EC
:100BB000E709A0E2B0E0EFEDF5E00C94D9096D8F04
:100BC0007E8F8F8F98A3298F3A8F4B8F5C8FBE01BA
:100BD0006F5E7F4FCE014D960E94BE08BE01675FDB
:100BE0007F4FCE0149960E94BE08AE014F5F5F4F16
:100BF000BE01675F7F4FCE0141960E947D040E9437
:100C0000F407A096E2E00C94F509A0E2B0E0EBE076
:100C1000F6E00C94D9096D8F7E8F8F8F98A3298F62
:100C20003A8F4B8F5C8FBE016F5E7F4FCE014D962A
:100C30000E94BE08BE01675F7F4FCE0149960E94A9
:100C4000BE088A8591E089278A87AE014F5F5F4F92
:100C5000BE01675F7F4FCE0141960E947D040E94D6
:100C6000F407A096E2E00C94F509A0E2B0E0EBE313
:100C7000F6E00C94CB096D8F7E8F8F8F98A3298F10
:100C80003A8F4B8F5C8FBE016F5E7F4FCE014D96CA
:100C90000E94BE08BE01675F7F4FCE0149960E9449
:100CA000BE089989923008F412C08985823008F410
:100CB0001AC0943021F4823009F4B4C008C08430E2
:100CC00021F4923009F4AEC00EC0923051F481E0AC
:100CD0002A899A85291301C080E08A8BCE0141962A
:100CE000A3C0823051F481E02A899A85291301C07A
:100CF00080E08A87CE01099697C08D889E88AF884C
:100D0000B88C0D851E852F853889E0E2F0E080E003
:100D100090E0DC01C12CD12C760140E050E0BA011A
:100D200080FE18C0400F511F621F731F8C0D9D1D48
:100D3000AE1DBF1D412C512C320143944017510769
:100D40006207730718F0412C512C3201840D951D58
:100D5000A61DB71DCC0CDD1CEE1CFF1C37FF02C00E
:100D60006894C0F8000F111F221F331FB694A79478
:100D7000979487943197A1F62B893C89EB85FC8564
:100D80002E0F3F1F2E5F3F4F3C832B8321E0EA89CC
:100D90003A85E31301C020E02A83EB81FC810CC07B
:100DA00080FF05C076956795579547957068B6950D
:100DB000A795979587953196B7FDF2CF9F010CC007
:100DC000880F991FAA1FBB1F77FD8160440F551F15
:100DD000661F771F215031090097A105E0E4BE0787
:100DE00078F32B833C838C019D010F7711272227F9
:100DF0003327003411052105310559F487FD09C059
:100E0000452B462B472B29F0805C9F4FAF4FBF4FA0
:100E100080788D839E83AF83B88783E08983CE01FA
:100E2000019602C080E491E00E94F407A096E0E100
:100E30000C94E709A8E1B0E0E0E2F7E00C94D909EE
:100E40006D8B7E8B8F8B988F298B3A8B4B8B5C8B2A
:100E5000BE01675F7F4FCE0145960E94BE08BE016E
:100E60006F5F7F4FCE0141960E94BE088985823018
:100E700058F08981823040F0BE016F5F7F4FCE0114
:100E800009960E942D0901C08FEF6896E2E00C944C
:100E9000F509A8E0B0E0EFE4F7E00C94D70923E00F
:100EA00029838B019C01002737FD039511272227F9
:100EB0003327402F0A83611571058105910519F4C7
:100EC00082E0898335C02EE130E03C832B834423CC
:100ED00071F061157105810520E8920771F1002715
:100EE00011279801061B170B280B390B02C08B0129
:100EF0009C01C901B8010E94AE0901971816190694
:100F00002CF00D831E832F83388712C0082E04C057
:100F1000000F111F221F331F0A94D2F70D831E8367
:100F20002F8338872EE130E0281B390B3C832B833D
:100F3000CE0101960E94F40704C060E070E080E0FA
:100F40009FEC2896E4E00C94F309ACE0B0E0EBEA07
:100F5000F7E00C94D70969877A878B879C87BE0155
:100F60006F5F7F4FCE0109960E94BE088981823053
:100F700091F1823080F1843041F48A81882331F10B
:100F800000E010E020E030E829C02B813C8137FDF3
:100F900022C02F3131058CF78EE190E0821B930B3C
:100FA0000D811E812F81388504C0369527951795B0
:100FB00007958A95D2F78A81882381F0309520950C
:100FC000109501951F4F2F4F3F4F08C00FEF1FEF98
:100FD0002FEF3FE703C000E010E09801B801C9011E
:100FE0002C96E4E00C94F3090F931F93CF93DF93B7
:100FF000DC0114964D915D916D917C91179711963E
:10100000EC9111978C91823020F460618FEF90E029
:10101000A6C0843009F49EC0823009F495C0411501
:1010200051056105710509F492C012962D913C910C
:10103000139722388FEF38070CF058C0C2E8DFEF63
:10104000C21BD30BCA31D1056CF58A019B010C2E52
:1010500004C036952795179507950A94D2F781E035
:1010600090E0A0E0B0E00C2E04C0880F991FAA1FEA
:10107000BB1F0A94D2F70197A109B10984239523D4
:10108000A623B72341E050E060E070E0892B8A2B73
:101090008B2B19F440E050E0BA01402B512B622B0E
:1010A000732B03C040E050E0BA01DB01CA018F7727
:1010B0009927AA27BB2780349105A105B10539F4EA
:1010C00047FF09C0405C5F4F6F4F7F4F04C0415CDA
:1010D0005F4F6F4F7F4F81E090E0411551056105F3
:1010E00020E4720748F580E090E026C02038310502
:1010F0008CF5DB01CA018F779927AA27BB2780349B
:101100009105A105B10539F447FF09C0405C5F4F67
:101110006F4F7F4F04C0415C5F4F6F4F7F4F77FD34
:1011200004C0C90181589F4F07C0769567955795B0
:101130004795C90180589F4F97E0769567955795D9
:1011400047959A95D1F70BC080E090E005C080E00C
:1011500090E005C08FEF90E040E050E0BA01982F9A
:101160009695E0FB97F9362F80FB37F9642F752FA2
:10117000832FDF91CF911F910F910895CF92DF922E
:10118000EF92DC01FB01CC901196DC901197129646
:101190008C9112973FE7E32EE8226E2DA60170E0B6
:1011A000982F991F9927991F13962C91822F880F9A
:1011B000892B90E027FB222720F92183009729F52E
:1011C000411551056105710511F482E027C082E8DF
:1011D0009FEF9383828327E0440F551F661F771F7D
:1011E0002A95D1F783E0808309C0440F551F661FFD
:1011F000771F8281938101979383828341155105E3
:10120000610580E4780788F320C08F3F910579F469
:10121000411551056105710519F484E0808319C0F9
:10122000E4FE03C081E0808310C010820EC08F579F
:1012300091099383828383E0808387E0440F551F65
:10124000661F771F8A95D1F7706444835583668340
:101250007783EF90DF90CF900895CF93FC01DB016F
:101260009081923008F452C08C91823008F44EC0C4
:10127000943071F4843039F411962C9130E08181EE
:10128000281B310948C08181882309F43FC03BC035
:10129000843029F411968C91811138C034C0923079
:1012A00019F48230B9F735C0823069F3C1811196E3
:1012B0008C911197C8131DC02281338112968D9194
:1012C0009C911397821793070CF413C028173907C2
:1012D0000CF417C0448155816681778114968D91F5
:1012E0009D910D90BC91A02D84179507A607B70777
:1012F00018F4C11108C00AC0481759076A077B07CC
:1013000040F4C11103C02FEF3FEF05C021E030E0F2
:1013100002C020E030E0C901CF9108958FEF84B979
:1013200085B90E947B01CEE38091C50181110BC07C
:10133000C093C5018091BE019091BF010196909329
:10134000BF018093BE010E942C048091BE01909148
:10135000BF01449748F30E947600E6CF0E94B70988
:1013600084FF0895CB010E94B709805F0895AA27E2
:10137000992329F4A85F982B11F480E10895903106
:1013800018F4AD5F9295A395990FE8F78A2F9927E6
:1013900008952F923F924F925F926F927F928F9219
:1013A0009F92AF92BF92CF92DF92EF92FF920F93F4
:1013B0001F93CF93DF93CDB7DEB7CA1BDB0B0FB6FE
:1013C000F894DEBF0FBECDBF09942A8839884888BB
:1013D0005F846E847D848C849B84AA84B984C88451
:1013E000DF80EE80FD800C811B81AA81B981CE0F48
:1013F000D11D0FB6F894DEBF0FBECDBFED0108952D
:10140000EF92FF920F931F93CF93DF937C018B0199
:10141000DB0113968C9181FF14C0C0E0D0E00BC0BB
:10142000D8011896ED91FC911997B8010995892B6F
:1014300011F0CFEFDFEFF70181917F018111F0CF44
:1014400002C0CFEFDFEFCE01DF91CF911F910F915F
:10145000FF90EF9008959F9305D00F9007FCEE5FEB
:1014600028C0CEC03FD0E8F3E894E0E0BB279F5708
:10147000F0F02AED3FE049EC06C0EE0FBB0F661F0F
:10148000771F881F28F0B23A62077307840728F095
:10149000B25A620B730B840BE3959A9572F78038FE
:1014A00030F49A95BB0F661F771F881FD2F79048BC
:1014B0009BC0EF93E0FF06C0A2EA2AED3FE049ECB3
:1014C0005FEB37D0BFD00F90039401FC9058ECE84D
:1014D000F0E099C057FD9058440F551F59F05F3FF9
:1014E00071F04795880F97FB991F61F09F3F79F046
:1014F00087950895121613061406551FF2CF4695C8
:10150000F1DF08C0161617061806991FF1CF869549
:10151000710561050894089587D030F08CD020F0D3
:1015200031F49F3F11F41EF46BC00EF4E095E7FB1D
:1015300053C0E92FCFDF80F3BA1762077307840720
:10154000950718F071F49EF58EC00EF4E0950B2E01
:10155000BA2FA02D0B01B90190010C01CA01A00105
:101560001124FF27591B99F0593F50F4503E68F160
:101570001A16F040A22F232F342F4427585FF3CFA1
:10158000469537952795A795F0405395C9F77EF472
:101590001F16BA0B620B730B840BBAF09150A1F0BB
:1015A000FF0FBB1F661F771F881FC2F70EC0BA0F41
:1015B000621F731F841F48F4879577956795B795C9
:1015C000F7959E3F08F0B3CF9395880F08F09927C1
:1015D000EE0F97958795089597F99F6780E870E0DB
:1015E00060E008959F3F31F0915020F48795779502
:1015F0006795B795880F911D9695879597F90895EA
:101600009FEF80EC08959F938F937F936F93FF9349
:10161000EF939B01AC0129DBEF91FF912BD02F9130
:101620003F914F915F9121CB00240A941616170623
:1016300018060906089500240A94121613061406C3
:1016400005060895092E0394000C11F4882352F026
:10165000BB0F40F4BF2B11F460FF04C06F5F7F4FDE
:101660008F4F9F4F0895E894BB2766277727CB01BC
:1016700097F90895DF93CF931F930F93FF92EF9203
:10168000DF927B018C01689405C0DA2EEF0121D036
:10169000FE01E894A5912591359145915591AEF3C0
:1016A000EF0147DFFE019701A801DA9479F7DF9097
:1016B000EF90FF900F911F91CF91DF910895B4DFCC
:1016C00028F0B9DF18F0952309F086CF99CF1124BF
:1016D000CBCF00DFA0F3959FD1F3950F50E0551FBE
:1016E000629FF001729FBB27F00DB11D639FAA2777
:1016F000F00DB11DAA1F649F6627B00DA11D661FC6
:10170000829F2227B00DA11D621F739FB00DA11DE6
:10171000621F839FA00D611D221F749F3327A00DA0
:10172000611D231F849F600D211D822F762F6A2F3C
:1017300011249F5750408AF0E1F088234AF0EE0FC1
:10174000FF1FBB1F661F771F881F91505040A9F7CE
:101750009E3F510570F040CF87CF5F3FECF3983E3E
:10176000DCF3869577956795B795F795E7959F5F35
:10177000C1F7FE2B880F911D9695879597F90895CF
:04178000F894FFCF0B
:10178400B902B902B9020203020302035403540367
:101794005403AD03AD03AD03B9043805C505B9045D
:1017A4003805C505B9043805C505B9043805C505A6
:1017B400777B7DB7BBBDD7DBDDE7EBEDFFFFFFFF3D
:1017C40000000000000000002A72696E672A0A0007
:00000001FF
