:100000000C9446000C9465000C9465000C946500FB
:100010000C9465000C9465000C9465000C946500CC
:100020000C9465000C9465000C9465000C946500BC
:100030000C9465000C9465000C9465000C946500AC
:100040000C9467000C9465000C9465000C9465009A
:100050000C9465000C9465000C9465000C9465008C
:100060000C9465000C9465000C9465000C9465007C
:100070000C9465000C9465000C9465000C9465006C
:100080000C9465000C9465000C94650011241FBE4F
:10009000CFEFD0E4DEBFCDBF11E0A0E0B1E0E4E0FF
:1000A000FBE000E00BBF02C007900D92AE36B10737
:1000B000D9F721E0AEE6B1E001C01D92A63EB2073D
:1000C000E1F70E947D020C9480050C9400001F92C1
:1000D0000F920FB60F9211248F939F938091DA01A4
:1000E0009091DB01892B49F08091DA019091DB013D
:1000F00001979093DB018093DA019F918F910F908C
:100100000FBE0F901F90189508950F931F93CF93D4
:10011000DF9384E190E09093DB018093DA018FE03C
:1001200081B990EF92B92AE12A95F1F700C020B188
:100130002093DC0191B982B98AE18A95F1F700C078
:1001400090B18091DC01982B9093DC019F3FA9F046
:1001500080E00AC0282F2F5FE82FF0E0E25CFE4F1E
:100160003081391731F0822F8C30A0F38C3009F4B4
:1001700004C08F5F8093D80102C01092D801809193
:10018000DF01823079F018F4813081F505C08330C9
:10019000C1F0843059F51DC08091D801882331F118
:1001A00082E01CC08091D801882349F083E08093CD
:1001B000DF0181E08093D901189918C015C081E052
:1001C0000DC08091D801882311F083B10FC084E065
:1001D00005C08091D801882321F083E08093DF015E
:1001E00005C081E08093DF011092D9018091D9018F
:1001F000882309F471C01092D9012091D8012A30C6
:1002000089F4EEE6F1E01192119221E0E638F2076E
:10021000D1F71092DE011092DD01CEE6D1E003E5C8
:1002200011E035C02C30F9F4CEE6D1E00EE411E057
:1002300089919991009791F09F938F931F930F93BA
:100240008091E3018F938091E2018F930E94A0023D
:100250000F900F900F900F900F900F9081E0C63885
:10026000D80731F7DACF8091DD019091DE018C3033
:10027000910598F6FC01EE0FFF1FE259FE4F208317
:10028000118201969093DE018093DD01C6CF8881B3
:10029000998122969F938F931F930F938091E301EF
:1002A0008F938091E2018F930E94A0020F900F9094
:1002B0000F900F900F900F9021E0C638D20739F7BA
:1002C0006091E2017091E30182E691E0DF91CF91CC
:1002D0001F910F910C94B002DF91CF911F910F915C
:1002E000089589EF87BD82E080936E0093E095BD0D
:1002F00084BD84E190E09093DB018093DA0114B82F
:100300001092D90181E08093DF011092DE011092FA
:10031000DD017894089587E68093C40088E1809396
:10032000C1000895CF93C82F873049F46091E4014C
:100330007091E50185E691E00E94B0020BC08A3021
:1003400019F48DE00E9492018091C00085FFFCCFDE
:10035000C093C60080E090E0CF910895EF92FF92A5
:100360000F931F93CF93DF938C018091860190911F
:100370008701892B09F0A1C0C8E8D1E08091C000B5
:1003800087FFFCCF8091C00084FDAAC08091C0008F
:1003900083FDA9C08091C6008D3061F48AE0888316
:1003A000B8010E94920188E891E0909387018093C0
:1003B000860183C08A3091F3893009F480E2982F56
:1003C00090529F3510F0803A90F091E0C73DD907E8
:1003D00049F46091E4017091E50185E691E00E94A5
:1003E000B002CCCF8993B8010E949201C7CF82316D
:1003F00029F138F4833009F476C0883009F0BECF93
:1004000009C0873109F44DC08F3721F0853109F0DB
:10041000B5CF34C0E1E0C838DE0709F008F4AECF4C
:10042000B80188E00E949201B80180E20E94920126
:10043000B80188E00E9492012197A0CFB8018DE019
:100440000E94920188E8E82E81E0F82E06C0B801EB
:10045000F70181917F010E949201EC16FD06B8F32D
:100460008DCFB80188E00E949201B80180E20E941D
:100470009201B80188E00E9492012197F1E0C8380A
:10048000DF0709F070F77ACFB80188E00E94920187
:10049000B80180E20E949201B80188E00E949201B6
:1004A000E70181E0C838D80709F008F467CFFE01FA
:1004B00082917F01803241F761CFE0918601F09116
:1004C000870120812A3031F03196F0938701E09343
:1004D000860104C0109287011092860130E005C0A9
:1004E0002EEF3FEF02C02FEF3FEFC901DF91CF9119
:1004F0001F910F91FF90EF9008958FEF84B985B908
:100500000E948B0180E091E09093E5018093E401EB
:100510009093E1018093E0019093E3018093E201E5
:10052000BC0187E591E00E94B0020E9471018091B8
:10053000DA019091DB01892BD1F70E948500F7CF7A
:10054000CF93DF93CDB7DEB7CE010996AC016F81B3
:1005500078858D819E810E94DB02DF91CF91089585
:10056000EF92FF920F931F93CF93DF937C018B0148
:10057000DB0113968C9181FF14C0C0E0D0E00BC06A
:10058000D8011896ED91FC911997B8010995892B1E
:1005900011F0CFEFDFEFF70181917F018111F0CFF3
:1005A00002C0CFEFDFEFCE01DF91CF911F910F910E
:1005B000FF90EF9008952F923F924F925F926F922B
:1005C0007F928F929F92AF92BF92CF92DF92EF92E3
:1005D000FF920F931F93CF93DF93CDB7DEB72C9786
:1005E0000FB6F894DEBF0FBECDBF7C016B018A0150
:1005F000FC0117821682838181FFC6C188248394FF
:10060000912C8C0E9D1EF7019381F60193FD85912F
:1006100093FF81916F01882309F4B2C1853239F4C7
:1006200093FD859193FF81916F01853229F4B70184
:1006300090E00E94F604E7CF512C312C20E02032CC
:10064000A8F48B3261F028F4803251F0833271F4D7
:100650000BC08D3239F0803349F4216028C022600C
:10066000246025C0286023C0206121C027FD27C049
:10067000382F30533A3078F426FF06C0FAE05F9EF8
:10068000300D1124532E13C08AE0389E300D1124F2
:10069000332E20620CC08E3221F426FD71C12064FD
:1006A00006C08C3611F4206802C0883641F4F60189
:1006B00093FD859193FF81916F018111C0CF982F98
:1006C0009554933018F09052933028F40C5F1F4FDC
:1006D000FFE3F9830DC0833631F0833771F0833542
:1006E00009F05EC023C0F801808189830E5F1F4F2F
:1006F00044244394512C540115C03801F2E06F0E8C
:10070000711CF801A080B18026FF03C0652D70E048
:1007100002C06FEF7FEFC5012C870E94EB042C0114
:1007200083012C856FE7262E222218C03801F2E0C3
:100730006F0E711CF801A080B18026FF03C0652DEB
:1007400070E002C06FEF7FEFC5012C870E94E004CC
:100750002C012C8550E8252E222A830123FC1CC065
:1007600006C0B70180E290E00E94F6043A94832D1F
:1007700090E048165906A8F30FC0F50127FC8591B3
:1007800027FE81915F01B70190E00E94F6043110CD
:100790003A94F1E04F1A51084114510471F7EDC039
:1007A000843611F0893641F5F80127FF07C06081D2
:1007B0007181828193810C5F1F4F08C060817181BC
:1007C000882777FD8095982F0E5F1F4F4FE6B42E38
:1007D000B22297FF09C090958095709561957F4FE3
:1007E0008F4F9F4FF0E8BF2A2AE030E0A4010E941B
:1007F0002205A82EA81843C0853731F43FEEB32E4A
:10080000B2222AE030E024C099EFB92EB2228F360E
:10081000B9F020F4883509F0B3C00DC0803721F05D
:10082000883709F0ADC002C020E1B22AB4FE0BC087
:1008300084E0B82A08C024FF09C0E6E0BE2A06C04A
:1008400028E030E005C020E130E002C020E132E0E5
:10085000F801B7FE07C060817181828193810C5FCE
:100860001F4F06C06081718180E090E00E5F1F4FD6
:10087000A4010E942205A82EA818FFE7BF22B6FEF9
:100880000BC02B2D2E7FA51450F4B4FE0AC0B2FC71
:1008900008C02B2D2E7E05C07A2C2B2D03C07A2C60
:1008A00001C0752C24FF0DC0FE01EA0DF11D8081F1
:1008B000803311F4297E09C022FF06C0739473941B
:1008C00004C0822F867809F0739423FD14C020FFA2
:1008D0000FC05A2C731460F4530C5718732C08C0B3
:1008E000B70180E290E02C870E94F60473942C8577
:1008F0007314B0F304C0731410F4371801C0312C12
:1009000024FF12C0B70180E390E02C870E94F60418
:100910002C8522FF1EC021FF03C088E590E002C0A5
:1009200088E790E0B7010CC0822F867891F021FD16
:1009300002C080E201C08BE227FD8DE2B70190E0AA
:100940000E94F60406C0B70180E390E00E94F6041E
:100950005A94A514C0F3AA94F401EA0DF11DB7014D
:10096000808190E00E94F604A110F5CF06C0B70187
:1009700080E290E00E94F6043A943110F8CF43CE22
:10098000F7012681378102C02FEF3FEFC9012C9676
:100990000FB6F894DEBF0FBECDBFDF91CF911F9190
:1009A0000F91FF90EF90DF90CF90BF90AF909F900E
:1009B0008F907F906F905F904F903F902F90089511
:1009C000FC010590615070400110D8F7809590951A
:1009D0008E0F9F1F0895FC0161507040019001101F
:1009E000D8F7809590958E0F9F1F08950F931F93B2
:1009F000CF93DF938C01EB018B8181FD03C00FEF5F
:100A00001FEF1AC082FF0DC02E813F818C819D8116
:100A10002817390764F4E881F9810193F983E883A1
:100A200006C0E885F985802F0995892B41F78E81CD
:100A30009F8101969F838E83C801DF91CF911F9183
:100A40000F910895FA01AA27283051F1203181F140
:100A5000E8946F936E7F6E5F7F4F8F4F9F4FAF4FC6
:100A6000B1E03ED0B4E03CD0670F781F891F9A1FD9
:100A7000A11D680F791F8A1F911DA11D6A0F711D8D
:100A8000811D911DA11D20D009F468943F912AE099
:100A9000269F11243019305D3193DEF6CF01089581
:100AA000462F4770405D4193B3E00FD0C9F7F6CFB2
:100AB000462F4F70405D4A3318F0495D31FD40527A
:100AC000419302D0A9F7EACFB4E0A6959795879510
:100AD00077956795BA95C9F70097610571050895EF
:100AE0009B01AC010A2E069457954795379527959B
:100AF000BA95C9F7620F731F841F951FA01D089533
:040B0000F894FFCF97
:100B040000000003000000009201AE010000B902E1
:100B1400B902B90202030203020354035403540347
:100B2400AD03AD03AD03B9043805C505B9043805F3
:100B3400C505B9043805C505B9043805C505777B6D
:100B44007DB7BBBDD7DBDDE7EBEDFFFFFFFF257511
:100B54000A0D00256420005374617274696E672E57
:0E0B64002E2E0A0D002A72696E672A0A000002
:00000001FF
