:100000000C9446000C9465000C9465000C946500FB
:100010000C9465000C9465000C9465000C946500CC
:100020000C9465000C9465000C9465000C946500BC
:100030000C9465000C94EE000C9465000C94650023
:100040000C94C1040C9465000C9465000C9465003C
:100050000C9465000C9465000C9465000C9465008C
:100060000C9465000C9465000C9465000C9465007C
:100070000C94F3030C94A6000C9465000C9465009A
:100080000C9465000C9465000C94650011241FBE4F
:10009000CFEFD0E4DEBFCDBF11E0A0E0B1E0ECEAED
:1000A000F3E100E00BBF02C007900D92A038B1074A
:1000B000D9F723E0A0E8B1E001C01D92A638B2074D
:1000C000E1F70E944C060C94D4090C940000CF93E5
:1000D000C82F8A3019F48DE00E94670020914A02EF
:1000E00030914B022F5F283C09F420E0E0914A0256
:1000F000F0914B02E058FE4FC083822F90E0209198
:1001000048023091490282179307C9F390934B023A
:1001100080934A028091C90080628093C90080E088
:1001200090E0CF91089587E68093CC00E9ECF0E071
:1001300088E1808310924B0210924A021092490289
:100140001092480280818068808308951F920F92E8
:100150000FB60F9211240BB60F922F933F938F93EC
:100160009F93EF93FF9320914A0230914B0280912D
:100170004802909149022817390731F48091C9004B
:100180008F7D8093C9001DC0E0914802F091490223
:10019000E058FE4F80818093CE008091480290917C
:1001A0004902019690934902809348028091480247
:1001B00090914902883C910521F4109249021092D5
:1001C0004802FF91EF919F918F913F912F910F9056
:1001D0000BBE0F900FBE0F901F9018951F920F929D
:1001E0000FB60F9211240BB60F926F927F928F92DF
:1001F0009F92AF92BF92CF92DF92EF92FF920F93B6
:100200001F932F933F934F935F936F937F938F939E
:100210009F93AF93BF93CF93DF93EF93FF9310928E
:100220006F00C091F902B09B14C08091300390918F
:100230003103A0913203B09133030196A11DB11D8A
:100240008093300390933103A0933203B093330330
:10025000B09A209184003091850080913003909174
:100260003103A0913203B0913303DC019927882731
:10027000820F931FA11DB11D7090F802CC24CA9467
:10028000DC2CEC2C6FE7F62E11E0D0E00BE06624BE
:10029000639432C0019FF0011124E650FD4F228586
:1002A000223091F4428153816481758184179507CE
:1002B000A607B70710F0628607C04C155D056E05EE
:1002C0007F0510F46A017B0122852130A1F40D9F86
:1002D0009001112428503D4F86809780A084B184DE
:1002E000F901408551856285738584169506A606B9
:1002F000B70608F4D12F1F5F711660F6AD2EB12C32
:100300008C2E912C1F92DF931F92CF938EE091E061
:100310009F938F93809183038F93809182038F9318
:100320000E94C5062DB73EB7285F3F4F0FB6F89421
:100330003EBF0FBE2DBFDC17C9F08BE0889DF001DA
:10034000899DF00D1124E650FD4F9DB790839EB717
:1003500091838A9DF0018B9DF00D1124E650FD4F95
:1003600081818EBF80818DBFD093F902C09234030A
:10037000D0923503E0923603F09237032091840047
:10038000309185008091300390913103A091320328
:10039000B0913303DC0199278827820F931FA11D99
:1003A000B11DC81AD90AEA0AFB0A34E0C316D104FF
:1003B000E104F1042CF484E0C82ED12CE12CF12CC2
:1003C0008091840090918500A7019601280F391F24
:1003D000411D511DDA01C9010097A140B10538F452
:1003E00080918400909185008C0D9D1D0EC08091A0
:1003F0008400909185008C3F9F4F28F410928900D3
:100400001092880006C084E090E090938900809369
:10041000880082E080936F00FF91EF91DF91CF9190
:10042000BF91AF919F918F917F916F915F914F910C
:100430003F912F911F910F91FF90EF90DF90CF9000
:10044000BF90AF909F908F907F906F900F900BBE5A
:100450000F900FBE0F901F9018951092850010926C
:1004600084001092800025E02093810022E02093F8
:100470006F002FEF30E4281B390B30932F032093AC
:100480002E031092F8021092F9021092300310928B
:10049000310310923203109233038FEF9FEFAFEFCF
:1004A000BFE78093340390933503A0933603B09352
:1004B00037038093000390930103A0930203B0934A
:1004C00003031092FC021092FD021092FE021092A1
:1004D000FF0278940895CF92DF92EF92FF920F93EC
:1004E0001F93F894E091F802EF5FE093F802E09137
:1004F0002E03F0912F03DF01A61BB70BB0932F0340
:10050000A0932E038083DF019E93CF014B971E9211
:10051000A817B907E1F7DF015C97CC92DF015D977F
:10052000DC92CF0183971E92A817B907E1F7B49721
:10053000A091F8028BE0A89FD0011124A650BD4FD6
:1005400012962D933D934D935C9315971696ED92CD
:10055000FD920D931C93199782E01A968C931A972B
:10056000EC931196FC931F910F91FF90EF90DF9009
:10057000CF900C94EE00F894E82FF0E0E850FD4F97
:1005800065A7789408952091F902F894E82FF0E097
:10059000E950FD4F96A5992319F0915096A70AC0EE
:1005A0009BE0299FF0011124E650FD4F8E5F82876A
:1005B0000E94EE0078940895FF920F931F93CF93BB
:1005C000DF93F894F091F802E0E04FEF5FEFBA01AB
:1005D00091E0ABE0FA2EC82FD0E022961BC0F99E26
:1005E000D0011124A650BD4F1A962C911A9730E0D5
:1005F0002C173D0771F416960D911D912D913C918C
:100600001997401751076207730718F0E92FB901CE
:10061000A8019F5FF91718F7E11108C0E82FF0E073
:10062000E950FD4F86A58F5F86A70AC08BE0E89F43
:10063000F0011124E850FD4F81E084870E94EE0014
:100640007894DF91CF911F910F91FF900895EF92D1
:10065000FF920F931F93CF93DF938C0180914C02F5
:1006600090914D02892B09F09EC0CEE4D2E081E04A
:1006700090E00E94C3028091C80084FDA7C08091D1
:10068000C80083FDA6C080913D038D3081F48AE0CF
:100690008883B8010E9467008EE492E090934D0237
:1006A00080934C0282E090E00E94DC027CC08A30A1
:1006B00071F3893009F480E2982F90529F3510F041
:1006C000803A60F092E0CD39D90719F4B80187E09B
:1006D00002C08993B8010E946700C9CF823121F11D
:1006E00030F4833009F475C0883009F609C08731C9
:1006F00009F44DC08F3721F0853109F0B8CF34C0EF
:10070000E2E0CE34DE0709F008F4B1CFB80188E0AA
:100710000E946700B80180E20E946700B80188E08B
:100720000E9467002197A3CFB8018DE00E94670067
:10073000BEE4EB2EB2E0FB2E06C0B801F7018191BA
:100740007F010E946700EC16FD06B8F390CFB80158
:1007500088E00E946700B80180E20E946700B8014B
:1007600088E00E9467002197F2E0CE34DF0709F0AD
:1007700070F77DCFB80188E00E946700B80180E281
:100780000E946700B80188E00E946700E70182E0EC
:10079000CE34D80709F008F46ACFFE0182917F01B8
:1007A000803241F764CFE0914C02F0914D022081FC
:1007B0002A3031F03196F0934D02E0934C0204C0A0
:1007C00010924D0210924C0230E005C02EEF3FEF28
:1007D00002C02FEF3FEFC901DF91CF911F910F9121
:1007E000FF90EF9008951F920F920FB60F92112471
:1007F0000BB60F922F933F934F935F936F937F931B
:100800008F939F93AF93BF93EF93FF938091CE000D
:1008100080933D0381E090E00E94DC02FF91EF9124
:10082000BF91AF919F918F917F916F915F914F9108
:100830003F912F910F900BBE0F900FBE0F901F9006
:1008400018950F931F9380918400909185000091DB
:10085000300310913103209132033091330398011A
:1008600011270027080F191F211D311DB801C901CB
:100870001F910F910895E091F902ABE0EA9FF0011A
:100880001124E650FD4FF894A2E0A287628373839F
:100890008483958326833783408751870C94EE00A9
:1008A00060E071E080E291E00E94D5060E942104A0
:1008B0006B017C010E9421049B01AC012B5C334F36
:1008C0004F4F5F4FC701B601665E794F8F4F9F4F05
:1008D0000E943B04EBCF0E9421046B017C010E942B
:1008E00021049B01AC012B5C334F4F4F5F4FC7017D
:1008F000B601665E794F8F4F9F4F0E943B04EBCF4E
:10090000E091F9028BE0E89FF0011124E850FD4FDF
:10091000DF011496648111967C91119712968C9147
:10092000129713969C910895E091F9028BE0E89F4D
:10093000F0011124E850FD4FDF01189660851196F3
:100940007C91119712968C91129713969C91089511
:10095000F894E091F9028BE0E89FF0011124E8504F
:10096000FD4F14860C94EE00F894E82FF0E0E95067
:10097000FD4F86A5882319F0982F915096A778945B
:1009800008951F920F920FB60F9211240BB60F927B
:100990008F939F93EF93FF938091E402882301F15B
:1009A0008091C00085FF0CC080913C03E82FF0E0EF
:1009B000EE55FD4F90819093C6008F5F80933C036E
:1009C000E0913C03F0E0EE55FD4F8081811102C0C3
:1009D0001092E40280913C03803410F01092E40203
:1009E0008091C00087FF2BC08091C600882339F119
:1009F000833219F410923B0322C0853251F4E09106
:100A00003B03F0E0E25CFC4F108281E08093E50262
:100A100016C090913B03E92FF0E0E25CFC4F80832D
:100A20009F5F90933B0380913B03803440F082E0D2
:100A30008093E50210927D038FE380933B03FF9147
:100A4000EF919F918F910F900BBE0F900FBE0F9063
:100A50001F9018950F931F93FB0101900020E9F759
:100A60003197E61BF70B40E090E006C0DB01A20FD8
:100A7000B31F2C9192274F5F242F30E02E173F0792
:100A8000A8F31F9225E22F93292F22952F70205F24
:100A90001F922F939F70905F1F929F937F936F93EE
:100AA0001F928F931F9283E28F9389E391E09F932C
:100AB0008F9382EA92E09F938F930E940007109297
:100AC0003C0381E08093E4020E9421046093F402DD
:100AD0007093F5028093F6029093F7028DB79EB75C
:100AE00040960FB6F8949EBF0FBE8DBF8091E40272
:100AF000882399F00E9421040091F4021091F502DC
:100B00002091F6023091F7020C591F4F2F4F3F4FA3
:100B1000601771078207930748F31F910F9108959B
:100B2000282FCB01EEE3F3E001900020E9F73197A5
:100B3000EE53F3403091E502323009F43FC030917A
:100B4000E502332309F43EC030913E03321338C02E
:100B50002091E5022130B1F571E060E005C0A25CB2
:100B6000BC4F2C9162277F5FA72FB0E02E2FE0347F
:100B700008F02FE330E0A90142505109A417B5074E
:100B800074F3FA01E25CFC4F4081D901A35CBC4FD5
:100B90002C914F7030E1239F400D1124461314C057
:100BA00020E220933E0310821092E50240E450E0E0
:100BB0006FE373E00E94B10680E0089582E008953B
:100BC00083E0089581E0089584E0089582E08093B1
:100BD0006E0099EF97BD93E095BD84BD8EE880933C
:100BE000B30081E08093B10082E48093B00080E89C
:100BF0008AB98FEC8093C40088E18093C1008CE0B7
:100C00008093C20087E68093CC0088E08093C9007F
:100C1000609182037091830386E491E00E94D5067F
:100C20007894089586E00E94C302189908C081E074
:100C30008093EA02199B06C01092EB0205C0109245
:100C4000EA0282E08093EB021A9902C08EE301C0AF
:100C50008CE380933A031F928F938091EB021F9253
:100C60008F938091EA021F928F9382E691E09F9387
:100C70008F93809183038F93809182038F930E943F
:100C8000C5068DB79EB70A960FB6F8949EBF0FBEE5
:100C90008DBF86E00C94DC02C1E0C7B918B814B867
:100CA0008FEF85B90E94930080E091E090938503D7
:100CB00080938403909381038093800390938303B4
:100CC00080938203BC018BE691E00E94D5060E94CE
:100CD000E605F894109226037894F894109227036E
:100CE0007894F894C09328037894F894C0932903D7
:100CF0007894F89410922A037894F894C0932B0374
:100D000078945EE9C52E52E0D52E15E3E12E1CE065
:100D1000F12E00E010E02AE136E040E050E068EE1D
:100D200073E080E594E00E946B0270EAC72E72E0E7
:100D3000D72E2AE136E040E050E068EE73E08BE623
:100D400094E00E946B0291E088B1892788B92FEF67
:100D500039E688E1215030408040E1F700C00000D2
:100D6000F3CFDC01FB014150504058F049F00190B5
:100D70000D920020C1F7E61BF70B3197CF010895C4
:100D80001C9201900020E9F7F6CFCF93DF93CDB707
:100D9000DEB7CE010996AC016F8178858D819E8189
:100DA0000E942F07DF91CF910895EF92FF920F934A
:100DB0001F93CF93DF937C018B01DB0113968C9102
:100DC00081FF14C0C0E0D0E00BC0D8011896ED91AF
:100DD000FC911997B8010995892B11F0CFEFDFEF3E
:100DE000F70181917F018111F0CF02C0CFEFDFEFDA
:100DF000CE01DF91CF911F910F91FF90EF90089559
:100E00000F931F93CF93DF93CDB7DEB72E970FB617
:100E1000F894DEBF0FBECDBF0D891E8986E08C839E
:100E20001A8309838FEF9FE79E838D83CE014996B6
:100E3000AC016F89788DCE0101960E942F07EF815A
:100E4000F885E00FF11F10822E960FB6F894DEBFE2
:100E50000FBECDBFDF91CF911F910F9108952F92BB
:100E60003F924F925F926F927F928F929F92AF923A
:100E7000BF92CF92DF92EF92FF920F931F93CF9387
:100E8000DF93CDB7DEB72C970FB6F894DEBF0FBE59
:100E9000CDBF7C016B018A01FC0117821682838120
:100EA00081FFC6C188248394912C8C0E9D1EF7016E
:100EB0009381F60193FD859193FF81916F018823C2
:100EC00009F4B2C1853239F493FD859193FF819184
:100ED0006F01853229F4B70190E00E944A09E7CFFB
:100EE000512C312C20E02032A8F48B3261F028F410
:100EF000803251F0833271F40BC08D3239F080337F
:100F000049F4216028C02260246025C0286023C0E5
:100F1000206121C027FD27C0382F30533A3078F4A4
:100F200026FF06C0FAE05F9E300D1124532E13C039
:100F30008AE0389E300D1124332E20620CC08E3290
:100F400021F426FD71C1206406C08C3611F420689E
:100F500002C0883641F4F60193FD859193FF81919B
:100F60006F018111C0CF982F9554933018F0905293
:100F7000933028F40C5F1F4FFFE3F9830DC08336D5
:100F800031F0833771F0833509F05EC023C0F8017A
:100F9000808189830E5F1F4F44244394512C540158
:100FA00015C03801F2E06F0E711CF801A080B1800D
:100FB00026FF03C0652D70E002C06FEF7FEFC50113
:100FC0002C870E943F092C0183012C856FE7262E78
:100FD000222218C03801F2E06F0E711CF801A080C7
:100FE000B18026FF03C0652D70E002C06FEF7FEF78
:100FF000C5012C870E9434092C012C8550E8252E30
:10100000222A830123FC1CC006C0B70180E290E0C5
:101010000E944A093A94832D90E048165906A8F395
:101020000FC0F50127FC859127FE81915F01B70173
:1010300090E00E944A0931103A94F1E04F1A5108A9
:101040004114510471F7EDC0843611F0893641F531
:10105000F80127FF07C060817181828193810C5F55
:101060001F4F08C060817181882777FD8095982F78
:101070000E5F1F4F4FE6B42EB22297FF09C0909526
:101080008095709561957F4F8F4F9F4FF0E8BF2AF5
:101090002AE030E0A4010E947609A82EA81843C0D7
:1010A000853731F43FEEB32EB2222AE030E024C07F
:1010B00099EFB92EB2228F36B9F020F4883509F0B5
:1010C000B3C00DC0803721F0883709F0ADC002C031
:1010D00020E1B22AB4FE0BC084E0B82A08C024FF85
:1010E00009C0E6E0BE2A06C028E030E005C020E1E5
:1010F00030E002C020E132E0F801B7FE07C06081B5
:101100007181828193810C5F1F4F06C06081718164
:1011100080E090E00E5F1F4FA4010E947609A82E88
:10112000A818FFE7BF22B6FE0BC02B2D2E7FA514FB
:1011300050F4B4FE0AC0B2FC08C02B2D2E7E05C0B0
:101140007A2C2B2D03C07A2C01C0752C24FF0DC0E6
:10115000FE01EA0DF11D8081803311F4297E09C062
:1011600022FF06C07394739404C0822F867809F01E
:10117000739423FD14C020FF0FC05A2C731460F425
:10118000530C5718732C08C0B70180E290E02C87ED
:101190000E944A0973942C857314B0F304C073142D
:1011A00010F4371801C0312C24FF12C0B70180E3BE
:1011B00090E02C870E944A092C8522FF1EC021FF47
:1011C00003C088E590E002C088E790E0B7010CC05A
:1011D000822F867891F021FD02C080E201C08BE26F
:1011E00027FD8DE2B70190E00E944A0906C0B701D1
:1011F00080E390E00E944A095A94A514C0F3AA948F
:10120000F401EA0DF11DB701808190E00E944A09C6
:10121000A110F5CF06C0B70180E290E00E944A0914
:101220003A943110F8CF43CEF7012681378102C0BE
:101230002FEF3FEFC9012C960FB6F894DEBF0FBE1B
:10124000CDBFDF91CF911F910F91FF90EF90DF9075
:10125000CF90BF90AF909F908F907F906F905F9056
:101260004F903F902F900895FC0105906150704081
:101270000110D8F7809590958E0F9F1F0895FC015F
:101280006150704001900110D8F7809590958E0FB5
:101290009F1F08950F931F93CF93DF938C01EB0152
:1012A0008B8181FD03C00FEF1FEF1AC082FF0DC0BD
:1012B0002E813F818C819D812817390764F4E88154
:1012C000F9810193F983E88306C0E885F985802FC9
:1012D0000995892B41F78E819F8101969F838E838B
:1012E000C801DF91CF911F910F910895FA01AA27AC
:1012F000283051F1203181F1E8946F936E7F6E5F59
:101300007F4F8F4F9F4FAF4FB1E03ED0B4E03CD006
:10131000670F781F891F9A1FA11D680F791F8A1FE9
:10132000911DA11D6A0F711D811D911DA11D20D050
:1013300009F468943F912AE0269F11243019305D0A
:101340003193DEF6CF010895462F4770405D4193FB
:10135000B3E00FD0C9F7F6CF462F4F70405D4A3348
:1013600018F0495D31FD4052419302D0A9F7EACF10
:10137000B4E0A6959795879577956795BA95C9F73F
:1013800000976105710508959B01AC010A2E069432
:101390005795479537952795BA95C9F7620F731FEB
:0C13A000841F951FA01D0895F894FFCF36
:1013AC0000000003000000006700270300004F6CE2
:1013BC00643A202575204E65773A2025750A0D0074
:1013CC004D61646520697420746F2049525F6C6FA5
:1013DC00636B207461736B21002563256325732572
:1013EC006325632563000A0D2E2E2E5374617274CF
:1013FC00696E6720495220636F6D6D202E2E2E0A68
:10140C000D002563202563202563000A0D2054520E
:10141C00542039666562323030390A0D0A0D0000ED
:00000001FF
