:100000000C9476000C9495000C9495000C9495003B
:100010000C9495000C9495000C9495000C9495000C
:100020000C9495000C9495000C9495000C949500FC
:100030000C9495000C9497000C9495000C949500EA
:100040000C946A060C9495000C9495000C94950001
:100050000C94FC030C9488030C9495000C9495006C
:100060000C9495000C9495000C9495000C949500BC
:100070000C9495000C9495000C9495000C949500AC
:100080000C9495000C9495000C949500001F0000B2
:1000900000001F00001F101010101F00001F181874
:1000A00018181F00001F1C1C1C1C1F00001F1E1EF8
:1000B0001E1E1F00001F1F1F1F1F1F0003070F1FF3
:1000C0000F070300181C1E1F1E1C180043757272B8
:1000D000656E743A0000446573697265643A0000A5
:1000E0006364696E6F70737578585B0011241FBE6E
:1000F000CFEFD0E4DEBFCDBF12E0A0E0B1E0E4ED91
:10010000F5E200E00BBF02C007900D92A63DB107DB
:10011000D9F714E0A6EDB2E001C01D92AA35B107EF
:10012000E1F70E94D7070C94E8120C9400001F928C
:100130000F920FB60F920BB60F9211242F923F928F
:100140004F925F926F927F928F929F92AF92BF92E7
:10015000CF92DF92EF92FF920F931F932F933F93D3
:100160004F935F936F937F938F939F93AF93BF93BF
:10017000CF93DF93EF93FF9310926F005090120490
:10018000B09B14C08091490490914A04A0914B0403
:10019000B0914C040196A11DB11D80934904909328
:1001A0004A04A0934B04B0934C04B09A809184000D
:1001B000909185003C018824992480914904909174
:1001C0004A04A0914B04B0914C04DC019927882784
:1001D000680E791E8A1E9B1E4090110470E061E03B
:1001E000FFEFAF2EFFEFBF2EFFEFCF2EFFE7DF2E8B
:1001F000EBE02E2E33243394CBE0D0E043C0629D5D
:10020000D0011124AD5EBB4F1A968C911A978230A3
:10021000A1F41296ED90FD900D911C9115976E141E
:100220007F048006910620F01A963C921A9705C02A
:10023000EA14FB040C051D0510F0860175011A96E1
:100240008C911A978130D9F4872F90E08C9FF00120
:100250008D9FF00D9C9FF00D1124EF5EFB4F1696C5
:100260002D913D914D915C91199780859185A28545
:10027000B385281739074A075B0708F4762F6F5FA5
:1002800057016801461608F0BACF7515B1F0EBE0DA
:100290005E9ED0011124AD5EBB4F8DB78C938EB79F
:1002A00011968C937E9FF0011124ED5EFB4F8181AE
:1002B0008EBF80818DBF70931204A0924D04B092C6
:1002C0004E04C0924F04D09250042091840030918B
:1002D000850040E050E08091490490914A04A0914B
:1002E0004B04B0914C04DC0199278827280F391F53
:1002F0004A1F5B1FD601C501821B930BA40BB50BD4
:100300009C01AD0184309105A105B10524F424E0E0
:1003100030E040E050E08091840090918500A0E0C2
:10032000B0E0820F931FA41FB51F80509040A140E2
:10033000B04038F48091840090918500820F931F23
:100340000EC080918400909185008C5F9F4F28F4AF
:10035000109289001092880006C084E090E090938B
:1003600089008093880082E080936F00FF91EF9175
:10037000DF91CF91BF91AF919F918F917F916F91BD
:100380005F914F913F912F911F910F91FF90EF90AF
:10039000DF90CF90BF90AF909F908F907F906F90A5
:1003A0005F904F903F902F900F900BBE0F900FBE1D
:1003B0000F901F9018951092850010928400109253
:1003C000800025E02093810022E020936F002FEF32
:1003D00030E4281B390B30934804209347041092D3
:1003E0001104109212041092490410924A041092BF
:1003F0004B0410924C048FEF9FEFAFEFBFE7809359
:100400004D0490934E04A0934F04B09350048093F6
:10041000190490931A04A0931B04B0931C04109227
:100420001504109216041092170410921804789470
:1004300008958F929F92AF92BF92CF92DF92EF92E8
:10044000FF920F931F93CF93DF9349015A01F894C2
:10045000209111042F5F20931104C0914704D09183
:1004600048049E01261B370B309348042093470411
:100470008883FE0192933197DF01CE014C971C9245
:100480001197A817B907D9F77A97C082D2923197F6
:10049000DF019E01245230401C921197A217B3072E
:1004A000D9F79F0126503040E09111048BE0E89F7E
:1004B000F0011124ED5EFB4F82829382A482B5820B
:1004C000E682F7820087118782E08287208331836A
:1004D0000E949700DF91CF911F910F91FF90EF90B5
:1004E000DF90CF90BF90AF909F908F900895F89439
:1004F000E1E1F4E0E80FF11D65A778940895482F35
:1005000020911204F894E82FF0E0E25CFB4F808128
:10051000882319F08150808310C030E08BE090E098
:10052000289FF001299FF00D389FF00D1124ED5EFA
:10053000FB4F4E5F42870E94970078940895FF9288
:100540000F931F93182FF89400911104E1E04FEFDF
:100550005FEF6FEF7FEFF0E08BE0F82E212F30E0C0
:100560002E5F3F4F1EC0EF9DD0011124AD5EBB4FEB
:100570001A968C911A9790E08217930769F4169651
:100580008D919D910D90BC91A02D481759076A0738
:100590007B0710F0FE2F02C0DB01CA01EF5FAC0148
:1005A000BD010E1700F7FF2341F4E12FF0E0E05FFB
:1005B000FB4F86A58F5F86A711C02F2F30E08BE001
:1005C00090E0289FF001299FF00D389FF00D112435
:1005D000EF5EFB4F81E084870E94970078941F9123
:1005E0000F91FF900895209184003091850040E0A4
:1005F00050E08091490490914A04A0914B04B0913D
:100600004C04DC0199278827280F391F4A1F5B1FDC
:10061000B901CA010895E0911204ABE0EA9FF0012C
:100620001124ED5EFB4FF894A2E0A28762837383EE
:100630008483958326833783408751870E94970060
:1006400008958091120490E02BE030E0829FF00149
:10065000839FF00D929FF00D1124EF5EFB4FDF01A1
:100660001496648111967C91119712968C91129731
:1006700013969C9108958091120490E02BE030E055
:10068000829FF001839FF00D929FF00D1124EF5E89
:10069000FB4FDF011896608511967C911197129699
:1006A0008C91129713969C910895F894809112045E
:1006B00090E02BE030E0829FF001839FF00D929F4D
:1006C000F00D1124EF5EFB4F14860E9497000895F1
:1006D000F894E82FF0E0E25CFB4F8081882319F06A
:1006E000815080838F5F7894089587E68093C4005B
:1006F000E1ECF0E088E18083109229031092280356
:1007000010922B0310922A038081806880830895C1
:100710001F920F920FB60F920BB60F9211242F93C8
:100720003F938F939F93EF93FF93209128033091F2
:10073000290380912A0390912B032817390731F45C
:100740008091C1008F7D8093C1001DC0E0912A037C
:10075000F0912B03E45DFC4F80818093C600809173
:100760002A0390912B03019690932B0380932A03E5
:1007700080912A0390912B03883C910521F41092DB
:100780002B0310922A03FF91EF919F918F913F913C
:100790002F910F900BBE0F900FBE0F901F901895CA
:1007A0001F93182F8A3019F48DE00E94D003809196
:1007B0002803909129038F5F883C09F480E0E09141
:1007C0002803F0912903E45DFC4F1083282F30E0CB
:1007D00080912A0390912B0328173907C9F330938E
:1007E0002903209328038091C10080628093C10077
:1007F00080E090E01F9108951F920F920FB60F9224
:100800000BB60F9211242F933F934F935F936F93E7
:100810007F938F939F93AF93BF93EF93FF938091B9
:10082000C6008093510481E00E949F02FF91EF91E6
:10083000BF91AF919F918F917F916F915F914F91F8
:100840003F912F910F900BBE0F900FBE0F901F90F6
:100850001895EF92FF920F931F93CF93DF937C0134
:100860008091D6029091D702892B09F0A2C008EDA1
:1008700012E081E00E947F028091C00084FF03C0EB
:100880002EEF3FEFAAC08091C00083FDA4C09091DD
:1008900051049D3011F09A3081F48AE0F801808390
:1008A000B7010E94D00388ED92E09093D702809325
:1008B000D60282E00E949F027CC0993009F490E247
:1008C000892F80528F3510F0903A78F0F3E007329C
:1008D0001F0719F4B70187E005C0F80191938F0154
:1008E000B701892F0E94D003C4CF923139F19331DF
:1008F00038F4933009F46FC0983009F0BACF09C0CA
:10090000973109F44BC09F3721F0953109F0B1CFF1
:1009100032C0F2E0083D1F0709F008F4AACFB70182
:1009200088E00E94D003B70180E20E94D003B701A3
:1009300088E00E94D003015010409BCFB7018DE0AA
:100940000E94D003C8EDD2E004C0B70189910E9493
:10095000D003C017D107C8F38CCFB70188E00E943D
:10096000D003B70180E20E94D003B70188E00E9463
:10097000D0030150104082E0083D180709F068F7E5
:1009800078CFB70188E00E94D003B70180E20E94CF
:10099000D003B70188E00E94D0038E01E2E0083D59
:1009A0001E0709F008F465CFE8018A91803249F703
:1009B00060CFE091D602F091D7028191F093D702F7
:1009C000E093D6028A3021F41092D7021092D60218
:1009D000282F30E002C02FEF3FEFC901DF91CF9108
:1009E0001F910F91FF90EF900895282F207F28B935
:1009F000409A429A20E43FE1F9013197F1F7429899
:100A00004098F9013197F1F790E074E0880F991F51
:100A10007A95E1F788B9409A429AC9010197F1F7AE
:100A200042984098C9010197F1F70895282F207F37
:100A300028B9429A20E43FE1F9013197F1F7429851
:100A4000F9013197F1F790E0E4E0880F991FEA95FA
:100A5000E1F788B9429AC9010197F1F74298C901B3
:100A60000197F1F7089581E00E941605089582E04C
:100A70000E94160508950F931F93CF93DF93062FBF
:100A8000009749F0EC0110E004C089910E94F50440
:100A90001F5F1017D0F3DF91CF911F910F91089531
:100AA000623031F0633031F0613029F4805C03C092
:100AB0008C5E01C08C5A80680E94160508951F93B1
:100AC000CF93DF93EC01862F642F0E94500510E036
:100AD00003C00E94F5041F5FFE01E10FF11D849128
:100AE0008823B9F7DF91CF911F910895EF92FF927C
:100AF0000F931F93CF93DF937C01162F110F110FCC
:100B0000110F1064C0E0D0E0F701EC0FFD1F04915D
:100B1000812F8C0F0E941605802F0E94F5042196CC
:100B2000C830D10589F7DF91CF911F910F91FF90C8
:100B3000EF9008951F93CF93DF9380E69AEE01978D
:100B4000F1F718B818B887B1806F87B987B1876097
:100B500087B980E388B9429A20E43FE1F9013197EF
:100B6000F1F74298F9013197F1F788B9429AC90132
:100B70000197F1F74298C9010197F1F780E288B92E
:100B8000429AC9010197F1F74298C9010197F1F71B
:100B900088E20E9416058CE00E941605CCE8D0E0A1
:100BA00060E0162F1F5FCE010E9476052896612F08
:100BB0001830B9F7DF91CF911F9108950F931F93CC
:100BC000082F10E004C08EE10E9416051F5F101769
:100BD000D0F31F910F9108950F931F93082F10E0EA
:100BE00004C088E10E9416051F5F1017D0F31F9103
:100BF0000F9108958EE00E94160508958FE00E94DF
:100C0000160508958CE00E941605089588E00E945C
:100C1000160508958CE00E94160508950F931F9302
:100C2000082F10E004C080E10E9416051F5F101716
:100C3000D0F31F910F9108950F931F93082F10E089
:100C400004C084E10E9416051F5F1017D0F31F91A6
:100C50000F910895DF92EF92FF920F931F93CF931E
:100C6000DF93D42E96E0899FC0011124242F30E019
:100C7000AC01429FC001439F900D529F900D1124E3
:100C800070E00E949312EB01CB0166E070E00E94DD
:100C90007F12E82EFF2400E010E012C0C801059684
:100CA000C817D90710F085E006C0C017D10710F0AB
:100CB0008E2D01C080E00E94F504F3940A5F1F4F5F
:100CC000FD1460F3DF91CF911F910F91FF90EF9092
:100CD000DF9008951F920F920FB60F920BB60F92EE
:100CE00011242F933F934F935F936F937F938F9331
:100CF0009F93AF93BF93EF93FF9384E00E947F0293
:100D000080910F04909110041816190674F58091C3
:100D1000FA039091FB03892B41F18091F8039091A4
:100D2000F903885E934054F48091F8039091F9039D
:100D300001969093F9038093F80317C01092F9037A
:100D40001092F80380910F049091100401979093F2
:100D5000100480930F0480910F0490911004892B4C
:100D600021F41092FB031092FA0384E00E949F0288
:100D7000FF91EF91BF91AF919F918F917F916F9173
:100D80005F914F913F912F910F900BBE0F900FBE2F
:100D90000F901F9018950E949A050E9402060E94CB
:100DA000330560E080E00E9450050895EAE7F0E036
:100DB000808187608083ACE7B0E08C9180648C9305
:100DC0008081806880838081806480830895909191
:100DD0007C00907F90937C0090917C00982B909366
:100DE0007C0080917A00806480937A0080917A0000
:100DF00086FDFCCF2091780030917900C9010895DB
:100E000011B812B88FEF87B918B88AB18C608AB957
:100E1000439A84E00E947F0210925304109252047D
:100E20001092FD031092FC031092100410920F0414
:100E30001092F9031092F8031092FB031092FA0338
:100E400084E00E949F020E94CB060E94330540E08E
:100E500060E08CEC90E00E945F0541E060E086ED90
:100E600090E00E945F05EAE7F0E080818760808380
:100E7000ACE7B0E08C9180648C9380818068808343
:100E800080818064808392E090936E0089EF87BDBB
:100E900083E085BD94BD78940895EF92FF920F93FF
:100EA0001F93CF93DF93C1E0D0E080917C00807FDF
:100EB00080937C0080917C0080937C0080917A00FC
:100EC000806480937A0080917A0086FDFCCFE09068
:100ED0007800F090790084E00E947F0283E090E047
:100EE000E80EF91E00E010E0C801B7010E94870A71
:100EF00026E636E646E050E40E9489090E94330A5D
:100F0000709353046093520480915204909153045F
:100F100097FF04C01092530410925204409152045F
:100F2000509153042091FC033091FD03C901A3E0CB
:100F3000880F991FAA95E1F7820F931F4817590749
:100F40001CF45B985A9A06C05B9A5A98D093FB039C
:100F5000C093FA0384E00E949F026091490470915B
:100F60004A0480914B0490914C04CB01772766276B
:100F7000E0908400F09085002091840030918500FD
:100F800040E050E0260F371F481F591F2C57314EA5
:100F90004F4F5F4F00E010E06E0D7F1D801F911FCF
:100FA0006E5B704F8F4F9F4F0E940B037ECFCF928F
:100FB000DF92EF92FF920F931F9387E68093C40016
:100FC00088E18093C10010922903109228031092A7
:100FD0002B0310922A038091C10080688093C10086
:100FE0006FEB71E07093590460935804709355044B
:100FF00060935404709357046093560480E091E02A
:101000000E94D10C109285001092840010928000F2
:1010100085E08093810082E080936F008FEA90E406
:101020009093480480934704109211041092120484
:101030001092490410924A0410924B0410924C04EE
:101040008FEF9FEFAFEFBFE780934D0490934E0477
:10105000A0934F04B09350048093190490931A0402
:10106000A0931B04B0931C04109215041092160454
:1010700010921704109218047894F89410923F0478
:101080007894F894109240047894F89481E08093D6
:101090004204789404EFC02E03E0D02E1AE1E12E32
:1010A00016E0F12E012D112D2AE136E040E050E04E
:1010B00068EE73E087EF98E00E941902B4E8EB2E27
:1010C000BEE1FB2E012D112D22E43FE040E050E077
:1010D00068EE73E089E798E00E94190222E43FE09D
:1010E00040E050E068EE73E08DE497E00E94190262
:1010F000FFCFCF92DF92EF92FF920F931F93CF9388
:10110000DF93CEEFD3E038E4C32E31E0D32E84E07A
:101110000E947F0280915204909153049F938F9379
:10112000DF92CF92DF93CF930E940D0D60E089E0B4
:101130000E945005FE0101900020E9F73197EC1B59
:10114000FD0B6E2F8EEF93E00E943B058091FC0318
:101150009091FD039F938F93DF92CF92DF93CF9374
:101160000E940D0D61E089E00E945005FE01019092
:101170000020E9F73197EC1BFD0B6E2F8EEF93E00B
:101180000E943B0584E00E949F0260914904709197
:101190004A0480914B0490914C04CB017727662739
:1011A000E0908400F09085002091840030918500CB
:1011B00040E050E0260F371F481F591F2C57314E73
:1011C0004F4F5F4F00E010E06E0D7F1D801F911F9D
:1011D0006E5B704F8F4F9F4F0E940B038DB79EB772
:1011E0000C960FB6F8949EBF0FBE8DBF90CF8F9216
:1011F0009F92AF92BF92CF92DF92EF92FF920F93A6
:101200001F93DF93CF9300D000D000D0CDB7DEB7CF
:101210000E9400074E010894811C911C8E010D5FF5
:101220001F4F62E5A62E61E0B62E54E6C52ED12CE6
:1012300040E1E42E4EE0F42E609156047091570484
:101240008EE390E00E94A50C9F928F921F930F93C4
:10125000BF92AF9280915404909155049F938F93C5
:101260000E94FA0C84E00E947F0267E571E0C801E9
:101270000E949C0C9C018DB79EB708960FB6F894FF
:101280009EBF0FBE8DBF232B99F489819A8197FF52
:1012900009C060915604709157048CE591E00E945A
:1012A000D10C06C089819A819093FD038093FC0341
:1012B00067E871E0C8010E949C0C0097B9F489812D
:1012C0009A8197FF09C060915604709157048CE889
:1012D00091E00E94D10C0AC089819A8190931004F8
:1012E00080930F041092F9031092F8036BEB71E0F6
:1012F000C8010E949C0C009741F4D0925304C09204
:101300005204F0921004E0920F0484E00E949F02C5
:1013100093CFA8E1B0E0EFE8F9E00C94AE12698356
:101320007A838B839C832D833E834F835887B9E0D8
:10133000EB2EF12CEC0EFD1EB701CE0101960E94A2
:10134000240C8E010F5E1F4FB801CE0105960E943E
:10135000240C2985223008F47CC03989323010F4FD
:10136000B8017AC08A859A8989278A87243011F042
:10137000223031F4231709F06CC06DEC71E06CC0C1
:10138000343039F41D861E861F86188A1C861B86FB
:1013900004C0323021F484E08987B7015DC02B8519
:1013A0003C858B899C89281B390B3C872B87ED84D6
:1013B000FE840F851889AD88BE88CF88D88CEA1442
:1013C000FB040C051D0540F4EE0CFF1C001F111F53
:1013D000215030403C872B8720E030E040E050E057
:1013E00080E090E0A0E0B0E46FE170E0EA14FB047C
:1013F0000C051D0540F0282B392B4A2B5B2BEA18D6
:10140000FB080C091D09B695A79597958795EE0CD5
:10141000FF1C001F111F6150704041F7DA01C90124
:101420008F779070A070B07080349105A105B105E0
:1014300061F427FD0AC0E114F1040105110529F04A
:10144000205C3F4F4F4F5F4F20782D873E874F875F
:10145000588BBE01675F7F4FCB010E944F0B689690
:10146000EAE00C94CA12ACE0B0E0E9E3FAE00C94D4
:10147000B61269837A838B839C83BE016B5F7F4F37
:10148000CE0101960E94240C8D81823061F1823060
:1014900050F1843021F48E81882351F12EC02F81A8
:1014A000388537FD20C06E812F3131051CF0662351
:1014B000F9F023C08EE190E0821B930B29853A85D9
:1014C0004B855C8504C056954795379527958A9539
:1014D000D2F76623B1F050954095309521953F4F56
:1014E0004F4F5F4F0EC020E030E040E050E009C0B9
:1014F0002FEF3FEF4FEF5FE704C020E030E040E028
:1015000050E8B901CA012C96E2E00C94D212A8E08E
:10151000B0E0EDE8FAE00C94B0127B018C016115AB
:1015200071058105910519F482E0898360C083E02B
:1015300089838EE1C82ED12CDC82CB82ED82FE82A3
:101540000F831887C801B7010E94000BBC016150CE
:10155000704077FF39C0EE27FF27E61BF70B20E02E
:1015600030E040E050E081E090E0A0E0B0E00E2EFE
:1015700004C0880F991FAA1FBB1F0A94D2F70197B6
:10158000A109B1098E219F21A023B1230097A105B4
:10159000B10521F021E030E040E050E004C01695B4
:1015A0000795F794E794EA95D2F72E293F29402B27
:1015B000512B2D833E834F8358878EE190E0861B0D
:1015C000970B9C838B8313C06115710581F0062EE8
:1015D00004C0EE0CFF1C001F111F0A94D2F7ED820D
:1015E000FE820F831887C61AD70ADC82CB821A8242
:1015F000CE0101960E944F0B2896E8E00C94CC1285
:10160000EF92FF920F931F937B018C0180E0E8160D
:1016100080E0F80681E0080780E0180788F48FEF83
:10162000E816F1040105110531F028F088E090E09A
:10163000A0E0B0E017C080E090E0A0E0B0E012C011
:1016400080E0E81680E0F80680E0080781E01807EF
:1016500028F088E190E0A0E0B0E004C080E190E0F4
:10166000A0E0B0E020E230E040E050E0281B390B81
:101670004A0B5B0B04C016950795F794E7948A957F
:10168000D2F7F701EB52FE4F8081281B3109410947
:101690005109C9011F910F91FF90EF900895DF92BA
:1016A000EF92FF920F931F93FC01E480F580068177
:1016B0001781D1808081823048F480E090E0A0E101
:1016C000B0E0E82AF92A0A2B1B2BA5C0843009F4C4
:1016D0009FC0823021F4EE24FF24870105C0E1146D
:1016E000F1040105110519F4E0E0F0E096C0628113
:1016F00073819FEF623879070CF05BC022E83FEFFF
:10170000261B370B2A3131052CF020E030E040E079
:1017100050E02AC0B801A701022E04C07695679553
:10172000579547950A94D2F781E090E0A0E0B0E0A9
:1017300004C0880F991FAA1FBB1F2A95D2F70197D3
:10174000A109B1098E219F21A023B1230097A105F2
:10175000B10521F081E090E0A0E0B0E09A01AB019A
:10176000282B392B4A2B5B2BDA01C9018F7790701C
:10177000A070B07080349105A105B10539F427FF40
:1017800009C0205C3F4F4F4F5F4F04C0215C3F4F6B
:101790004F4F5F4FE0E0F0E02030A0E03A07A0E0DC
:1017A0004A07A0E45A0710F0E1E0F0E079018A016D
:1017B00027C06038710564F5FB01E158FF4FD8017F
:1017C000C7018F779070A070B07080349105A1052B
:1017D000B10539F4E7FE0DC080E490E0A0E0B0E090
:1017E00004C08FE390E0A0E0B0E0E80EF91E0A1F0D
:1017F0001B1F17FF05C016950795F794E7943196C0
:1018000087E016950795F794E7948A95D1F705C078
:10181000EE24FF248701EFEFF0E06E2F6795662737
:101820006795902F9F77D794DD24D7948E2F869538
:10183000492F462B582F5D29B701CA011F910F91DF
:10184000FF90EF90DF900895FC01DB014081518112
:101850002281622F6F7770E0221F2227221F93813F
:10186000892F880F822B282F30E0991F9927991FE5
:1018700011969C93119721153105A9F54115510534
:101880006105710511F482E037C082E89FEF13967D
:101890009C938E9312979A01AB0167E0220F331F3E
:1018A000441F551F6A95D1F783E08C930DC0220F1A
:1018B000331F441F551F12968D919C9113970197CA
:1018C00013969C938E931297203080E0380780E027
:1018D000480780E4580758F314962D933D934D9391
:1018E0005C93179708952F3F310579F44115510501
:1018F0006105710519F484E08C93089564FF03C0B9
:1019000081E08C9312C01C9210C02F573040139668
:101910003C932E93129783E08C9387E0440F551FDE
:10192000661F771F8A95D1F7706414964D935D9367
:101930006D937C9317970895FB01DC018D910190C5
:1019400080190110D9F3990B08950F931F93CF932A
:10195000DF938C01EB018B8181FF1BC082FF0DC0E7
:101960002E813F818C819D812817390764F4E8819D
:10197000F9810193F983E88306C0E885F985802F12
:101980000995892B31F48E819F8101969F838E83E7
:1019900002C00FEF1FEFC801DF91CF911F910F9190
:1019A0000895EF92FF920F931F93CF93DF937C01E3
:1019B0008B01DB0113968C9181FD03C0CFEFDFEF2C
:1019C00013C0C0E0D0E00BC0D8011896ED91FC9197
:1019D0001997B8010995892B11F0CFEFDFEFF701C7
:1019E00081917F01882381F7CE01CDB7DEB7E6E094
:1019F0000C94CE12A0E0B0E0E0E0FDE00C94B61252
:101A0000CE010996AC016F8178858D819E810E94FF
:101A100093102096E2E00C94D212AEE0B0E0E3E145
:101A2000FDE00C94B4120D891E8986E08C831A8324
:101A300009838FEF9FE79E838D83CE014996AC018A
:101A40006F89788DCE0101960E94300D2F813885E7
:101A5000020F131FF80110822E96E4E00C94D012AE
:101A6000ABE0B0E0E6E3FDE00C94A6123C012B01F4
:101A70005A01FC0117821682838181FD03C06FEF3A
:101A80007FEFC8C19AE0892E1E010894211C311CE9
:101A9000F3012381F20123FD859123FF81912F0121
:101AA000882309F4B4C1853239F423FD859123FFDD
:101AB00081912F01853229F4B30190E00E94A50C99
:101AC000E7CF982FDD24CC249924FFE1FD15D0F039
:101AD0009B3269F09C3228F4903259F0933291F4A1
:101AE0000EC09D3249F0903369F441E024C052E0C9
:101AF000D52A84E0D82A28C098E0D92A25C0E0E178
:101B0000DE2A22C0D7FC29C0892F80538A3070F486
:101B1000D6FE05C0989C902C1124980E15C0C89C28
:101B2000C02C1124C80EF0E2DF2A0EC09E3229F428
:101B3000D6FC6DC140E4D42A07C09C3619F450E8A5
:101B4000D52A02C0983649F4F20123FD959123FF6E
:101B500091912F01992309F0B8CF892F85548330B3
:101B600018F08052833038F444E050E0A40EB51EE3
:101B70005FE359830FC0933631F0933779F0933593
:101B800009F056C020C0F5018081898342E050E011
:101B9000A40EB51E710101E010E012C0F501E08055
:101BA000F180D6FC03C06FEF7FEF02C0692D70E0BB
:101BB00042E050E0A40EB51EC7010E94BA118C018C
:101BC0005FE7D52214C0F501E080F180D6FC03C0A8
:101BD0006FEF7FEF02C0692D70E042E050E0A40E8D
:101BE000B51EC7010E94AF118C0150E8D52AD3FE63
:101BF00007C01AC0B30180E290E00E94A50CCA940D
:101C00008C2D90E008171907A8F30EC0F701D7FC38
:101C10008591D7FE81917F01B30190E00E94A50CD0
:101C2000C110CA94015010400115110579F7ECC09C
:101C3000943611F0993671F5D7FE08C0F501E080B1
:101C4000F1800281138144E050E00AC0F5018081F7
:101C500091817C010027F7FC0095102F42E050E0B5
:101C6000A40EB51E5FE6D52217FF0AC01095009599
:101C7000F094E094E11CF11C011D111D80E8D82AAC
:101C80002AE030E0A101C801B7010E942112F82E1C
:101C9000F21840C0953729F41D2D1F7E2AE030E050
:101CA0001DC01D2D197F9F3661F0903720F49835A7
:101CB00009F0ADC00FC0903739F0983709F0A7C0D0
:101CC00004C028E030E00AC0106114FD146020E177
:101CD00030E004C014FD166020E132E017FF08C0B8
:101CE000F501608171818281938144E050E008C0F8
:101CF000F50180819181BC0180E090E042E050E0FC
:101D0000A40EB51EA1010E942112F82EF2188FE731
:101D1000D82ED122D6FE0BC05EEFD522F91438F4AE
:101D2000D4FE07C0D2FC05C08FEED82202C01F2D02
:101D300001C0192DD4FE0DC0FE01EF0DF11D8081F3
:101D4000803319F499EED92208C01F5FD2FE05C076
:101D500003C08D2D867809F01F5F0D2DD3FC14C0B4
:101D6000D0FE0FC01C1510F09F2C0BC09F2C9C0C9C
:101D7000911A1C2D06C0B30180E290E00E94A50CD0
:101D80001F5F1C15C0F304C01C1510F4C11A01C05C
:101D9000CC2404FF10C0B30180E390E00E94A50CA6
:101DA00002FF1EC001FD03C088E790E002C088E585
:101DB00090E0B3010CC0802F867891F001FF02C043
:101DC0008BE201C080E2D7FC8DE2B30190E00E947B
:101DD000A50C06C0B30180E390E00E94A50C9A9484
:101DE000F914C0F3FA94F101EF0DF11DB3018081F4
:101DF00090E00E94A50CFF20A9F706C0B30180E285
:101E000090E00E94A50CCA94CC20C1F741CEF3010A
:101E100066817781CB012B96E2E10C94C212FC0122
:101E200020FD08C023FD05C022FF02C0738362832A
:101E3000518340830895EF92FF920F931F9344FFC5
:101E400002C033E011C046FF02C034E00DC0DB0128
:101E5000FC01AA0FBB1FEE1FFF1F1094D1F76A0FE2
:101E60007B1F8E1F9F1F31E0660F771F881F991FF2
:101E70003150D1F77B018C01E20EF11C011D111DC7
:101E8000A8019701B701CA011F910F91FF90EF9030
:101E900008950F931F93CF93DF938C01C8010E9485
:101EA000C511EC0197FD08C00E94DD12892BB1F726
:101EB000B801CE010E940712CE01DF91CF911F9190
:101EC0000F910895A0E0B0E0E8E6FFE00C94AE12B8
:101ED000EC01C62E5A01122F0E94C511AC018B32A3
:101EE00019F08D3251F41068CA9409F46DC0CE0116
:101EF0000E94C511AC0197FD67C06DEFD62ED122AF
:101F00008D2D807301F54033F1F4CA9409F447C074
:101F1000CE010E94C511AC0197FD41C082E0D82AD4
:101F2000483711F0483559F480E4D82ACA94B9F1F9
:101F3000CE010E94C511AC0199232CF430C0D6FC0F
:101F400002C080E1D82AEE24FF248701242F2053E9
:101F5000283088F0D4FC09C02A3068F0D6FE05C0CD
:101F60002F7D822F8151863028F0BE01CA010E9448
:101F7000071212C027504D2DC801B7010E941B0F38
:101F80007B018C0182E0D82ACA9461F0CE010E94C4
:101F9000C511AC0197FFDACFD1FC04C015C0EE2407
:101FA000FF248701D7FE08C010950095F094E094B7
:101FB000E11CF11C011D111D2D2DB801A701C5014A
:101FC0000E940F0F81E001C080E0CDB7DEB7EAE0EC
:101FD0000C94CA12A0E2B0E0E0EFFFE00C94AA1269
:101FE0006C01A62E8A017901FE01319680E2DF01A3
:101FF0001D928A95E9F770E030E060E040E050E043
:102000004F01A1E0B0E0F6018381F70183FD259146
:1020100083FF21917F01222309F47EC02E3519F41C
:102020004115510569F1872F90E08417950744F415
:102030002D3551F12D3221F4332329F431E021C023
:10204000332309F4622F322F832F86958695869548
:10205000F401E80FF11D832F87703D0102C0660C6B
:10206000771C8A95E2F7208126292083361711F400
:1020700030E007C0361710F43F5FE6CF3150E4CFB1
:1020800071E04F5F5F4FBFCF332319F08E818062C5
:102090008E83772359F0FE0131969E012F5D3F4FCD
:1020A000808180958193E217F307D1F7BB24B39425
:1020B0004E010894811C911CC6010E94C511AC01FF
:1020C00097FD22C0869586958695F401E80FF11D4F
:1020D000808190E09A012770307002C095958795B5
:1020E0002A95E2F780FD05C0B601CA010E940712D9
:1020F0000BC00115110519F0D8014D938D01AA945B
:10210000BB24AA20C9F602C0BB2031F40115110579
:1021100029F0F801108202C0EE24FF24C701A09626
:10212000EEE00C94C612A0E0B0E0E9E9F0E10C9416
:10213000AA125C016B013A01FC0117821682882405
:10214000EAC0812F90E00E94DD12892B21F0C501A9
:102150000E94490FE0C0153249F4F601F3FC659185
:10216000F3FE61916F01653269F415E2C5010E94C9
:10217000C51197FDDCC0181709F4CDC0B5010E9448
:102180000712DAC06A3219F0162F00E006C0F3FC1D
:102190001591F3FE11916F0101E099240FC00260C7
:1021A000692D70E080E090E040E20E941B0F962EC7
:1021B000F601F3FC1591F3FE11916F01212F2053CD
:1021C0002A3068F301FD03C099249A9403C0992032
:1021D00009F4B2C0183621F01C3699F4F6010BC090
:1021E000F601F3FC6591F3FE6191683619F06F0119
:1021F000162F07C008600460F3FC1591F3FE1191DF
:102200006F01112309F498C0612F70E080EE90E017
:102210000E94A411892B09F48FC0802F00FF03C0F6
:10222000EE24FF2407C0F301E080F18022E030E0DB
:10223000620E731E1E3651F4F5014681578160E02F
:1022400070E0202FC7010E940F0F65C0133691F474
:1022500081FD02C099249394C5010E94C51197FD88
:1022600066C0E114F10419F0F70181937F019A949B
:1022700099F74FC01B3559F49601A701692DC50187
:102280000E94EA0F6C01009709F043C03DC0C501F0
:102290000E94490F97FD4BC01F3659F1103728F4A3
:1022A000143629F1193639F527C0133719F01537C7
:1022B00011F51DC0C5010E94C511EC0197FD11C0AB
:1022C0000E94DD12892B29F0B501CE010E94071270
:1022D00008C0E114F10419F0F701C1937F019A9449
:1022E00049F7E114F104A9F0F701108212C000626D
:1022F00003C0006101C00064202FA701692DC50142
:102300000E94620F882329F4F5018381807379F498
:1023100013C000FF8394F501F380F601F3FC1591DF
:10232000F3FE11916F01112309F00BCF05C0882036
:1023300019F42FEF3FEF02C0282D30E0C901CDB7CF
:10234000DEB7EEE00C94C612FC010590061621F0F3
:102350000020D9F7C00108953197CF010895FC01FD
:102360000590615070400110D8F7809590958E0FC0
:102370009F1F0895FC016150704001900110D8F733
:10238000809590958E0F9F1F0895CF93DF93EC015A
:102390004B8140FF1AC046FF0AC04F7B4B838E81A2
:1023A0009F8101969F838E838A81282F2BC042FFB5
:1023B00013C0E881F9818081282F332727FD3095CC
:1023C0002115310529F440624B832FEF3FEF1BC0ED
:1023D0003196F983E88311C0EA85FB85CE01099522
:1023E0009C0197FF0AC09B812F5F3F4F11F080E255
:1023F00001C080E1892B8B83E8CF8E819F8101967C
:102400009F838E8330E0C901DF91CF9108959C01B5
:10241000FB01838180FF11C086FD0FC09FEF2F3F1E
:10242000390759F0228380648F7D83838681978169
:1024300001979783868330E002C02FEF3FEFC901F9
:102440000895FA01AA27283051F1203181F1E8944A
:102450006F936E7F6E5F7F4F8F4F9F4FAF4FB1E097
:102460003ED0B4E03CD0670F781F891F9A1FA11D92
:10247000680F791F8A1F911DA11D6A0F711D811D93
:10248000911DA11D20D009F468943F912AE0269F58
:1024900011243019305D3193DEF6CF010895462FB7
:1024A0004770405D4193B3E00FD0C9F7F6CF462F98
:1024B0004F70405D4A3318F0495D31FD4052419301
:1024C00002D0A9F7EACFB4E0A695979587957795BE
:1024D0006795BA95C9F700976105710508959B0145
:1024E000AC010A2E06945795479537952795BA95CE
:1024F000C9F7620F731F841F951FA01D0895AA1BA3
:10250000BB1B51E107C0AA1FBB1FA617B70710F0DE
:10251000A61BB70B881F991F5A95A9F78095909510
:10252000BC01CD01089597FB092E07260AD077FD3F
:1025300004D0E5DF06D000201AF4709561957F4F36
:102540000895F6F7909581959F4F08952F923F92A9
:102550004F925F926F927F928F929F92AF92BF92B3
:10256000CF92DF92EF92FF920F931F93CF93DF935F
:10257000CDB7DEB7CA1BDB0B0FB6F894DEBF0FBEBC
:10258000CDBF09942A88398848885F846E847D8409
:102590008C849B84AA84B984C884DF80EE80FD800B
:1025A0000C811B81AA81B981CE0FD11D0FB6F89481
:1025B000DEBF0FBECDBFED010895911106C0803280
:1025C00019F089508550D0F70895992788270895E4
:0425D000F894FFCFAD
:1025D4000A0D2057656C636F6D6520746F204B691D
:1025E400746368656E426F74205549200A0D20504B
:1025F4006C6561736520696E70757420796F75728E
:1026040020696E737472756374696F6E732062658A
:102614006C6F770A0D0A0D002569432020202020C5
:102624002000257325750074656D7000506C65611C
:10263400736520696E707574206120706F7369749E
:102644006976652074656D70657261747572652054
:1026540076616C75652E0074696D6500506C6561FA
:10266400736520696E707574206120706F7369746E
:102674006976652074696D652076616C756520697D
:102684006E207365636F6E64732E00656767000068
:1026940000000300000000D0032904000000000033
:1026A4000000000000000102020303030304040409
:1026B40004040404040505050505050505050505CB
:1026C40005050505050606060606060606060606AB
:1026D4000606060606060606060606060606060696
:1026E400060606060607070707070707070707077B
:1026F4000707070707070707070707070707070766
:102704000707070707070707070707070707070755
:102714000707070707070707070707070707070745
:10272400070707070708080808080808080808082A
:102734000808080808080808080808080808080815
:102744000808080808080808080808080808080805
:1027540008080808080808080808080808080808F5
:1027640008080808080808080808080808080808E5
:1027740008080808080808080808080808080808D5
:1027840008080808080808080808080808080808C5
:1027940008080808080808080808080808080808B5
:0627A40008080808080007
:00000001FF
