:100000000C9476000C9495000C9495000C9495003B
:100010000C9495000C9495000C9495000C9495000C
:100020000C9495000C9495000C9495000C949500FC
:100030000C9495000C9497000C9495000C949500EA
:100040000C94C1070C9495000C9495000C949500A9
:100050000C94FC030C9488030C9495000C9495006C
:100060000C9495000C9495000C9495000C949500BC
:100070000C9495000C9495000C9495000C949500AC
:100080000C9495000C9495000C949500001F0000B2
:1000900000001F00001F101010101F00001F181874
:1000A00018181F00001F1C1C1C1C1F00001F1E1EF8
:1000B0001E1E1F00001F1F1F1F1F1F0003070F1FF3
:1000C0000F070300181C1E1F1E1C180043757272B8
:1000D000656E743A0000446573697265643A0000A5
:1000E0006364696E6F70737578585B0011241FBE6E
:1000F000CFEFD0E4DEBFCDBF13E0A0E0B1E0EEE68D
:10010000F6E200E00BBF02C007900D92A232B107E9
:10011000D9F714E0A2E2B3E001C01D92A63AB107FC
:10012000E1F70E94DD060C9435130C9400001F9239
:100130000F920FB60F920BB60F9211242F923F928F
:100140004F925F926F927F928F929F92AF92BF92E7
:10015000CF92DF92EF92FF920F931F932F933F93D3
:100160004F935F936F937F938F939F93AF93BF93BF
:10017000CF93DF93EF93FF9310926F0050905E0444
:10018000B09B14C08091950490919604A09197041F
:10019000B09198040196A11DB11D80939504909390
:1001A0009604A0939704B0939804B09A8091840029
:1001B000909185003C018824992480919504909128
:1001C0009604A0919704B0919804DC0199278827A0
:1001D000680E791E8A1E9B1E40905D0470E061E0EF
:1001E000FFEFAF2EFFEFBF2EFFEFCF2EFFE7DF2E8B
:1001F000EBE02E2E33243394CBE0D0E043C0629D5D
:10020000D0011124A15ABB4F1A968C911A978230B3
:10021000A1F41296ED90FD900D911C9115976E141E
:100220007F048006910620F01A963C921A9705C02A
:10023000EA14FB040C051D0510F0860175011A96E1
:100240008C911A978130D9F4872F90E08C9FF00120
:100250008D9FF00D9C9FF00D1124E35AFB4F1696D5
:100260002D913D914D915C91199780859185A28545
:10027000B385281739074A075B0708F4762F6F5FA5
:1002800057016801461608F0BACF7515B1F0EBE0DA
:100290005E9ED0011124A15ABB4F8DB78C938EB7AF
:1002A00011968C937E9FF0011124E15AFB4F8181BE
:1002B0008EBF80818DBF70935E04A0929904B0922E
:1002C0009A04C0929B04D0929C04209184003091A7
:1002D000850040E050E08091950490919604A091B3
:1002E0009704B0919804DC0199278827280F391FBB
:1002F0004A1F5B1FD601C501821B930BA40BB50BD4
:100300009C01AD0184309105A105B10524F424E0E0
:1003100030E040E050E08091840090918500A0E0C2
:10032000B0E0820F931FA41FB51F80509040A140E2
:10033000B04038F48091840090918500820F931F23
:100340000EC080918400909185008C5F9F4F28F4AF
:10035000109289001092880006C084E090E090938B
:1003600089008093880082E080936F00FF91EF9175
:10037000DF91CF91BF91AF919F918F917F916F91BD
:100380005F914F913F912F911F910F91FF90EF90AF
:10039000DF90CF90BF90AF909F908F907F906F90A5
:1003A0005F904F903F902F900F900BBE0F900FBE1D
:1003B0000F901F9018951092850010928400109253
:1003C000800025E02093810022E020936F002FEF32
:1003D00030E4281B390B309394042093930410923B
:1003E0005D0410925E04109295041092960410928F
:1003F0009704109298048FEF9FEFAFEFBFE78093C1
:10040000990490939A04A0939B04B0939C048093C6
:10041000650490936604A0936704B09368041092F7
:100420006104109262041092630410926404789440
:1004300008958F929F92AF92BF92CF92DF92EF92E8
:10044000FF920F931F93CF93DF9349015A01F894C2
:1004500020915D042F5F20935D04C0919304D0919F
:1004600094049E01261B370B30939404209393042D
:100470008883FE0192933197DF01CE014C971C9245
:100480001197A817B907D9F77A97C082D2923197F6
:10049000DF019E01245230401C921197A217B3072E
:1004A000D9F79F0126503040E0915D048BE0E89F32
:1004B000F0011124E15AFB4F82829382A482B5821B
:1004C000E682F7820087118782E08287208331836A
:1004D0000E949700DF91CF911F910F91FF90EF90B5
:1004E000DF90CF90BF90AF909F908F900895F89439
:1004F000EDE5F4E0E80FF11D65A778940895482F25
:1005000020915E04F894E82FF0E0E657FB4F8081DD
:10051000882319F08150808310C030E08BE090E098
:10052000289FF001299FF00D389FF00D1124E15A0A
:10053000FB4F4E5F42870E94970078940895FF9288
:100540000F931F93182FF89400915D04E1E04FEF93
:100550005FEF6FEF7FEFF0E08BE0F82E212F30E0C0
:100560002E5F3F4F1EC0EF9DD0011124A15ABB4FFB
:100570001A968C911A9790E08217930769F4169651
:100580008D919D910D90BC91A02D481759076A0738
:100590007B0710F0FE2F02C0DB01CA01EF5FAC0148
:1005A000BD010E1700F7FF2341F4E12FF0E0E45AFC
:1005B000FB4F86A58F5F86A711C02F2F30E08BE001
:1005C00090E0289FF001299FF00D389FF00D112435
:1005D000E35AFB4F81E084870E94970078941F9133
:1005E0000F91FF900895209184003091850040E0A4
:1005F00050E08091950490919604A0919704B09159
:100600009804DC0199278827280F391F4A1F5B1F90
:10061000B901CA010895E0915E04ABE0EA9FF001E0
:100620001124E15AFB4FF894A2E0A28762837383FE
:100630008483958326833783408751870E94970060
:10064000089580915E0490E02BE030E0829FF001FD
:10065000839FF00D929FF00D1124E35AFB4FDF01B1
:100660001496648111967C91119712968C91129731
:1006700013969C91089580915E0490E02BE030E009
:10068000829FF001839FF00D929FF00D1124E35A99
:10069000FB4FDF011896608511967C911197129699
:1006A0008C91129713969C910895F89480915E0412
:1006B00090E02BE030E0829FF001839FF00D929F4D
:1006C000F00D1124E35AFB4F14860E949700089501
:1006D000F894E82FF0E0E657FB4F8081882319F06B
:1006E000815080838F5F7894089587E68093C4005B
:1006F000E1ECF0E088E180831092750310927403BE
:100700001092770310927603808180688083089529
:100710001F920F920FB60F920BB60F9211242F93C8
:100720003F938F939F93EF93FF93209174033091A6
:10073000750380917603909177032817390731F478
:100740008091C1008F7D8093C1001DC0E091760330
:10075000F0917703E858FC4F80818093C600809128
:1007600076039091770301969093770380937603B5
:100770008091760390917703883C910521F4109243
:10078000770310927603FF91EF919F918F913F91A4
:100790002F910F900BBE0F900FBE0F901F901895CA
:1007A0001F93182F8A3019F48DE00E94D003809196
:1007B0007403909175038F5F883C09F480E0E091A9
:1007C0007403F0917503E858FC4F1083282F30E034
:1007D000809176039091770328173907C9F33093F6
:1007E0007503209374038091C10080628093C100DF
:1007F00080E090E01F9108951F920F920FB60F9224
:100800000BB60F9211242F933F934F935F936F93E7
:100810007F938F939F93AF93BF93EF93FF938091B9
:10082000C60080939D0481E00E949F02FF91EF919A
:10083000BF91AF919F918F917F916F915F914F91F8
:100840003F912F910F900BBE0F900FBE0F901F90F6
:100850001895EF92FF920F931F93CF93DF937C0134
:100860008091220390912303892B09F0A1C004E217
:1008700013E081E00E947F028091C00084FF03C0EA
:100880002EEF3FEFA9C08091C00083FDA3C09091DF
:100890009D049D3011F09A3081F48AE0F801808344
:1008A000B7010E94D00384E293E0909323038093E6
:1008B000220382E00E949F027BC0993009F490E2FB
:1008C000892F80528F3510F0903A70F0F3E00337A3
:1008D0001F0711F487E004C0F80191938F01892F5D
:1008E000B7010E94D003C5CF923139F1933138F46A
:1008F000933009F46FC0983009F0BBCF09C097312D
:1009000009F44BC09F3721F0953109F0B2CF32C0C6
:10091000F3E004321F0709F008F4ABCF88E0B70119
:100920000E94D00380E2B7010E94D00388E0B701A3
:100930000E94D003015010409CCF8DE0B7010E946F
:10094000D003C4E2D3E004C08991B7010E94D00370
:10095000C017D107C8F38DCF88E0B7010E94D0033C
:1009600080E2B7010E94D00388E0B7010E94D00363
:100970000150104083E00432180709F068F779CF7E
:1009800088E0B7010E94D00380E2B7010E94D00343
:1009900088E0B7010E94D0038E01E3E004321E0715
:1009A00009F008F466CFE8018A91803249F761CFF7
:1009B000E0912203F09123038191F0932303E093CC
:1009C00022038A3021F41092230310922203282F4D
:1009D00030E002C02FEF3FEFC901DF91CF911F91AF
:1009E0000F91FF90EF900895282F207F28B9409A0B
:1009F000429A20E43FE1F9013197F1F7429840989B
:100A0000F9013197F1F790E074E0880F991F7A951A
:100A1000E1F788B9409A429AC9010197F1F74298E3
:100A20004098C9010197F1F70895282F207F28B930
:100A3000429A20E43FE1F9013197F1F74298F90138
:100A40003197F1F790E0E4E0880F991FEA95E1F71C
:100A500088B9429AC9010197F1F74298C9010197F3
:100A6000F1F7089581E00E941505089582E00E9443
:100A7000150508950F931F93CF93DF93062F0097CB
:100A800049F0EC0110E004C089910E94F4041F5F5A
:100A90001017D0F3DF91CF911F910F91089562301D
:100AA00031F0633031F0613029F4805C03C08C5E3A
:100AB00001C08C5A80680E94150508951F93CF933A
:100AC000DF93EC01862F642F0E944F0510E003C0D6
:100AD0000E94F4041F5FFE01E10FF11D8491882341
:100AE000B9F7DF91CF911F910895EF92FF920F9385
:100AF0001F93CF93DF937C01162F110F110F110F4E
:100B00001064C0E0D0E0F701EC0FFD1F0491812FCD
:100B10008C0F0E941505802F0E94F4042196C83086
:100B2000D10589F7DF91CF911F910F91FF90EF9041
:100B300008951F93CF93DF9380E69AEE0197F1F724
:100B400018B818B887B1806F87B987B1876087B93F
:100B500080E388B9429A20E43FE1F9013197F1F747
:100B60004298F9013197F1F788B9429AC901019782
:100B7000F1F74298C9010197F1F780E288B9429AEA
:100B8000C9010197F1F74298C9010197F1F788E28D
:100B90000E9415058CE00E941505CCE8D0E060E0CD
:100BA000162F1F5FCE010E9475052896612F183001
:100BB000B9F7DF91CF911F9108950F931F93082FDD
:100BC00010E004C08EE10E9415051F5F1017D0F3DE
:100BD0001F910F9108950F931F93082F10E004C0E9
:100BE00088E10E9415051F5F1017D0F31F910F9128
:100BF00008958EE00E94150508958FE00E94150566
:100C000008958CE00E941505089588E00E9415055E
:100C100008958CE00E94150508950F931F93082FE7
:100C200010E004C080E10E9415051F5F1017D0F38B
:100C30001F910F9108950F931F93082F10E004C088
:100C400084E10E9415051F5F1017D0F31F910F91CB
:100C50000895DF92EF92FF920F931F93CF93DF934C
:100C6000D42E96E0899FC0011124242F30E0AC01DE
:100C7000429FC001439F900D529F900D112470E040
:100C80000E948B0CEB01CB0166E070E00E94770CB8
:100C9000E82EFF2400E010E012C0C8010596C81736
:100CA000D90710F085E006C0C017D10710F08E2DCF
:100CB00001C080E00E94F404F3940A5F1F4FFD140A
:100CC00060F3DF91CF911F910F91FF90EF90DF9034
:100CD00008950E9499050E9401060E94320580E055
:100CE00060E00E944F050895EAE7F0E080818760A8
:100CF0008083ACE7B0E08C9180648C9380818068C5
:100D00008083808180648083089590917C00907FAF
:100D100090937C0090917C00982B90937C00809124
:100D20007A00806480937A0080917A0086FDFCCFFF
:100D30002091780030917900C901089511B812B856
:100D40008FEF87B918B88AB18C608AB9439A84E06A
:100D50000E947F0210929F0410929E0410924904F8
:100D60001092480410925C0410925B0410924504A7
:100D700010924404109247041092460484E00E94AA
:100D80009F020E9469060E9432058CEC90E060E0B0
:100D900040E00E945E0586ED90E060E041E00E9448
:100DA0005E050E94740692E090936E0089EF87BD05
:100DB00083E085BD94BD78940895CF92DF92EF9241
:100DC000FF920F931F930E9475036BE072E0709384
:100DD000A5046093A4047093A1046093A00470938D
:100DE000A3046093A20480E091E00E940A0D80E5D4
:100DF00090E00E94DB01F89410928B047894F894B0
:100E000010928C047894F89481E080938E04789406
:100E100082EC98E060ED77E02AE136E040E050E0D7
:100E2000EAE1EE2EE6E0FE2E012D112DB0E4CB2EF0
:100E3000B4E0DB2E0E9419028AE298E060ED77E0D0
:100E400022E43FE040E050E0A4E8EA2EAEE1FA2ED2
:100E5000012D112D0E9419028DE397E060ED77E0DE
:100E600022E13AE740E050E0F4E2EF2EF4EFFF2E0B
:100E7000012D112D0E941902FFCFEF92FF920F93C7
:100E80001F93CF93DF93C1E0D0E080E00E948506FE
:100E90007C0184E00E947F0283E090E0E80EF91E6E
:100EA00000E010E0C801B7010E94620A26E636E6BB
:100EB00046E050E40E9462090E940E0A70939F046B
:100EC00060939E0480919E0490919F0497FF04C0BC
:100ED00010929F0410929E0420919E0430919F04D2
:100EE0008091480490914904281739071CF45B98B5
:100EF0005A981AC05B9A5A9A809148049091490472
:100F0000892B91F08091460490914704892B41F4FC
:100F10006091A2047091A3048DE691E00E940A0DF5
:100F2000D0934704C093460484E00E949F0220911E
:100F30009504309196044091970450919804A9012A
:100F4000332722276091840070918500E09084000F
:100F5000F090850080E090E0620F731F841F951F62
:100F60006E5E75488F4F9F4F00E010E02E0D3F1DC5
:100F7000401F511F2C5D3B404F4F5F4F0E940B03A2
:100F800084CF1F920F920FB60F920BB60F921124BF
:100F90002F933F934F935F936F937F938F939F9381
:100FA000AF93BF93EF93FF9384E00E947F02809101
:100FB0005B0490915C0418161906B4F58091460400
:100FC00090914704892B81F18091440490914504CC
:100FD000885E934054F480914404909145040196B6
:100FE00090934504809344041FC0109245041092CE
:100FF000440480915B0490915C04019790935C049D
:1010000080935B0480915B0490915C04892B61F474
:1010100010924704109246046091A2047091A304B8
:101020008EE791E00E940A0D84E00E949F02FF91EA
:10103000EF91BF91AF919F918F917F916F915F9150
:101040004F913F912F910F900BBE0F900FBE0F90BD
:101050001F901895CF92DF92EF92FF920F931F93FC
:10106000CF93DF93CAE4D4E0B0E9CB2EB1E0DB2E1E
:1010700084E00E947F0280919E0490919F0400D0A2
:1010800000D000D0EDB7FEB73196ADB7BEB712961F
:10109000DC93CE931197D382C282958384830E947E
:1010A000460D8DB79EB706960FB6F8949EBF0FBE3D
:1010B0008DBF89E060E00E944F05FE010190002095
:1010C000E9F73197EC1BFD0BCE016E2F0E943A051C
:1010D000809148049091490400D000D000D0EDB731
:1010E000FEB73196ADB7BEB71296DC93CE9311978B
:1010F000D382C282958384830E94460D8DB79EB7AA
:1011000006960FB6F8949EBF0FBE8DBF89E061E0D2
:101110000E944F05FE0101900020E9F73197EC1B7A
:10112000FD0BCE016E2F0E943A0584E00E949F02C3
:101130002091950430919604409197045091980421
:10114000A901332722276091840070918500E090E7
:101150008400F090850080E090E0620F731F841F90
:10116000951F6E5B704F8F4F9F4F00E010E02E0D6C
:101170003F1D401F511F2C57314E4F4F5F4F0E9454
:101180000B0376CF8F929F92AF92BF92CF92DF9256
:10119000EF92FF920F931F93DF93CF9300D000D075
:1011A00000D0CDB7DEB70E949E062AE9822E21E04C
:1011B000922E8E010D5F1F4F5E010894A11CB11C81
:1011C00094E6C92ED12C80E1E82E8EE0F82E6091B5
:1011D000A2047091A3048EE390E00E94DE0C8DB710
:1011E0009EB708970FB6F8949EBF0FBE8DBFEDB7A0
:1011F000FEB731968091A0049091A104ADB7BEB71F
:1012000012969C938E931197938282821583048306
:10121000B782A6820E94350D8DB79EB708960FB68D
:10122000F8949EBF0FBE8DBF84E00E947F02C8016C
:101230006FE971E00E94D50C009799F489819A8139
:1012400097FF09C06091A2047091A30484EA91E021
:101250000E940A0D06C089819A8190934904809367
:101260004804C80161ED71E00E94D50C0097B9F403
:1012700089819A8197FF09C06091A2047091A304AB
:1012800086ED91E00E940A0D0AC089819A819093AF
:101290005C0480935B041092450410924404C801DE
:1012A00067E072E00E94D50C009741F4D0929F0451
:1012B000C0929E04F0925C04E0925B0484E00E9481
:1012C0009F0285CFA8E1B0E0E8E6F9E00C94A60C17
:1012D00069837A838B839C832D833E834F835887D6
:1012E000B9E0EB2EF12CEC0EFD1ECE010196B701FC
:1012F0000E94FF0B8E010F5E1F4FCE010596B801B5
:101300000E94FF0B2985223008F47EC039893230D3
:1013100010F4B8017CC08A859A8989278A8724308D
:1013200011F0223031F4231709F06EC069E172E048
:101330006EC0343039F41D861E861F86188A1C86BE
:101340001B8604C0323021F484E08987B7015FC076
:101350002B853C858B899C89281B390B3C872B87E7
:10136000ED84FE840F851889AD88BE88CF88D88C1F
:10137000EA14FB040C051D0540F4EE0CFF1C001FD5
:10138000111F215030403C872B8720E030E040E0A7
:1013900050E080E090E0A0E0B0E460E070E0EA14AB
:1013A000FB040C051D0540F0282B392B4A2B5B2B29
:1013B000EA18FB080C091D09B695A795979587951E
:1013C000EE0CFF1C001F111F6F5F7F4F6F31710507
:1013D00031F7DA01C9018F779070A070B070803456
:1013E0009105A105B10561F427FD0AC0E114F104DE
:1013F0000105110529F0205C3F4F4F4F5F4F2078CA
:101400002D873E874F87588BBE01675F7F4FCB018B
:101410000E942A0B6896EAE00C94C20CACE0B0E0A3
:10142000E4E1FAE00C94AE0C69837A838B839C83AD
:10143000CE010196BE016B5F7F4F0E94FF0B8D8135
:10144000823061F1823050F1843021F48E81882322
:1014500051F12EC02F81388537FD20C06E812F318C
:1014600031051CF06623F9F023C08EE190E0821B69
:10147000930B29853A854B855C8504C05695479525
:10148000379527958A95D2F76623B1F05095409508
:10149000309521953F4F4F4F5F4F0EC020E030E019
:1014A00040E050E009C02FEF3FEF4FEF5FE704C08F
:1014B00020E030E040E050E8B901CA012C96E2E0BB
:1014C0000C94CA0CA8E0B0E0E8E6FAE00C94A60C94
:1014D0007B018C01611571058105910519F482E08C
:1014E000898360C083E089838EE1C82ED12CDC82A1
:1014F000CB82ED82FE820F831887C801B7010E945C
:10150000DB0AFC013197F7FF3BC0222733272E1B54
:101510003F0B57016801022E04C0D694C794B794BC
:10152000A7940A94D2F740E050E060E070E081E0D8
:1015300090E0A0E0B0E004C0880F991FAA1FBB1F75
:101540002A95D2F70197A109B1098E219F21A023E5
:10155000B1230097A105B10521F041E050E060E022
:1015600070E04A295B296C297D294D835E836F8356
:1015700078878EE190E08E1B9F0B9C838B8312C03B
:10158000309781F00E2E04C0EE0CFF1C001F111FBF
:101590000A94D2F7ED82FE820F831887CE1ADF0AF3
:1015A000DC82CB821A82CE0101960E942A0B2896F9
:1015B000EAE00C94C20CEF92FF920F931F937B0111
:1015C0008C0180E0E81680E0F80681E0080780E002
:1015D000180788F48FEFE816F1040105110531F0C2
:1015E00028F088E090E0A0E0B0E017C080E090E054
:1015F000A0E0B0E012C080E0E81680E0F80680E0ED
:10160000080781E0180728F088E190E0A0E0B0E04A
:1016100004C080E190E0A0E0B0E020E230E040E0F3
:1016200050E0281B390B4A0B5B0B04C0169507953D
:10163000F794E7948A95D2F7F701EF5DFD4F80812B
:10164000281B310941095109C9011F910F91FF90D0
:10165000EF900895DF92EF92FF920F931F93FC019A
:10166000E480F58006811781D1808081823048F442
:1016700080E090E0A0E1B0E0E82AF92A0A2B1B2BD9
:10168000A5C0843009F49FC0823021F4EE24FF24E9
:10169000870105C0E114F1040105110519F4E0E02A
:1016A000F0E096C0628173819FEF623879070CF099
:1016B0005BC022E83FEF261B370B2A3131052CF0A7
:1016C00020E030E040E050E02AC0B801A701022E3F
:1016D00004C076956795579547950A94D2F781E0AF
:1016E00090E0A0E0B0E004C0880F991FAA1FBB1FC4
:1016F0002A95D2F70197A109B1098E219F21A02334
:10170000B1230097A105B10521F081E090E0A0E0B0
:10171000B0E09A01AB01282B392B4A2B5B2BDA0165
:10172000C9018F779070A070B07080349105A105C9
:10173000B10539F427FF09C0205C3F4F4F4F5F4F81
:1017400004C0215C3F4F4F4F5F4FE0E0F0E020309E
:10175000A0E03A07A0E04A07A0E45A0710F0E1E051
:10176000F0E079018A0127C06038710564F5FB015A
:10177000E158FF4FD801C7018F779070A070B0700B
:1017800080349105A105B10539F4E7FE0DC080E470
:1017900090E0A0E0B0E004C08FE390E0A0E0B0E013
:1017A000E80EF91E0A1F1B1F17FF05C016950795A7
:1017B000F794E794319687E016950795F794E794A8
:1017C0008A95D1F705C0EE24FF248701EFEFF0E002
:1017D0006E2F679566276795902F9F77D794DD24A6
:1017E000D7948E2F8695492F462B582F5D29B70108
:1017F000CA011F910F91FF90EF90DF900895FC01B7
:10180000DB01408151812281622F6F7770E0221FBE
:101810002227221F9381892F880F822B282F30E0C7
:10182000991F9927991F11969C931197211531059E
:10183000A9F5411551056105710511F482E037C024
:1018400082E89FEF13969C938E9312979A01AB01B7
:1018500067E0220F331F441F551F6A95D1F783E0BD
:101860008C930DC0220F331F441F551F12968D916C
:101870009C911397019713969C938E931297203007
:1018800080E0380780E0480780E4580758F3149652
:101890002D933D934D935C93179708952F3F3105FA
:1018A00079F4411551056105710519F484E08C93B3
:1018B000089564FF03C081E08C9312C01C9210C095
:1018C0002F57304013963C932E93129783E08C93BE
:1018D00087E0440F551F661F771F8A95D1F7706404
:1018E00014964D935D936D937C9317970895AA1B5F
:1018F000BB1B51E107C0AA1FBB1FA617B70710F0FB
:10190000A61BB70B881F991F5A95A9F7809590952C
:10191000BC01CD01089597FB092E07260AD077FD5B
:1019200004D0E5DF06D000201AF4709561957F4F52
:101930000895F6F7909581959F4F08952F923F92C5
:101940004F925F926F927F928F929F92AF92BF92CF
:10195000CF92DF92EF92FF920F931F93CF93DF937B
:10196000CDB7DEB7CA1BDB0B0FB6F894DEBF0FBED8
:10197000CDBF09942A88398848885F846E847D8425
:101980008C849B84AA84B984C884DF80EE80FD8027
:101990000C811B81AA81B981CE0FD11D0FB6F8949D
:1019A000DEBF0FBECDBFED010895FB01DC018D91BF
:1019B000019080190110D9F3990B08950F931F938B
:1019C000CF93DF938C01EB018B8181FF1BC082FFE2
:1019D0000DC02E813F818C819D812817390764F4C9
:1019E000E881F9810193F983E88306C0E885F985E8
:1019F000802F0995892B31F48E819F8101969F83D9
:101A00008E8302C00FEF1FEFC801DF91CF911F91AE
:101A10000F910895EF92FF920F931F93CF93DF934F
:101A20007C018B01DB0113968C9181FD03C0CFEF0C
:101A3000DFEF13C0C0E0D0E00BC0D8011896ED91E5
:101A4000FC911997B8010995892B11F0CFEFDFEFC1
:101A5000F70181917F01882381F7CE01DF91CF913A
:101A60001F910F91FF90EF900895DF93CF93CDB723
:101A7000DEB79E01275F3F4F8D819E816F81788504
:101A8000A9010E942C11CF91DF9108950F931F930C
:101A9000DF93CF93CDB7DEB72E970FB6F894DEBFA6
:101AA0000FBECDBF0D891E8986E08C831A83098302
:101AB0008FEF9FE79E838D839E01275E3F4FCE0170
:101AC00001966F89788DA9010E94770D2F81388545
:101AD000020F131FF80110822E960FB6F894DEBF86
:101AE0000FBECDBFCF91DF911F910F9108952F921F
:101AF0003F924F925F926F927F928F929F92AF929E
:101B0000BF92CF92DF92EF92FF920F931F93DF93DA
:101B1000CF93CDB7DEB72B970FB6F894DEBF0FBECD
:101B2000CDBF3C012B015A01FC0117821682838133
:101B300081FD03C06FEF7FEFC6C19AE0892E1E01C1
:101B40000894211C311CF3012381F20123FD8591AE
:101B500023FF81912F01882309F4B2C1853239F422
:101B600023FD859123FF81912F01853229F490E097
:101B7000B3010E94DE0CE7CF982FFF24EE249924B6
:101B8000FFE1FF15D0F09B3269F09C3228F49032CF
:101B900059F0933291F40EC09D3249F0903369F4BC
:101BA00041E024C052E0F52A84E0F82A28C098E0F9
:101BB000F92A25C0E0E1FE2A22C0F7FC29C0892FBE
:101BC00080538A3070F4F6FE05C0989C902C112446
:101BD000980E15C0E89CE02C1124E80EF0E2FF2AD4
:101BE0000EC09E3229F4F6FC6BC140E4F42A07C013
:101BF0009C3619F450E8F52A02C0983649F4F201EF
:101C000023FD959123FF91912F01992309F0B8CFDE
:101C1000892F8554833018F08052833038F444E0A3
:101C200050E0A40EB51E5FE359830FC0933631F028
:101C3000933779F0933509F056C020C0F5018081C3
:101C4000898342E050E0A40EB51E610101E010E07E
:101C500012C0F501C080D180F6FC03C06FEF7FEFAA
:101C600002C0692D70E042E050E0A40EB51EC6012E
:101C70000E946D128C015FE7F52214C0F501C0804F
:101C8000D180F6FC03C06FEF7FEF02C0692D70E0DA
:101C900042E050E0A40EB51EC6010E9462128C0103
:101CA00050E8F52AF3FE07C01AC080E290E0B301C5
:101CB0000E94DE0CEA948E2D90E008171907A8F315
:101CC0000EC0F601F7FC8591F7FE81916F0190E05F
:101CD000B3010E94DE0CE110EA940150104001159E
:101CE000110579F7EAC0943611F0993669F5F7FED7
:101CF00008C0F501208131814281538184E090E068
:101D00000AC0F501808191819C01442737FD4095EF
:101D1000542F82E090E0A80EB91E9FE6F92257FFEB
:101D200009C050954095309521953F4F4F4F5F4FDB
:101D3000E0E8FE2ACA01B901A1012AE030E00E94D0
:101D4000D412D82ED21840C0953729F41F2D1F7EEB
:101D50002AE030E01DC01F2D197F9F3661F09037BB
:101D600020F4983509F0ACC00FC0903739F098379F
:101D700009F0A6C004C028E030E00AC0106114FDDC
:101D8000146020E130E004C014FD166020E132E070
:101D900017FF08C0F501608171818281938144E061
:101DA00050E008C0F50180819181BC0180E090E0A5
:101DB00042E050E0A40EB51EA1010E94D412D82E1C
:101DC000D2188FE7F82EF122F6FE0BC05EEFF52257
:101DD000D91438F4F4FE07C0F2FC05C08FEEF822E7
:101DE00002C01D2D01C0192DF4FE0DC0FE01ED0D28
:101DF000F11D8081803319F499EEF92208C01F5F2C
:101E0000F2FE05C003C08F2D867809F01F5F0F2DED
:101E1000F3FC14C0F0FE0FC01E1510F09D2C0BC07B
:101E20009D2C9E0C911A1E2D06C080E290E0B301FD
:101E30000E94DE0C1F5F1E15C0F304C01E1510F4B7
:101E4000E11A01C0EE2404FF0FC080E390E0B3016B
:101E50000E94DE0C02FF1DC001FD03C088E790E078
:101E60000EC088E590E00BC0802F867891F001FFCE
:101E700002C08BE201C080E2F7FC8DE290E0B3018A
:101E80000E94DE0C06C080E390E0B3010E94DE0CED
:101E90009A94D914C0F3DA94F101ED0DF11D80810B
:101EA00090E0B3010E94DE0CDD20A9F706C080E2BD
:101EB00090E0B3010E94DE0CEA94EE20C1F743CE1D
:101EC000F30166817781CB012B960FB6F894DEBFC4
:101ED0000FBECDBFCF91DF911F910F91FF90EF907B
:101EE000DF90CF90BF90AF909F908F907F906F903A
:101EF0005F904F903F902F900895FC0120FD08C007
:101F000023FD05C022FF02C0738362835183408397
:101F10000895EF92FF920F931F9344FF02C033E0A6
:101F200011C046FF02C034E00DC0DB01FC01AA0F66
:101F3000BB1FEE1FFF1F1094D1F76A0F7B1F8E1F70
:101F40009F1F31E0660F771F881F991F3150D1F70F
:101F50007B018C01E20EF11C011D111DA8019701EE
:101F6000B701CA011F910F91FF90EF9008950F9351
:101F70001F93CF93DF938C01C8010E947812EC016C
:101F800097FD08C00E944F12892BB1F7CE01B8010E
:101F90000E94BA12CE01DF91CF911F910F91089547
:101FA000AF92BF92CF92DF92EF92FF920F931F9367
:101FB000CF93DF93EC01C62E5A01122F0E947812A4
:101FC000AC018B3219F08D3251F41068CA9409F4C7
:101FD0006DC0CE010E947812AC0197FD67C06DEF15
:101FE000D62ED1228D2D807301F54033F1F4CA94A1
:101FF00009F447C0CE010E947812AC0197FD41C0A0
:1020000082E0D82A483711F0483559F480E4D82ABC
:10201000CA94B9F1CE010E947812AC0199232CF434
:1020200030C0D6FC02C080E1D82AEE24FF2487010C
:10203000242F2053283088F0D4FC09C02A3068F0BF
:10204000D6FE05C02F7D822F8151863028F0CA012F
:10205000BE010E94BA1212C02750C801B7014D2D0F
:102060000E94890F7B018C0182E0D82ACA9461F01A
:10207000CE010E947812AC0197FFDACFD1FC04C0E8
:1020800015C0EE24FF248701D7FE08C010950095E7
:10209000F094E094E11CF11C011D111DC501B80173
:1020A000A7012D2D0E947D0F81E001C080E0DF910E
:1020B000CF911F910F91FF90EF90DF90CF90BF9045
:1020C000AF9008956F927F928F929F92AF92BF923E
:1020D000CF92DF92EF92FF920F931F93DF93CF93F4
:1020E000CDB7DEB7A0970FB6F894DEBF0FBECDBF59
:1020F0006C01A62E8A017901FE01319680E2DF0192
:102100001D928A95E9F770E030E060E040E050E031
:102110004F01A1E0B0E0F6018381F70183FD259135
:1021200083FF21917F01222309F47EC02E3519F40B
:102130004115510569F1872F90E08417950744F404
:102140002D3551F12D3221F4332329F431E021C012
:10215000332309F4622F322F832F86958695869537
:10216000F401E80FF11D832F87703D0102C0660C5A
:10217000771C8A95E2F7208126292083361711F4EF
:1021800030E007C0361710F43F5FE6CF3150E4CFA0
:1021900071E04F5F5F4FBFCF332319F08E818062B4
:1021A0008E83772359F0FE0131969E012F5D3F4FBC
:1021B000808180958193E217F307D1F7BB24B39414
:1021C0004E010894811C911CC6010E947812AC013A
:1021D00097FD22C0869586958695F401E80FF11D3E
:1021E000808190E09A012770307002C095958795A4
:1021F0002A95E2F780FD05C0CA01B6010E94BA1215
:102200000BC00115110519F0D8014D938D01AA9449
:10221000BB24AA20C9F602C0BB2031F40115110568
:1022200029F0F801108202C0EE24FF24C701A09615
:102230000FB6F894DEBF0FBECDBFCF91DF911F91D7
:102240000F91FF90EF90DF90CF90BF90AF909F9055
:102250008F907F906F9008956F927F928F929F9250
:10226000AF92BF92CF92DF92EF92FF920F931F93A4
:10227000CF93DF935C016B013A01FC011782168258
:102280008824EAC0812F90E00E944F12892B21F010
:10229000C5010E94B70FE0C0153249F4F601F3FC06
:1022A0006591F3FE61916F01653269F415E2C50134
:1022B0000E94781297FDDCC0181709F4CDC0B50153
:1022C0000E94BA12DAC06A3219F0162F00E006C076
:1022D000F3FC1591F3FE11916F0101E099240FC0F9
:1022E0000260692D70E080E090E040E20E94890F7A
:1022F000962EF601F3FC1591F3FE11916F01212F3B
:1023000020532A3068F301FD03C099249A9403C036
:10231000992009F4B2C0183621F01C3699F4F60160
:102320000BC0F601F3FC6591F3FE6191683619F07C
:102330006F01162F07C008600460F3FC1591F3FECF
:1023400011916F01112309F498C080EE90E0612F84
:1023500070E00E945712892B09F48FC0802F00FF74
:1023600003C0EE24FF2407C0F301E080F18022E0E7
:1023700030E0620E731E1E3651F4F501468157811E
:1023800060E070E0C701202F0E947D0F65C013360A
:1023900091F481FD02C099249394C5010E947812A2
:1023A00097FD66C0E114F10419F0F70181937F01F4
:1023B0009A9499F74FC01B3559F4C501692DA701AF
:1023C00096010E9462106C01009709F043C03DC065
:1023D000C5010E94B70F97FD4BC01F3659F110374A
:1023E00028F4143629F1193639F527C0133719F0B6
:1023F000153711F51DC0C5010E947812EC0197FD3B
:1024000011C00E944F12892B29F0CE01B5010E9404
:10241000BA1208C0E114F10419F0F701C1937F0169
:102420009A9449F7E114F104A9F0F701108212C05F
:10243000006203C0006101C00064C501692DA701ED
:10244000202F0E94D00F882329F4F5018381807307
:1024500079F413C000FF8394F501F380F601F3FCD7
:102460001591F3FE11916F01112309F00BCF05C0F7
:10247000882019F42FEF3FEF02C0282D30E0C9016A
:10248000DF91CF911F910F91FF90EF90DF90CF9050
:10249000BF90AF909F908F907F906F900895911113
:1024A000E1C0803219F089508550D0F70895FC01C1
:1024B0000590061621F00020D9F7C0010895319744
:1024C000CF010895FC010590615070400110D8F7CC
:1024D000809590958E0F9F1F0895FC01615070406C
:1024E00001900110D8F7809590958E0F9F1F089549
:1024F000CF93DF93EC014B8140FF1AC046FF0AC027
:102500004F7B4B838E819F8101969F838E838A812F
:10251000282F2BC042FF13C0E881F9818081282F2A
:10252000332727FD30952115310529F440624B836F
:102530002FEF3FEF1BC03196F983E88311C0EA8586
:10254000FB85CE0109959C0197FF0AC09B812F5FF7
:102550003F4F11F080E201C080E1892B8B83E8CFEF
:102560008E819F8101969F838E8330E0C901DF9128
:10257000CF9108959C01FB01838180FF11C086FDEE
:102580000FC09FEF2F3F390759F0228380648F7D62
:1025900083838681978101979783868330E002C089
:1025A0002FEF3FEFC9010895FA01AA27283051F112
:1025B000203181F1E8946F936E7F6E5F7F4F8F4F74
:1025C0009F4FAF4FB1E03ED0B4E03CD0670F781FD3
:1025D000891F9A1FA11D680F791F8A1F911DA11DB8
:1025E0006A0F711D811D911DA11D20D009F46894F1
:1025F0003F912AE0269F11243019305D3193DEF699
:10260000CF010895462F4770405D4193B3E00FD04E
:10261000C9F7F6CF462F4F70405D4A3318F0495D39
:1026200031FD4052419302D0A9F7EACFB4E0A6951C
:102630009795879577956795BA95C9F7009761053E
:10264000710508959B01AC010A2E06945795479594
:1026500037952795BA95C9F7620F731F841F951F89
:0E266000A01D0895992788270895F894FFCFAC
:10266E000A0D2057656C636F6D6520746F204B6982
:10267E00746368656E426F74205549200A0D2050B0
:10268E006C6561736520696E70757420796F7572F3
:10269E0020696E737472756374696F6E73206265F0
:1026AE006C6F770A0D20546865206F7074696F6EB9
:1026BE0073206172653A2074696D652C2074656DA6
:1026CE00702C2026206567670A0D0A0D0054696D6F
:1026DE00657220656E61626C65642E0A0D00546928
:1026EE006D65722064697361626C65642E0A0D00FB
:1026FE002569432020202020200025732575007495
:10270E00656D7000506C6561736520696E707574CF
:10271E00206120706F7369746976652074656D70C1
:10272E00657261747572652076616C75652E0A0D21
:10273E000074696D6500506C6561736520696E701B
:10274E007574206120706F73697469766520746981
:10275E006D652076616C756520696E207365636F9B
:10276E006E64732E0A0D006567670000000003009B
:10277E00000000D00329040000000000000000004B
:10278E00000001020203030303040404040404040E
:10279E0004050505050505050505050505050505DC
:1027AE0005060606060606060606060606060606BC
:1027BE0006060606060606060606060606060606AB
:1027CE00060707070707070707070707070707078C
:1027DE00070707070707070707070707070707077B
:1027EE00070707070707070707070707070707076B
:1027FE00070707070707070707070707070707075B
:10280E00070808080808080808080808080808083B
:10281E00080808080808080808080808080808082A
:10282E00080808080808080808080808080808081A
:10283E00080808080808080808080808080808080A
:10284E0008080808080808080808080808080808FA
:10285E0008080808080808080808080808080808EA
:10286E0008080808080808080808080808080808DA
:10287E0008080808080808080808080808080808CA
:02288E00080040
:00000001FF
