:100000000C9476000C9495000C9495000C9495003B
:100010000C9495000C9495000C9495000C9495000C
:100020000C9495000C9495000C9495000C949500FC
:100030000C9495000C9497000C9495000C949500EA
:100040000C9469060C9495000C9495000C94950002
:100050000C94FC030C9488030C9495000C9495006C
:100060000C9495000C9495000C9495000C949500BC
:100070000C9495000C9495000C9495000C949500AC
:100080000C9495000C9495000C949500001F0000B2
:1000900000001F00001F101010101F00001F181874
:1000A00018181F00001F1C1C1C1C1F00001F1E1EF8
:1000B0001E1E1F00001F1F1F1F1F1F0003070F1FF3
:1000C0000F070300181C1E1F1E1C180043757272B8
:1000D000656E743A0000446573697265643A0000A5
:1000E0006364696E6F70737578585B0011241FBE6E
:1000F000CFEFD0E4DEBFCDBF11E0A0E0B1E0E8EA91
:10010000FFE100E00BBF02C007900D92A03AB107DB
:10011000D9F713E0A0EAB1E001C01D92A232B10705
:10012000E1F70E9451070C94D20F0C9400001F922B
:100130000F920FB60F920BB60F9211242F923F928F
:100140004F925F926F927F928F929F92AF92BF92E7
:10015000CF92DF92EF92FF920F931F932F933F93D3
:100160004F935F936F937F938F939F93AF93BF93BF
:10017000CF93DF93EF93FF9310926F005090DA02CA
:10018000B09B14C08091110390911203A0911303AE
:10019000B09114030196A11DB11D8093110390939A
:1001A0001203A0931303B0931403B09A80918400B8
:1001B000909185003C0188249924809111039091AD
:1001C0001203A0911303B0911403DC01992788272F
:1001D000680E791E8A1E9B1E4090D90270E061E075
:1001E000FFEFAF2EFFEFBF2EFFEFCF2EFFE7DF2E8B
:1001F000EBE02E2E33243394CBE0D0E043C0629D5D
:10020000D0011124A552BD4F1A968C911A978230B5
:10021000A1F41296ED90FD900D911C9115976E141E
:100220007F048006910620F01A963C921A9705C02A
:10023000EA14FB040C051D0510F0860175011A96E1
:100240008C911A978130D9F4872F90E08C9FF00120
:100250008D9FF00D9C9FF00D1124E752FD4F1696D7
:100260002D913D914D915C91199780859185A28545
:10027000B385281739074A075B0708F4762F6F5FA5
:1002800057016801461608F0BACF7515B1F0EBE0DA
:100290005E9ED0011124A552BD4F8DB78C938EB7B1
:1002A00011968C937E9FF0011124E552FD4F8181C0
:1002B0008EBF80818DBF7093DA02A0921503B09239
:1002C0001603C0921703D092180320918400309136
:1002D000850040E050E08091110390911203A091BD
:1002E0001303B0911403DC0199278827280F391FC5
:1002F0004A1F5B1FD601C501821B930BA40BB50BD4
:100300009C01AD0184309105A105B10524F424E0E0
:1003100030E040E050E08091840090918500A0E0C2
:10032000B0E0820F931FA41FB51F80509040A140E2
:10033000B04038F48091840090918500820F931F23
:100340000EC080918400909185008C5F9F4F28F4AF
:10035000109289001092880006C084E090E090938B
:1003600089008093880082E080936F00FF91EF9175
:10037000DF91CF91BF91AF919F918F917F916F91BD
:100380005F914F913F912F911F910F91FF90EF90AF
:10039000DF90CF90BF90AF909F908F907F906F90A5
:1003A0005F904F903F902F900F900BBE0F900FBE1D
:1003B0000F901F9018951092850010928400109253
:1003C000800025E02093810022E020936F002FEF32
:1003D00030E4281B390B3093100320930F03109245
:1003E000D9021092DA0210921103109212031092A5
:1003F0001303109214038FEF9FEFAFEFBFE78093CB
:10040000150390931603A0931703B09318038093DA
:10041000E1029093E202A093E302B093E40210920F
:10042000DD021092DE021092DF021092E002789458
:1004300008958F929F92AF92BF92CF92DF92EF92E8
:10044000FF920F931F93CF93DF9349015A01F894C2
:100450002091D9022F5F2093D902C0910F03D09130
:1004600010039E01261B370B3093100320930F03BC
:100470008883FE0192933197DF01CE014C971C9245
:100480001197A817B907D9F77A97C082D2923197F6
:10049000DF019E01245230401C921197A217B3072E
:1004A000D9F79F0126503040E091D9028BE0E89FB8
:1004B000F0011124E552FD4F82829382A482B5821D
:1004C000E682F7820087118782E08287208331836A
:1004D0000E949700DF91CF911F910F91FF90EF90B5
:1004E000DF90CF90BF90AF909F908F900895F89439
:1004F000E9EDF2E0E80FF11D65A778940895482F23
:100500002091DA02F894E82FF0E0EA5FFC4F808156
:10051000882319F08150808310C030E08BE090E098
:10052000289FF001299FF00D389FF00D1124E5520E
:10053000FD4F4E5F42870E94970078940895FF9286
:100540000F931F93182FF8940091D902E1E04FEF19
:100550005FEF6FEF7FEFF0E08BE0F82E212F30E0C0
:100560002E5F3F4F1EC0EF9DD0011124A552BD4FFD
:100570001A968C911A9790E08217930769F4169651
:100580008D919D910D90BC91A02D481759076A0738
:100590007B0710F0FE2F02C0DB01CA01EF5FAC0148
:1005A000BD010E1700F7FF2341F4E12FF0E0E85200
:1005B000FD4F86A58F5F86A711C02F2F30E08BE0FF
:1005C00090E0289FF001299FF00D389FF00D112435
:1005D000E752FD4F81E084870E94970078941F9135
:1005E0000F91FF900895209184003091850040E0A4
:1005F00050E08091110390911203A0911303B091E8
:100600001403DC0199278827280F391F4A1F5B1F15
:10061000B901CA010895E091DA02ABE0EA9FF00166
:100620001124E552FD4FF894A2E0A2876283738300
:100630008483958326833783408751870E94970060
:1006400008958091DA0290E02BE030E0829FF00183
:10065000839FF00D929FF00D1124E752FD4FDF01B3
:100660001496648111967C91119712968C91129731
:1006700013969C9108958091DA0290E02BE030E08F
:10068000829FF001839FF00D929FF00D1124E7529D
:10069000FD4FDF011896608511967C911197129697
:1006A0008C91129713969C910895F8948091DA0298
:1006B00090E02BE030E0829FF001839FF00D929F4D
:1006C000F00D1124E752FD4F14860E949700089503
:1006D000F894E82FF0E0EA5FFC4F8081882319F05E
:1006E000815080838F5F7894089587E68093C4005B
:1006F000E1ECF0E088E180831092F3011092F201C6
:100700001092F5011092F401808180688083089531
:100710001F920F920FB60F920BB60F9211242F93C8
:100720003F938F939F93EF93FF932091F20130912A
:10073000F3018091F4019091F5012817390731F404
:100740008091C1008F7D8093C1001DC0E091F401B4
:10075000F091F501EA50FE4F80818093C6008091B0
:10076000F4019091F50101969093F5018093F401C5
:100770008091F4019091F501883C910521F410924B
:10078000F5011092F401FF91EF919F918F913F91AC
:100790002F910F900BBE0F900FBE0F901F901895CA
:1007A0001F93182F8A3019F48DE00E94D003809196
:1007B000F2019091F3018F5F883C09F480E0E091B1
:1007C000F201F091F301EA50FE4F1083282F30E040
:1007D0008091F4019091F50128173907C9F33093FE
:1007E000F3012093F2018091C10080628093C100E7
:1007F00080E090E01F9108951F920F920FB60F9224
:100800000BB60F9211242F933F934F935F936F93E7
:100810007F938F939F93AF93BF93EF93FF938091B9
:10082000C6008093190381E00E949F02FF91EF911F
:10083000BF91AF919F918F917F916F915F914F91F8
:100840003F912F910F900BBE0F900FBE0F901F90F6
:100850001895EF92FF920F931F93CF93DF937C0134
:100860008091A0019091A101892B09F0A1C002EA19
:1008700011E081E00E947F028091C00084FF03C0EC
:100880002EEF3FEFA9C08091C00083FDA3C09091DF
:1008900019039D3011F09A3081F48AE0F8018083C9
:1008A000B7010E94D00382EA91E09093A101809366
:1008B000A00182E00E949F027BC0993009F490E27F
:1008C000892F80528F3510F0903A70F0F1E0013F9F
:1008D0001F0711F487E004C0F80191938F01892F5D
:1008E000B7010E94D003C5CF923139F1933138F46A
:1008F000933009F46FC0983009F0BBCF09C097312D
:1009000009F44BC09F3721F0953109F0B2CF32C0C6
:10091000F1E0023A1F0709F008F4ABCF88E0B70115
:100920000E94D00380E2B7010E94D00388E0B701A3
:100930000E94D003015010409CCF8DE0B7010E946F
:10094000D003C2EAD1E004C08991B7010E94D0036C
:10095000C017D107C8F38DCF88E0B7010E94D0033C
:1009600080E2B7010E94D00388E0B7010E94D00363
:100970000150104081E0023A180709F068F779CF7A
:1009800088E0B7010E94D00380E2B7010E94D00343
:1009900088E0B7010E94D0038E01E1E0023A1E0711
:1009A00009F008F466CFE8018A91803249F761CFF7
:1009B000E091A001F091A1018191F093A101E09358
:1009C000A0018A3021F41092A1011092A001282FD9
:1009D00030E002C02FEF3FEFC901DF91CF911F91AF
:1009E0000F91FF90EF900895282F207F28B9409A0B
:1009F000429A20E43FE1F9013197F1F7429840989B
:100A0000F9013197F1F790E074E0880F991F7A951A
:100A1000E1F788B9409A429AC9010197F1F74298E3
:100A20004098C9010197F1F70895282F207F28B930
:100A3000429A20E43FE1F9013197F1F74298F90138
:100A40003197F1F790E0E4E0880F991FEA95E1F71C
:100A500088B9429AC9010197F1F74298C9010197F3
:100A6000F1F7089581E00E941505089582E00E9443
:100A7000150508950F931F93CF93DF93062F0097CB
:100A800049F0EC0110E004C089910E94F4041F5F5A
:100A90001017D0F3DF91CF911F910F91089562301D
:100AA00031F0633031F0613029F4805C03C08C5E3A
:100AB00001C08C5A80680E94150508951F93CF933A
:100AC000DF93EC01862F642F0E944F0510E003C0D6
:100AD0000E94F4041F5FFE01E10FF11D8491882341
:100AE000B9F7DF91CF911F910895EF92FF920F9385
:100AF0001F93CF93DF937C01162F110F110F110F4E
:100B00001064C0E0D0E0F701EC0FFD1F0491812FCD
:100B10008C0F0E941505802F0E94F4042196C83086
:100B2000D10589F7DF91CF911F910F91FF90EF9041
:100B300008951F93CF93DF9380E69AEE0197F1F724
:100B400018B818B887B1806F87B987B1876087B93F
:100B500080E388B9429A20E43FE1F9013197F1F747
:100B60004298F9013197F1F788B9429AC901019782
:100B7000F1F74298C9010197F1F780E288B9429AEA
:100B8000C9010197F1F74298C9010197F1F788E28D
:100B90000E9415058CE00E941505CCE8D0E060E0CD
:100BA000162F1F5FCE010E9475052896612F183001
:100BB000B9F7DF91CF911F9108950F931F93082FDD
:100BC00010E004C08EE10E9415051F5F1017D0F3DE
:100BD0001F910F9108950F931F93082F10E004C0E9
:100BE00088E10E9415051F5F1017D0F31F910F9128
:100BF00008958EE00E94150508958FE00E94150566
:100C000008958CE00E941505089588E00E9415055E
:100C100008958CE00E94150508950F931F93082FE7
:100C200010E004C080E10E9415051F5F1017D0F38B
:100C30001F910F9108950F931F93082F10E004C088
:100C400084E10E9415051F5F1017D0F31F910F91CB
:100C50000895DF92EF92FF920F931F93CF93DF934C
:100C6000D42E96E0899FC0011124242F30E0AC01DE
:100C7000429FC001439F900D529F900D112470E040
:100C80000E944E09EB01CB0166E070E00E943A0938
:100C9000E82EFF2400E010E012C0C8010596C81736
:100CA000D90710F085E006C0C017D10710F08E2DCF
:100CB00001C080E00E94F404F3940A5F1F4FFD140A
:100CC00060F3DF91CF911F910F91FF90EF90DF9034
:100CD00008951F920F920FB60F920BB60F92112428
:100CE0002F933F934F935F936F937F938F939F9334
:100CF000AF93BF93EF93FF9384E00E947F028091B4
:100D0000D7029091D80218161906F4F48091C20205
:100D10009091C302885E934054F48091C2029091F6
:100D2000C30201969093C3028093C2020DC0109239
:100D3000C3021092C2028091D7029091D80201970B
:100D40009093D8028093D70284E00E949F02FF9183
:100D5000EF91BF91AF919F918F917F916F915F9133
:100D60004F913F912F910F900BBE0F900FBE0F90A0
:100D70001F9018950E9499050E9401060E94320555
:100D800080E060E00E944F050895EAE7F0E080818E
:100D900087608083ACE7B0E08C9180648C93808125
:100DA00080688083808180648083089590917C0036
:100DB000907F90937C0090917C00982B90937C0086
:100DC00080917A00806480937A0080917A0086FD19
:100DD000FCCF2091780030917900C90108958FEF00
:100DE00087B918B8529A84E00E947F0210921B03C0
:100DF00010921A031092C5021092C4021092D802E7
:100E00001092D7021092C3021092C20284E00E9494
:100E10009F020E94BA060E9432058CEC90E060E0CE
:100E200040E00E945E0586ED90E060E041E00E94B7
:100E30005E0592E090936E0089EF87BD83E085BDEB
:100E400094BD78940895EF92FF920F931F93209191
:100E50001103309112034091130350911403A9011F
:100E6000332722276091840070918500E0908400F0
:100E7000F090850080E090E0620F731F841F951F43
:100E8000685C7E4F8F4F9F4F00E010E02E0D3F1D9E
:100E9000401F511F2C523E4F4F4F5F4F0E940B037C
:100EA000D6CFCF92DF92EF92FF920F931F930E94C3
:100EB000750362E971E070932103609320037093DE
:100EC0001D0360931C0370931F0360931E0380E057
:100ED00091E00E94A70980E590E00E94DB01F89470
:100EE000109207037894F894109208037894F89479
:100EF00081E080930A0378948DE498E068EE73E0D3
:100F00002AE136E040E050E0EAE1EE2EE6E0FE2E97
:100F1000012D112DBEEBCB2EB2E0DB2E0E9419026B
:100F20008FEA97E068EE73E025E33CE040E050E0B4
:100F3000AAE6EA2EA8E1FA2E012D112D0E9419022F
:100F400020911A0330911B038091C4029091C50235
:100F50002817390714F05A9AF3CF5A98F1CFAF9265
:100F6000BF92CF92DF92EF92FF920F931F93CF9396
:100F7000DF93C6ECD2E0B8E4AB2EB1E0BB2EA2E525
:100F8000CA2EA1E0DA2E84E00E947F0280911A032B
:100F900090911B0300D000D000D0EDB7FEB7319682
:100FA000ADB7BEB71296DC93CE931197B382A282EF
:100FB000958384830E94E3098DB79EB706960FB68A
:100FC000F8949EBF0FBE8DBF89E060E00E944F0580
:100FD000FE0101900020E9F73197EC1BFD0BCE01DB
:100FE0006E2F0E943A058091D7029091D80200D0CE
:100FF00000D000D0EDB7FEB73196ADB7BEB71296B0
:10100000DC93CE931197D382C282958384830E940E
:10101000E3098DB79EB706960FB6F8949EBF0FBE34
:101020008DBF89E061E00E944F05FE010190002024
:10103000E9F73197EC1BFD0BCE016E2F0E943A05AC
:1010400084E00E949F02209111033091120340918D
:10105000130350911403A9013327222760918400C0
:1010600070918500E0908400F090850080E090E031
:10107000620F731F841F951F6E5B704F8F4F9F4FC2
:1010800000E010E02E0D3F1D401F511F2C57314E28
:101090004F4F5F4F0E940B0376CF6F927F928F92DC
:1010A0009F92AF92BF92CF92DF92EF92FF920F93F7
:1010B0001F93DF93CF9300D000D000D0CDB7DEB721
:1010C0000E94EF063CE5632E31E0732E8E010D5F2A
:1010D0001F4F4E010894811C911C26E6A22E21E090
:1010E000B22E97E7C92E91E0D92E86E8E82E81E04E
:1010F000F82E60911E0370911F038EE390E00E9412
:101100007B098DB79EB708970FB6F8949EBF0FBEA8
:101110008DBFEDB7FEB7319680911C0390911D03F2
:10112000ADB7BEB712969C938E931197738262826D
:1011300015830483978286820E94D2098DB79EB759
:1011400008960FB6F8949EBF0FBE8DBF84E00E9434
:101150007F02C80161E671E00E946109009741F5D4
:1011600089819A819093C5028093C4022091C40220
:101170003091C50200D000D000D0EDB7FEB7319657
:1011800080911E0390911F03ADB7BEB712969C933A
:101190008E931197B382A282358324830E946A09B9
:1011A0008DB79EB706960FB6F8949EBF0FBE8DBF43
:1011B000C80162E771E00E946109009741F58981E9
:1011C0009A819093D8028093D7022091D7023091D0
:1011D000D80200D000D000D0EDB7FEB73196809194
:1011E0001E0390911F03ADB7BEB712969C938E93CA
:1011F0001197D382C282358324830E946A098DB7F6
:101200009EB706960FB6F8949EBF0FBE8DBFC8015D
:1012100062E871E00E946109009741F589819A8135
:1012200090931B0380931A032091D7023091D80228
:1012300000D000D000D0EDB7FEB7319680911E03EC
:1012400090911F03ADB7BEB712969C938E931197E2
:10125000F382E282358324830E946A098DB79EB7A8
:1012600006960FB6F8949EBF0FBE8DBF84E00E9415
:101270009F023FCFAA1BBB1B51E107C0AA1FBB1F88
:10128000A617B70710F0A61BB70B881F991F5A9512
:10129000A9F780959095BC01CD01089597FB092E83
:1012A00007260AD077FD04D0E5DF06D000201AF427
:1012B000709561957F4F0895F6F7909581959F4FB2
:1012C0000895FB01DC018D91019080190110D9F383
:1012D000990B0895DF93CF93CDB7DEB79E01275FBB
:1012E0003F4F8D819E816F817885A9010E94140AEC
:1012F000CF91DF9108950F931F93CF93DF938C01CC
:10130000EB018B8181FF1BC082FF0DC02E813F81CD
:101310008C819D812817390764F4E881F981019354
:10132000F983E88306C0E885F985802F0995892B24
:1013300031F48E819F8101969F838E8302C00FEFCF
:101340001FEFC801DF91CF911F910F910895EF9288
:10135000FF920F931F93CF93DF937C018B01DB01EF
:1013600013968C9181FD03C0CFEFDFEF13C0C0E077
:10137000D0E00BC0D8011896ED91FC911997B801F7
:101380000995892B11F0CFEFDFEFF70181917F01F4
:10139000882381F7CE01DF91CF911F910F91FF90AC
:1013A000EF900895DF93CF93CDB7DEB79E01275F0F
:1013B0003F4F8D819E816F817885A9010E94C90D63
:1013C000CF91DF9108950F931F93DF93CF93CDB704
:1013D000DEB72E970FB6F894DEBF0FBECDBF0D89D6
:1013E0001E8986E08C831A8309838FEF9FE79E8393
:1013F0008D839E01275E3F4FCE0101966F89788DC8
:10140000A9010E94140A2F813885020F131FF801C9
:1014100010822E960FB6F894DEBF0FBECDBFCF91CF
:10142000DF911F910F9108952F923F924F925F92FB
:101430006F927F928F929F92AF92BF92CF92DF92E4
:10144000EF92FF920F931F93DF93CF93CDB7DEB749
:101450002B970FB6F894DEBF0FBECDBF3C012B011A
:101460005A01FC0117821682838181FD03C06FEF50
:101470007FEFC6C19AE0892E1E010894211C311C01
:10148000F3012381F20123FD859123FF81912F0137
:10149000882309F4B2C1853239F423FD859123FFF5
:1014A00081912F01853229F490E0B3010E947B09DC
:1014B000E7CF982FFF24EE249924FFE1FF15D0F009
:1014C0009B3269F09C3228F4903259F0933291F4B7
:1014D0000EC09D3249F0903369F441E024C052E0DF
:1014E000F52A84E0F82A28C098E0F92A25C0E0E12E
:1014F000FE2A22C0F7FC29C0892F80538A3070F45D
:10150000F6FE05C0989C902C1124980E15C0E89CFE
:10151000E02C1124E80EF0E2FF2A0EC09E3229F4DE
:10152000F6FC6BC140E4F42A07C09C3619F450E87D
:10153000F52A02C0983649F4F20123FD959123FF64
:1015400091912F01992309F0B8CF892F85548330C9
:1015500018F08052833038F444E050E0A40EB51EF9
:101560005FE359830FC0933631F0933779F09335A9
:1015700009F056C020C0F5018081898342E050E027
:10158000A40EB51E610101E010E012C0F501C0809B
:10159000D180F6FC03C06FEF7FEF02C0692D70E0D1
:1015A00042E050E0A40EB51EC6010E940A0F8C0155
:1015B0005FE7F52214C0F501C080D180F6FC03C0BE
:1015C0006FEF7FEF02C0692D70E042E050E0A40EA3
:1015D000B51EC6010E94FF0E8C0150E8F52AF3FEED
:1015E00007C01AC080E290E0B3010E947B09EA9430
:1015F0008E2D90E008171907A8F30EC0F601F7FC2E
:101600008591F7FE81916F0190E0B3010E947B0903
:10161000E110EA94015010400115110579F7EAC074
:10162000943611F0993669F5F7FE08C0F50120816E
:1016300031814281538184E090E00AC0F5018081CC
:1016400091819C01442737FD4095542F82E090E022
:10165000A80EB91E9FE6F92257FF09C05095409584
:10166000309521953F4F4F4F5F4FE0E8FE2ACA016A
:10167000B901A1012AE030E00E94710FD82ED218E2
:1016800040C0953729F41F2D1F7E2AE030E01DC091
:101690001F2D197F9F3661F0903720F4983509F09F
:1016A000ACC00FC0903739F0983709F0A6C004C01D
:1016B00028E030E00AC0106114FD146020E130E041
:1016C00004C014FD166020E132E017FF08C0F501E8
:1016D000608171818281938144E050E008C0F5010E
:1016E00080819181BC0180E090E042E050E0A40E56
:1016F000B51EA1010E94710FD82ED2188FE7F82EC7
:10170000F122F6FE0BC05EEFF522D91438F4F4FE98
:1017100007C0F2FC05C08FEEF82202C01D2D01C0EB
:10172000192DF4FE0DC0FE01ED0DF11D80818033F9
:1017300019F499EEF92208C01F5FF2FE05C003C03C
:101740008F2D867809F01F5F0F2DF3FC14C0F0FE7B
:101750000FC01E1510F09D2C0BC09D2C9E0C911AD5
:101760001E2D06C080E290E0B3010E947B091F5F3E
:101770001E15C0F304C01E1510F4E11A01C0EE24BA
:1017800004FF0FC080E390E0B3010E947B0902FFD9
:101790001DC001FD03C088E790E00EC088E590E021
:1017A0000BC0802F867891F001FF02C08BE201C050
:1017B00080E2F7FC8DE290E0B3010E947B0906C055
:1017C00080E390E0B3010E947B099A94D914C0F39E
:1017D000DA94F101ED0DF11D808190E0B3010E94DA
:1017E0007B09DD20A9F706C080E290E0B3010E94EA
:1017F0007B09EA94EE20C1F743CEF301668177813D
:10180000CB012B960FB6F894DEBF0FBECDBFCF91A4
:10181000DF911F910F91FF90EF90DF90CF90BF90DD
:10182000AF909F908F907F906F905F904F903F9080
:101830002F900895FC0120FD08C023FD05C022FF64
:1018400002C073836283518340830895EF92FF92B5
:101850000F931F9344FF02C033E011C046FF02C044
:1018600034E00DC0DB01FC01AA0FBB1FEE1FFF1F00
:101870001094D1F76A0F7B1F8E1F9F1F31E0660FF8
:10188000771F881F991F3150D1F77B018C01E20E21
:10189000F11C011D111DA8019701B701CA011F917B
:1018A0000F91FF90EF9008950F931F93CF93DF93C5
:1018B0008C01C8010E94150FEC0197FD08C00E9421
:1018C000EC0E892BB1F7CE01B8010E94570FCE0163
:1018D000DF91CF911F910F910895AF92BF92CF9258
:1018E000DF92EF92FF920F931F93CF93DF93EC0160
:1018F000C62E5A01122F0E94150FAC018B3219F01F
:101900008D3251F41068CA9409F46DC0CE010E9462
:10191000150FAC0197FD67C06DEFD62ED1228D2D2E
:10192000807301F54033F1F4CA9409F447C0CE0145
:101930000E94150FAC0197FD41C082E0D82A4837BC
:1019400011F0483559F480E4D82ACA94B9F1CE018F
:101950000E94150FAC0199232CF430C0D6FC02C0B4
:1019600080E1D82AEE24FF248701242F2053283039
:1019700088F0D4FC09C02A3068F0D6FE05C02F7D5F
:10198000822F8151863028F0CA01BE010E94570F74
:1019900012C02750C801B7014D2D0E94260C7B01B3
:1019A0008C0182E0D82ACA9461F0CE010E94150F02
:1019B000AC0197FFDACFD1FC04C015C0EE24FF24A0
:1019C0008701D7FE08C010950095F094E094E11CC3
:1019D000F11C011D111DC501B801A7012D2D0E948B
:1019E0001A0C81E001C080E0DF91CF911F910F912F
:1019F000FF90EF90DF90CF90BF90AF9008956F92DF
:101A00007F928F929F92AF92BF92CF92DF92EF928E
:101A1000FF920F931F93DF93CF93CDB7DEB7A097BD
:101A20000FB6F894DEBF0FBECDBF6C01A62E8A01A3
:101A30007901FE01319680E2DF011D928A95E9F776
:101A400070E030E060E040E050E04F01A1E0B0E045
:101A5000F6018381F70183FD259183FF21917F01A9
:101A6000222309F47EC02E3519F44115510569F180
:101A7000872F90E08417950744F42D3551F12D32CE
:101A800021F4332329F431E021C0332309F4622FF8
:101A9000322F832F869586958695F401E80FF11DE8
:101AA000832F87703D0102C0660C771C8A95E2F790
:101AB000208126292083361711F430E007C036171D
:101AC00010F43F5FE6CF3150E4CF71E04F5F5F4FDE
:101AD000BFCF332319F08E8180628E83772359F034
:101AE000FE0131969E012F5D3F4F8081809581934D
:101AF000E217F307D1F7BB24B3944E010894811C7D
:101B0000911CC6010E94150FAC0197FD22C086955D
:101B100086958695F401E80FF11D808190E09A0189
:101B20002770307002C0959587952A95E2F780FD61
:101B300005C0CA01B6010E94570F0BC0011511055F
:101B400019F0D8014D938D01AA94BB24AA20C9F69F
:101B500002C0BB2031F40115110529F0F8011082F3
:101B600002C0EE24FF24C701A0960FB6F894DEBF92
:101B70000FBECDBFCF91DF911F910F91FF90EF90DE
:101B8000DF90CF90BF90AF909F908F907F906F909D
:101B900008956F927F928F929F92AF92BF92CF9251
:101BA000DF92EF92FF920F931F93CF93DF935C012D
:101BB0006B013A01FC01178216828824EAC0812F4A
:101BC00090E00E94EC0E892B21F0C5010E94540C7C
:101BD000E0C0153249F4F601F3FC6591F3FE619122
:101BE0006F01653269F415E2C5010E94150F97FD7A
:101BF000DCC0181709F4CDC0B5010E94570FDAC038
:101C00006A3219F0162F00E006C0F3FC1591F3FEBE
:101C100011916F0101E099240FC00260692D70E0FD
:101C200080E090E040E20E94260C962EF601F3FC44
:101C30001591F3FE11916F01212F20532A3068F383
:101C400001FD03C099249A9403C0992009F4B2C0FD
:101C5000183621F01C3699F4F6010BC0F601F3FC9E
:101C60006591F3FE6191683619F06F01162F07C078
:101C700008600460F3FC1591F3FE11916F011123CC
:101C800009F498C080EE90E0612F70E00E94F40E9D
:101C9000892B09F48FC0802F00FF03C0EE24FF249E
:101CA00007C0F301E080F18022E030E0620E731E95
:101CB0001E3651F4F5014681578160E070E0C7019E
:101CC000202F0E941A0C65C0133691F481FD02C0CA
:101CD00099249394C5010E94150F97FD66C0E114E5
:101CE000F10419F0F70181937F019A9499F74FC09D
:101CF0001B3559F4C501692DA70196010E94FF0CFF
:101D00006C01009709F043C03DC0C5010E94540C0E
:101D100097FD4BC01F3659F1103728F4143629F1BE
:101D2000193639F527C0133719F0153711F51DC0CD
:101D3000C5010E94150FEC0197FD11C00E94EC0E29
:101D4000892B29F0CE01B5010E94570F08C0E1147C
:101D5000F10419F0F701C1937F019A9449F7E11456
:101D6000F104A9F0F701108212C0006203C0006103
:101D700001C00064C501692DA701202F0E946D0CD0
:101D8000882329F4F5018381807379F413C000FF5F
:101D90008394F501F380F601F3FC1591F3FE1191A4
:101DA0006F01112309F00BCF05C0882019F42FEF24
:101DB0003FEF02C0282D30E0C901DF91CF911F9184
:101DC0000F91FF90EF90DF90CF90BF90AF909F90DA
:101DD0008F907F906F9008959111E1C0803219F03B
:101DE00089508550D0F70895FC010590061621F022
:101DF0000020D9F7C00108953197CF010895FC0163
:101E00000590615070400110D8F7809590958E0F25
:101E10009F1F0895FC016150704001900110D8F798
:101E2000809590958E0F9F1F0895CF93DF93EC01BF
:101E30004B8140FF1AC046FF0AC04F7B4B838E8107
:101E40009F8101969F838E838A81282F2BC042FF1A
:101E500013C0E881F9818081282F332727FD309531
:101E60002115310529F440624B832FEF3FEF1BC052
:101E70003196F983E88311C0EA85FB85CE01099587
:101E80009C0197FF0AC09B812F5F3F4F11F080E2BA
:101E900001C080E1892B8B83E8CF8E819F810196E1
:101EA0009F838E8330E0C901DF91CF9108959C011B
:101EB000FB01838180FF11C086FD0FC09FEF2F3F84
:101EC000390759F0228380648F7D838386819781CF
:101ED00001979783868330E002C02FEF3FEFC9015F
:101EE0000895FA01AA27283051F1203181F1E894B0
:101EF0006F936E7F6E5F7F4F8F4F9F4FAF4FB1E0FD
:101F00003ED0B4E03CD0670F781F891F9A1FA11DF7
:101F1000680F791F8A1F911DA11D6A0F711D811DF8
:101F2000911DA11D20D009F468943F912AE0269FBD
:101F300011243019305D3193DEF6CF010895462F1C
:101F40004770405D4193B3E00FD0C9F7F6CF462FFD
:101F50004F70405D4A3318F0495D31FD4052419366
:101F600002D0A9F7EACFB4E0A69597958795779523
:101F70006795BA95C9F700976105710508959B01AA
:101F8000AC010A2E06945795479537952795BA9533
:101F9000C9F7620F731F841F951FA01D089599270D
:081FA00088270895F894FFCF93
:101FA8000A0D2057656C636F6D6520746F204B694F
:101FB800746368656E426F74205549200A0D20507D
:101FC8006C6561736520696E70757420796F7572C0
:101FD80020696E737472756374696F6E73206265BD
:101FE8006C6F770A0D0A0D002569462020202020F5
:101FF80020002569732020202020200025732575C6
:102008000074656D70006454656D703A2025690A26
:102018000D0074696D650054696D653A2025690A7B
:102028000D00736574006354656D703A2025690A64
:102038000D000000000300000000D0032904000088
:00000001FF
