:100000000C9476000C9495000C9495000C9495003B
:100010000C9495000C9495000C9495000C9495000C
:100020000C9495000C9495000C9495000C949500FC
:100030000C9495000C9497000C9495000C949500EA
:100040000C9469060C9495000C9495000C94950002
:100050000C94FC030C9488030C9495000C9495006C
:100060000C9495000C9495000C9495000C949500BC
:100070000C9495000C9495000C9495000C949500AC
:100080000C9495000C9495000C949500001F0000B2
:1000900000001F00001F101010101F00001F181874
:1000A00018181F00001F1C1C1C1C1F00001F1E1EF8
:1000B0001E1E1F00001F1F1F1F1F1F0003070F1FF3
:1000C0000F070300181C1E1F1E1C180043757272B8
:1000D000656E743A0000446573697265643A0000A5
:1000E0006364696E6F70737578585B0011241FBE6E
:1000F000CFEFD0E4DEBFCDBF12E0A0E0B1E0E6E399
:10010000F6E200E00BBF02C007900D92AA3FB107D4
:10011000D9F714E0AAEFB2E001C01D92AE37B107E3
:10012000E1F70E94AE070C9419130C9400001F9283
:100130000F920FB60F920BB60F9211242F923F928F
:100140004F925F926F927F928F929F92AF92BF92E7
:10015000CF92DF92EF92FF920F931F932F933F93D3
:100160004F935F936F937F938F939F93AF93BF93BF
:10017000CF93DF93EF93FF9310926F00509036046C
:10018000B09B14C080916D0490916E04A0916F0497
:10019000B09170040196A11DB11D80936D049093E0
:1001A0006E04A0936F04B0937004B09A80918400A1
:1001B000909185003C018824992480916D04909150
:1001C0006E04A0916F04B0917004DC019927882718
:1001D000680E791E8A1E9B1E4090350470E061E017
:1001E000FFEFAF2EFFEFBF2EFFEFCF2EFFE7DF2E8B
:1001F000EBE02E2E33243394CBE0D0E043C0629D5D
:10020000D0011124A95CBB4F1A968C911A978230A9
:10021000A1F41296ED90FD900D911C9115976E141E
:100220007F048006910620F01A963C921A9705C02A
:10023000EA14FB040C051D0510F0860175011A96E1
:100240008C911A978130D9F4872F90E08C9FF00120
:100250008D9FF00D9C9FF00D1124EB5CFB4F1696CB
:100260002D913D914D915C91199780859185A28545
:10027000B385281739074A075B0708F4762F6F5FA5
:1002800057016801461608F0BACF7515B1F0EBE0DA
:100290005E9ED0011124A95CBB4F8DB78C938EB7A5
:1002A00011968C937E9FF0011124E95CFB4F8181B4
:1002B0008EBF80818DBF70933604A0927104B0927E
:1002C0007204C0927304D09274042091840030911F
:1002D000850040E050E080916D0490916E04A09103
:1002E0006F04B0917004DC0199278827280F391F0B
:1002F0004A1F5B1FD601C501821B930BA40BB50BD4
:100300009C01AD0184309105A105B10524F424E0E0
:1003100030E040E050E08091840090918500A0E0C2
:10032000B0E0820F931FA41FB51F80509040A140E2
:10033000B04038F48091840090918500820F931F23
:100340000EC080918400909185008C5F9F4F28F4AF
:10035000109289001092880006C084E090E090938B
:1003600089008093880082E080936F00FF91EF9175
:10037000DF91CF91BF91AF919F918F917F916F91BD
:100380005F914F913F912F911F910F91FF90EF90AF
:10039000DF90CF90BF90AF909F908F907F906F90A5
:1003A0005F904F903F902F900F900BBE0F900FBE1D
:1003B0000F901F9018951092850010928400109253
:1003C000800025E02093810022E020936F002FEF32
:1003D00030E4281B390B30936C0420936B0410928B
:1003E00035041092360410926D0410926E0410922F
:1003F0006F04109270048FEF9FEFAFEFBFE7809311
:10040000710490937204A0937304B0937404809366
:100410003D0490933E04A0933F04B0934004109297
:10042000390410923A0410923B0410923C047894E0
:1004300008958F929F92AF92BF92CF92DF92EF92E8
:10044000FF920F931F93CF93DF9349015A01F894C2
:10045000209135042F5F20933504C0916B04D09117
:100460006C049E01261B370B30936C0420936B04A5
:100470008883FE0192933197DF01CE014C971C9245
:100480001197A817B907D9F77A97C082D2923197F6
:10049000DF019E01245230401C921197A217B3072E
:1004A000D9F79F0126503040E09135048BE0E89F5A
:1004B000F0011124E95CFB4F82829382A482B58211
:1004C000E682F7820087118782E08287208331836A
:1004D0000E949700DF91CF911F910F91FF90EF90B5
:1004E000DF90CF90BF90AF909F908F900895F89439
:1004F000E5E3F4E0E80FF11D65A778940895482F2F
:1005000020913604F894E82FF0E0EE59FB4F8081FB
:10051000882319F08150808310C030E08BE090E098
:10052000289FF001299FF00D389FF00D1124E95C00
:10053000FB4F4E5F42870E94970078940895FF9288
:100540000F931F93182FF89400913504E1E04FEFBB
:100550005FEF6FEF7FEFF0E08BE0F82E212F30E0C0
:100560002E5F3F4F1EC0EF9DD0011124A95CBB4FF1
:100570001A968C911A9790E08217930769F4169651
:100580008D919D910D90BC91A02D481759076A0738
:100590007B0710F0FE2F02C0DB01CA01EF5FAC0148
:1005A000BD010E1700F7FF2341F4E12FF0E0EC5CF2
:1005B000FB4F86A58F5F86A711C02F2F30E08BE001
:1005C00090E0289FF001299FF00D389FF00D112435
:1005D000EB5CFB4F81E084870E94970078941F9129
:1005E0000F91FF900895209184003091850040E0A4
:1005F00050E080916D0490916E04A0916F04B091D1
:100600007004DC0199278827280F391F4A1F5B1FB8
:10061000B901CA010895E0913604ABE0EA9FF00108
:100620001124E95CFB4FF894A2E0A28762837383F4
:100630008483958326833783408751870E94970060
:1006400008958091360490E02BE030E0829FF00125
:10065000839FF00D929FF00D1124EB5CFB4FDF01A7
:100660001496648111967C91119712968C91129731
:1006700013969C9108958091360490E02BE030E031
:10068000829FF001839FF00D929FF00D1124EB5C8F
:10069000FB4FDF011896608511967C911197129699
:1006A0008C91129713969C910895F894809136043A
:1006B00090E02BE030E0829FF001839FF00D929F4D
:1006C000F00D1124EB5CFB4F14860E9497000895F7
:1006D000F894E82FF0E0EE59FB4F8081882319F061
:1006E000815080838F5F7894089587E68093C4005B
:1006F000E1ECF0E088E1808310924D0310924C030E
:1007000010924F0310924E03808180688083089579
:100710001F920F920FB60F920BB60F9211242F93C8
:100720003F938F939F93EF93FF9320914C033091CE
:100730004D0380914E0390914F032817390731F4F0
:100740008091C1008F7D8093C1001DC0E0914E0358
:10075000F0914F03E05BFC4F80818093C600809155
:100760004E0390914F03019690934F0380934E0355
:1007700080914E0390914F03883C910521F4109293
:100780004F0310924E03FF91EF919F918F913F91F4
:100790002F910F900BBE0F900FBE0F901F901895CA
:1007A0001F93182F8A3019F48DE00E94D003809196
:1007B0004C0390914D038F5F883C09F480E0E091F9
:1007C0004C03F0914D03E05BFC4F1083282F30E089
:1007D00080914E0390914F0328173907C9F3309346
:1007E0004D0320934C038091C10080628093C1002F
:1007F00080E090E01F9108951F920F920FB60F9224
:100800000BB60F9211242F933F934F935F936F93E7
:100810007F938F939F93AF93BF93EF93FF938091B9
:10082000C6008093750481E00E949F02FF91EF91C2
:10083000BF91AF919F918F917F916F915F914F91F8
:100840003F912F910F900BBE0F900FBE0F901F90F6
:100850001895EF92FF920F931F93CF93DF937C0134
:100860008091FA029091FB02892B09F0A1C00CEF54
:1008700012E081E00E947F028091C00084FF03C0EB
:100880002EEF3FEFA9C08091C00083FDA3C09091DF
:1008900075049D3011F09A3081F48AE0F80180836C
:1008A000B7010E94D0038CEF92E09093FB028093FB
:1008B000FA0282E00E949F027BC0993009F490E224
:1008C000892F80528F3510F0903A70F0F3E00B349E
:1008D0001F0711F487E004C0F80191938F01892F5D
:1008E000B7010E94D003C5CF923139F1933138F46A
:1008F000933009F46FC0983009F0BBCF09C097312D
:1009000009F44BC09F3721F0953109F0B2CF32C0C6
:10091000F2E00C3F1F0709F008F4ABCF88E0B70105
:100920000E94D00380E2B7010E94D00388E0B701A3
:100930000E94D003015010409CCF8DE0B7010E946F
:10094000D003CCEFD2E004C08991B7010E94D0035C
:10095000C017D107C8F38DCF88E0B7010E94D0033C
:1009600080E2B7010E94D00388E0B7010E94D00363
:100970000150104082E00C3F180709F068F779CF6A
:1009800088E0B7010E94D00380E2B7010E94D00343
:1009900088E0B7010E94D0038E01E2E00C3F1E0701
:1009A00009F008F466CFE8018A91803249F761CFF7
:1009B000E091FA02F091FB028191F093FB02E09347
:1009C000FA028A3021F41092FB021092FA02282FC8
:1009D00030E002C02FEF3FEFC901DF91CF911F91AF
:1009E0000F91FF90EF900895282F207F28B9409A0B
:1009F000429A20E43FE1F9013197F1F7429840989B
:100A0000F9013197F1F790E074E0880F991F7A951A
:100A1000E1F788B9409A429AC9010197F1F74298E3
:100A20004098C9010197F1F70895282F207F28B930
:100A3000429A20E43FE1F9013197F1F74298F90138
:100A40003197F1F790E0E4E0880F991FEA95E1F71C
:100A500088B9429AC9010197F1F74298C9010197F3
:100A6000F1F7089581E00E941505089582E00E9443
:100A7000150508950F931F93CF93DF93062F0097CB
:100A800049F0EC0110E004C089910E94F4041F5F5A
:100A90001017D0F3DF91CF911F910F91089562301D
:100AA00031F0633031F0613029F4805C03C08C5E3A
:100AB00001C08C5A80680E94150508951F93CF933A
:100AC000DF93EC01862F642F0E944F0510E003C0D6
:100AD0000E94F4041F5FFE01E10FF11D8491882341
:100AE000B9F7DF91CF911F910895EF92FF920F9385
:100AF0001F93CF93DF937C01162F110F110F110F4E
:100B00001064C0E0D0E0F701EC0FFD1F0491812FCD
:100B10008C0F0E941505802F0E94F4042196C83086
:100B2000D10589F7DF91CF911F910F91FF90EF9041
:100B300008951F93CF93DF9380E69AEE0197F1F724
:100B400018B818B887B1806F87B987B1876087B93F
:100B500080E388B9429A20E43FE1F9013197F1F747
:100B60004298F9013197F1F788B9429AC901019782
:100B7000F1F74298C9010197F1F780E288B9429AEA
:100B8000C9010197F1F74298C9010197F1F788E28D
:100B90000E9415058CE00E941505CCE8D0E060E0CD
:100BA000162F1F5FCE010E9475052896612F183001
:100BB000B9F7DF91CF911F9108950F931F93082FDD
:100BC00010E004C08EE10E9415051F5F1017D0F3DE
:100BD0001F910F9108950F931F93082F10E004C0E9
:100BE00088E10E9415051F5F1017D0F31F910F9128
:100BF00008958EE00E94150508958FE00E94150566
:100C000008958CE00E941505089588E00E9415055E
:100C100008958CE00E94150508950F931F93082FE7
:100C200010E004C080E10E9415051F5F1017D0F38B
:100C30001F910F9108950F931F93082F10E004C088
:100C400084E10E9415051F5F1017D0F31F910F91CB
:100C50000895DF92EF92FF920F931F93CF93DF934C
:100C6000D42E96E0899FC0011124242F30E0AC01DE
:100C7000429FC001439F900D529F900D112470E040
:100C80000E946F0CEB01CB0166E070E00E945B0CF0
:100C9000E82EFF2400E010E012C0C8010596C81736
:100CA000D90710F085E006C0C017D10710F08E2DCF
:100CB00001C080E00E94F404F3940A5F1F4FFD140A
:100CC00060F3DF91CF911F910F91FF90EF90DF9034
:100CD00008951F920F920FB60F920BB60F92112428
:100CE0002F933F934F935F936F937F938F939F9334
:100CF000AF93BF93EF93FF9384E00E947F028091B4
:100D00003304909134041816190674F580911E046A
:100D100090911F04892B41F180911C0490911D0436
:100D2000885E934054F480911C0490911D040196B8
:100D300090931D0480931C0417C010921D04109200
:100D40001C048091330490913404019790933404EF
:100D5000809333048091330490913404892B21F4DF
:100D600010921F0410921E0484E00E949F02FF91C3
:100D7000EF91BF91AF919F918F917F916F915F9113
:100D80004F913F912F910F900BBE0F900FBE0F9080
:100D90001F9018950E9499050E9401060E94320535
:100DA00080E060E00E944F050895EAE7F0E080816E
:100DB00087608083ACE7B0E08C9180648C93808105
:100DC00080688083808180648083089590917C0016
:100DD000907F90937C0090917C00982B90937C0066
:100DE00080917A00806480937A0080917A0086FDF9
:100DF000FCCF2091780030917900C901089511B895
:100E000012B88FEF87B918B88AB18C608AB9439A43
:100E100084E00E947F021092770410927604109270
:100E20002104109220041092340410923304109282
:100E30001D0410921C0410921F0410921E0484E0E2
:100E40000E949F020E94CA060E9432058CEC90E02C
:100E500060E040E00E945E0586ED90E060E041E0E9
:100E60000E945E050E94D50692E090936E0089EF85
:100E700087BD83E085BD94BD78940895EF92FF927D
:100E80000F931F93CF93DF93C1E0D0E080E00E94E7
:100E9000E6067C0184E00E947F0283E090E0E80E99
:100EA000F91E00E010E0C801B7010E94460A26E6DC
:100EB00036E646E050E40E9446090E94F20970932B
:100EC000770460937604809176049091770497FF7D
:100ED00004C0109277041092760420917604309129
:100EE00077048091200490912104281739071CF47D
:100EF0005B985A9806C05B9A5A9AD0931F04C09385
:100F00001E0484E00E949F0220916D0430916E04C3
:100F100040916F0450917004A901332722276091FA
:100F2000840070918500E0908400F090850080E05E
:100F300090E0620F731F841F951F6E5E75488F4F80
:100F40009F4F00E010E02E0D3F1D401F511F2C5DF4
:100F50003B404F4F5F4F0E940B0398CFCF92DF92E1
:100F6000EF92FF920F931F930E94750364EE71E05E
:100F700070937D0460937C0470937904609378048B
:100F800070937B0460937A0480E091E00E94EE0C01
:100F900080E590E00E94DB01F8941092630478945D
:100FA000F894109264047894F89481E08093660435
:100FB000789486EA98E060ED77E02AE136E040E058
:100FC00050E0FAE1EF2EF6E0FF2E012D112DE8E1C1
:100FD000CE2EE4E0DE2E0E9419028EE098E060ED55
:100FE00077E022E43FE040E050E0B4E8EB2EBEE1E1
:100FF000FB2E012D112D0E9419028EE397E060ED6A
:1010000077E022E13AE740E050E0A4E2EA2EA4EFE4
:10101000FA2E012D112D0E941902FFCFCF92DF92DF
:10102000EF92FF920F931F93CF93DF93C2E2D4E02E
:10103000BDE6CB2EB1E0DB2E84E00E947F028091E2
:1010400076049091770400D000D000D0EDB7FEB7C1
:101050003196ADB7BEB71296DC93CE931197D3827B
:10106000C282958384830E942A0D8DB79EB706960F
:101070000FB6F8949EBF0FBE8DBF89E060E00E945E
:101080004F05FE0101900020E9F73197EC1BFD0BA5
:10109000CE016E2F0E943A05809120049091210488
:1010A00000D000D000D0EDB7FEB73196ADB7BEB7D7
:1010B0001296DC93CE931197D382C2829583848358
:1010C0000E942A0D8DB79EB706960FB6F8949EBF64
:1010D0000FBE8DBF89E061E00E944F05FE010190C7
:1010E0000020E9F73197EC1BFD0BCE016E2F0E941B
:1010F0003A0584E00E949F0220916D0430916E04B5
:1011000040916F0450917004A90133272227609108
:10111000840070918500E0908400F090850080E06C
:1011200090E0620F731F841F951F6E5B704F8F4F8F
:101130009F4F00E010E02E0D3F1D401F511F2C5708
:10114000314E4F4F5F4F0E940B0376CF8F929F928D
:10115000AF92BF92CF92DF92EF92FF920F931F93C5
:10116000DF93CF9300D000D000D0CDB7DEB70E9480
:10117000FF0627E7822E21E0922E8E010D5F1F4F82
:101180005E010894A11CB11C94E6C92ED12C80E10B
:10119000E82E8EE0F82E60917A0470917B048EE345
:1011A00090E00E94C20C8DB79EB708970FB6F894D6
:1011B0009EBF0FBE8DBFEDB7FEB73196809178040C
:1011C00090917904ADB7BEB712969C938E93119708
:1011D0009382828215830483B782A6820E94190DAE
:1011E0008DB79EB708960FB6F8949EBF0FBE8DBF01
:1011F00084E00E947F02C8016CE771E00E94B90C94
:10120000009799F489819A8197FF09C060917A04C7
:1012100070917B0481E891E00E94EE0C06C0898108
:101220009A819093210480932004C8016CEA71E0B4
:101230000E94B90C0097B9F489819A8197FF09C07F
:1012400060917A0470917B0481EB91E00E94EE0C36
:101250000AC089819A819093340480933304109258
:101260001D0410921C04C80160EE71E00E94B90CCC
:10127000009741F4D0927704C0927604F09234043F
:10128000E092330484E00E949F0285CFA8E1B0E0A1
:10129000ECE4F9E00C948A0C69837A838B839C8359
:1012A0002D833E834F835887B9E0EB2EF12CEC0E53
:1012B000FD1ECE010196B7010E94E30B8E010F5E69
:1012C0001F4FCE010596B8010E94E30B29852230FD
:1012D00008F47EC03989323010F4B8017CC08A85A8
:1012E0009A8989278A87243011F0223031F4231714
:1012F00009F06EC062EF71E06EC0343039F41D86C3
:101300001E861F86188A1C861B8604C0323021F474
:1013100084E08987B7015FC02B853C858B899C89D8
:10132000281B390B3C872B87ED84FE840F85188999
:10133000AD88BE88CF88D88CEA14FB040C051D0547
:1013400040F4EE0CFF1C001F111F215030403C8761
:101350002B8720E030E040E050E080E090E0A0E02B
:10136000B0E460E070E0EA14FB040C051D0540F0F9
:10137000282B392B4A2B5B2BEA18FB080C091D097B
:10138000B695A79597958795EE0CFF1C001F111F2A
:101390006F5F7F4F6F31710531F7DA01C9018F77C8
:1013A0009070A070B07080349105A105B10561F412
:1013B00027FD0AC0E114F1040105110529F0205CA4
:1013C0003F4F4F4F5F4F20782D873E874F87588B79
:1013D000BE01675F7F4FCB010E940E0B6896EAE06B
:1013E0000C94A60CACE0B0E0E8EFF9E00C94920CA1
:1013F00069837A838B839C83CE010196BE016B5FE8
:101400007F4F0E94E30B8D81823061F1823050F179
:10141000843021F48E81882351F12EC02F813885AC
:1014200037FD20C06E812F3131051CF06623F9F0A5
:1014300023C08EE190E0821B930B29853A854B8572
:101440005C8504C056954795379527958A95D2F7C0
:101450006623B1F050954095309521953F4F4F4F01
:101460005F4F0EC020E030E040E050E009C02FEFB9
:101470003FEF4FEF5FE704C020E030E040E050E88E
:10148000B901CA012C96E2E00C94AE0CA8E0B0E0E1
:10149000ECE4FAE00C948A0C7B018C016115710577
:1014A0008105910519F482E0898360C083E0898316
:1014B0008EE1C82ED12CDC82CB82ED82FE820F839E
:1014C0001887C801B7010E94BF0AFC013197F7FFD6
:1014D0003BC0222733272E1B3F0B57016801022EEA
:1014E00004C0D694C794B794A7940A94D2F740E066
:1014F00050E060E070E081E090E0A0E0B0E004C087
:10150000880F991FAA1FBB1F2A95D2F70197A1091F
:10151000B1098E219F21A023B1230097A105B10518
:1015200021F041E050E060E070E04A295B296C293D
:101530007D294D835E836F8378878EE190E08E1BDB
:101540009F0B9C838B8312C0309781F00E2E04C0BA
:10155000EE0CFF1C001F111F0A94D2F7ED82FE82D1
:101560000F831887CE1ADF0ADC82CB821A82CE0163
:1015700001960E940E0B2896EAE00C94A60CEF92BE
:10158000FF920F931F937B018C0180E0E81680E0AF
:10159000F80681E0080780E0180788F48FEFE81666
:1015A000F1040105110531F028F088E090E0A0E099
:1015B000B0E017C080E090E0A0E0B0E012C080E0B2
:1015C000E81680E0F80680E0080781E0180728F0B8
:1015D00088E190E0A0E0B0E004C080E190E0A0E00D
:1015E000B0E020E230E040E050E0281B390B4A0B2D
:1015F0005B0B04C016950795F794E7948A95D2F78C
:10160000F701E650FE4F8081281B3109410951093D
:10161000C9011F910F91FF90EF900895DF92EF9213
:10162000FF920F931F93FC01E480F58006811781E0
:10163000D1808081823048F480E090E0A0E1B0E089
:10164000E82AF92A0A2B1B2BA5C0843009F49FC075
:10165000823021F4EE24FF24870105C0E114F10457
:101660000105110519F4E0E0F0E096C06281738194
:101670009FEF623879070CF05BC022E83FEF261B32
:10168000370B2A3131052CF020E030E040E050E00B
:101690002AC0B801A701022E04C076956795579518
:1016A00047950A94D2F781E090E0A0E0B0E004C052
:1016B000880F991FAA1FBB1F2A95D2F70197A1096E
:1016C000B1098E219F21A023B1230097A105B10567
:1016D00021F081E090E0A0E0B0E09A01AB01282B7E
:1016E000392B4A2B5B2BDA01C9018F779070A070E0
:1016F000B07080349105A105B10539F427FF09C008
:10170000205C3F4F4F4F5F4F04C0215C3F4F4F4F16
:101710005F4FE0E0F0E02030A0E03A07A0E04A07A9
:10172000A0E45A0710F0E1E0F0E079018A0127C057
:101730006038710564F5FB01E158FF4FD801C7011E
:101740008F779070A070B07080349105A105B105BD
:1017500039F4E7FE0DC080E490E0A0E0B0E004C002
:101760008FE390E0A0E0B0E0E80EF91E0A1F1B1F17
:1017700017FF05C016950795F794E794319687E013
:1017800016950795F794E7948A95D1F705C0EE244E
:10179000FF248701EFEFF0E06E2F679566276795CE
:1017A000902F9F77D794DD24D7948E2F8695492F3D
:1017B000462B582F5D29B701CA011F910F91FF9049
:1017C000EF90DF900895FC01DB014081518122817F
:1017D000622F6F7770E0221F2227221F9381892FAB
:1017E000880F822B282F30E0991F9927991F119677
:1017F0009C93119721153105A9F5411551056105F6
:10180000710511F482E037C082E89FEF13969C9334
:101810008E9312979A01AB0167E0220F331F441F8A
:10182000551F6A95D1F783E08C930DC0220F331FAB
:10183000441F551F12968D919C91139701971396F3
:101840009C938E931297203080E0380780E0480701
:1018500080E4580758F314962D933D934D935C9371
:10186000179708952F3F310579F44115510561050A
:10187000710519F484E08C93089564FF03C081E03E
:101880008C9312C01C9210C02F57304013963C937B
:101890002E93129783E08C9387E0440F551F661FA9
:1018A000771F8A95D1F7706414964D935D936D936D
:1018B0007C9317970895AA1BBB1B51E107C0AA1F71
:1018C000BB1FA617B70710F0A61BB70B881F991FE1
:1018D0005A95A9F780959095BC01CD01089597FB85
:1018E000092E07260AD077FD04D0E5DF06D00020B8
:1018F0001AF4709561957F4F0895F6F7909581954C
:101900009F4F08952F923F924F925F926F927F92D6
:101910008F929F92AF92BF92CF92DF92EF92FF92FF
:101920000F931F93CF93DF93CDB7DEB7CA1BDB0BAB
:101930000FB6F894DEBF0FBECDBF09942A88398850
:1019400048885F846E847D848C849B84AA84B98457
:10195000C884DF80EE80FD800C811B81AA81B98163
:10196000CE0FD11D0FB6F894DEBF0FBECDBFED0177
:101970000895FB01DC018D91019080190110D9F3CC
:10198000990B08950F931F93CF93DF938C01EB0175
:101990008B8181FF1BC082FF0DC02E813F818C8116
:1019A0009D812817390764F4E881F9810193F9834F
:1019B000E88306C0E885F985802F0995892B31F4E5
:1019C0008E819F8101969F838E8302C00FEF1FEF50
:1019D000C801DF91CF911F910F910895EF92FF926F
:1019E0000F931F93CF93DF937C018B01DB01139641
:1019F0008C9181FD03C0CFEFDFEF13C0C0E0D0E0DA
:101A00000BC0D8011896ED91FC911997B801099572
:101A1000892B11F0CFEFDFEFF70181917F01882350
:101A200081F7CE01DF91CF911F910F91FF90EF9041
:101A30000895DF93CF93CDB7DEB79E01275F3F4F69
:101A40008D819E816F817885A9010E941011CF91AF
:101A5000DF9108950F931F93DF93CF93CDB7DEB738
:101A60002E970FB6F894DEBF0FBECDBF0D891E892D
:101A700086E08C831A8309838FEF9FE79E838D8393
:101A80009E01275E3F4FCE0101966F89788DA90197
:101A90000E945B0D2F813885020F131FF801108201
:101AA0002E960FB6F894DEBF0FBECDBFCF91DF915B
:101AB0001F910F9108952F923F924F925F926F92D4
:101AC0007F928F929F92AF92BF92CF92DF92EF92CE
:101AD000FF920F931F93DF93CF93CDB7DEB72B9772
:101AE0000FB6F894DEBF0FBECDBF3C012B015A01EB
:101AF000FC0117821682838181FD03C06FEF7FEFA7
:101B0000C6C19AE0892E1E010894211C311CF301E4
:101B10002381F20123FD859123FF81912F018823E9
:101B200009F4B2C1853239F423FD859123FF8191F7
:101B30002F01853229F490E0B3010E94C20CE7CF57
:101B4000982FFF24EE249924FFE1FF15D0F09B325B
:101B500069F09C3228F4903259F0933291F40EC01F
:101B60009D3249F0903369F441E024C052E0F52AF7
:101B700084E0F82A28C098E0F92A25C0E0E1FE2A8E
:101B800022C0F7FC29C0892F80538A3070F4F6FEFA
:101B900005C0989C902C1124980E15C0E89CE02C50
:101BA0001124E80EF0E2FF2A0EC09E3229F4F6FC62
:101BB0006BC140E4F42A07C09C3619F450E8F52ABA
:101BC00002C0983649F4F20123FD959123FF9191CB
:101BD0002F01992309F0B8CF892F8554833018F04D
:101BE0008052833038F444E050E0A40EB51E5FE329
:101BF00059830FC0933631F0933779F0933509F05C
:101C000056C020C0F5018081898342E050E0A40ED7
:101C1000B51E610101E010E012C0F501C080D18065
:101C2000F6FC03C06FEF7FEF02C0692D70E042E069
:101C300050E0A40EB51EC6010E9451128C015FE750
:101C4000F52214C0F501C080D180F6FC03C06FEF0F
:101C50007FEF02C0692D70E042E050E0A40EB51E97
:101C6000C6010E9446128C0150E8F52AF3FE07C017
:101C70001AC080E290E0B3010E94C20CEA948E2D5B
:101C800090E008171907A8F30EC0F601F7FC85913C
:101C9000F7FE81916F0190E0B3010E94C20CE11048
:101CA000EA94015010400115110579F7EAC0943605
:101CB00011F0993669F5F7FE08C0F50120813181F0
:101CC0004281538184E090E00AC0F50180819181D6
:101CD0009C01442737FD4095542F82E090E0A80EE8
:101CE000B91E9FE6F92257FF09C0509540953095DF
:101CF00021953F4F4F4F5F4FE0E8FE2ACA01B901DF
:101D0000A1012AE030E00E94B812D82ED21840C0BB
:101D1000953729F41F2D1F7E2AE030E01DC01F2DAE
:101D2000197F9F3661F0903720F4983509F0ACC0E8
:101D30000FC0903739F0983709F0A6C004C028E0EA
:101D400030E00AC0106114FD146020E130E004C0EE
:101D500014FD166020E132E017FF08C0F501608134
:101D600071818281938144E050E008C0F501808157
:101D70009181BC0180E090E042E050E0A40EB51EED
:101D8000A1010E94B812D82ED2188FE7F82EF122A6
:101D9000F6FE0BC05EEFF522D91438F4F4FE07C04E
:101DA000F2FC05C08FEEF82202C01D2D01C0192DD6
:101DB000F4FE0DC0FE01ED0DF11D8081803319F49C
:101DC00099EEF92208C01F5FF2FE05C003C08F2DF7
:101DD000867809F01F5F0F2DF3FC14C0F0FE0FC0D2
:101DE0001E1510F09D2C0BC09D2C9E0C911A1E2DC3
:101DF00006C080E290E0B3010E94C20C1F5F1E1576
:101E0000C0F304C01E1510F4E11A01C0EE2404FF53
:101E10000FC080E390E0B3010E94C20C02FF1DC01E
:101E200001FD03C088E790E00EC088E590E00BC09C
:101E3000802F867891F001FF02C08BE201C080E222
:101E4000F7FC8DE290E0B3010E94C20C06C080E373
:101E500090E0B3010E94C20C9A94D914C0F3DA94B2
:101E6000F101ED0DF11D808190E0B3010E94C20CE3
:101E7000DD20A9F706C080E290E0B3010E94C20C09
:101E8000EA94EE20C1F743CEF30166817781CB015E
:101E90002B960FB6F894DEBF0FBECDBFCF91DF916A
:101EA0001F910F91FF90EF90DF90CF90BF90AF9078
:101EB0009F908F907F906F905F904F903F902F906A
:101EC0000895FC0120FD08C023FD05C022FF02C0CB
:101ED00073836283518340830895EF92FF920F933F
:101EE0001F9344FF02C033E011C046FF02C034E03C
:101EF0000DC0DB01FC01AA0FBB1FEE1FFF1F1094DA
:101F0000D1F76A0F7B1F8E1F9F1F31E0660F771F6F
:101F1000881F991F3150D1F77B018C01E20EF11C13
:101F2000011D111DA8019701B701CA011F910F9151
:101F3000FF90EF9008950F931F93CF93DF938C0141
:101F4000C8010E945C12EC0197FD08C00E94331288
:101F5000892BB1F7CE01B8010E949E12CE01DF910C
:101F6000CF911F910F910895AF92BF92CF92DF92C0
:101F7000EF92FF920F931F93CF93DF93EC01C62E46
:101F80005A01122F0E945C12AC018B3219F08D3273
:101F900051F41068CA9409F46DC0CE010E945C121D
:101FA000AC0197FD67C06DEFD62ED1228D2D8073C9
:101FB00001F54033F1F4CA9409F447C0CE010E9400
:101FC0005C12AC0197FD41C082E0D82A483711F07D
:101FD000483559F480E4D82ACA94B9F1CE010E9458
:101FE0005C12AC0199232CF430C0D6FC02C080E115
:101FF000D82AEE24FF248701242F2053283088F08C
:10200000D4FC09C02A3068F0D6FE05C02F7D822F8F
:102010008151863028F0CA01BE010E949E1212C072
:102020002750C801B7014D2D0E946D0F7B018C0117
:1020300082E0D82ACA9461F0CE010E945C12AC0101
:1020400097FFDACFD1FC04C015C0EE24FF2487012E
:10205000D7FE08C010950095F094E094E11CF11CA7
:10206000011D111DC501B801A7012D2D0E94610F91
:1020700081E001C080E0DF91CF911F910F91FF902F
:10208000EF90DF90CF90BF90AF9008956F927F92C6
:102090008F929F92AF92BF92CF92DF92EF92FF9278
:1020A0000F931F93DF93CF93CDB7DEB7A0970FB6F3
:1020B000F894DEBF0FBECDBF6C01A62E8A01790158
:1020C000FE01319680E2DF011D928A95E9F770E00A
:1020D00030E060E040E050E04F01A1E0B0E0F60108
:1020E0008381F70183FD259183FF21917F012223C5
:1020F00009F47EC02E3519F44115510569F1872F79
:1021000090E08417950744F42D3551F12D3221F4D8
:10211000332329F431E021C0332309F4622F322F15
:10212000832F869586958695F401E80FF11D832F00
:1021300087703D0102C0660C771C8A95E2F720810A
:1021400026292083361711F430E007C0361710F423
:102150003F5FE6CF3150E4CF71E04F5F5F4FBFCFBD
:10216000332319F08E8180628E83772359F0FE012C
:1021700031969E012F5D3F4F808180958193E217BC
:10218000F307D1F7BB24B3944E010894811C911C32
:10219000C6010E945C12AC0197FD22C0869586950F
:1021A0008695F401E80FF11D808190E09A01277077
:1021B000307002C0959587952A95E2F780FD05C09D
:1021C000CA01B6010E949E120BC00115110519F03B
:1021D000D8014D938D01AA94BB24AA20C9F602C050
:1021E000BB2031F40115110529F0F801108202C05D
:1021F000EE24FF24C701A0960FB6F894DEBF0FBEF1
:10220000CDBFCF91DF911F910F91FF90EF90DF90A5
:10221000CF90BF90AF909F908F907F906F900895D8
:102220006F927F928F929F92AF92BF92CF92DF92E6
:10223000EF92FF920F931F93CF93DF935C016B019B
:102240003A01FC01178216828824EAC0812F90E0AF
:102250000E943312892B21F0C5010E949B0FE0C020
:10226000153249F4F601F3FC6591F3FE61916F01BB
:10227000653269F415E2C5010E945C1297FDDCC06D
:10228000181709F4CDC0B5010E949E12DAC06A3257
:1022900019F0162F00E006C0F3FC1591F3FE119122
:1022A0006F0101E099240FC00260692D70E080E0A9
:1022B00090E040E20E946D0F962EF601F3FC15911E
:1022C000F3FE11916F01212F20532A3068F301FD95
:1022D00003C099249A9403C0992009F4B2C0183617
:1022E00021F01C3699F4F6010BC0F601F3FC659160
:1022F000F3FE6191683619F06F01162F07C0086070
:102300000460F3FC1591F3FE11916F01112309F4A0
:1023100098C080EE90E0612F70E00E943B12892B04
:1023200009F48FC0802F00FF03C0EE24FF2407C0F4
:10233000F301E080F18022E030E0620E731E1E3671
:1023400051F4F5014681578160E070E0C701202F0C
:102350000E94610F65C0133691F481FD02C099247B
:102360009394C5010E945C1297FD66C0E114F104CC
:1023700019F0F70181937F019A9499F74FC01B35AB
:1023800059F4C501692DA70196010E9446106C0100
:10239000009709F043C03DC0C5010E949B0F97FD07
:1023A0004BC01F3659F1103728F4143629F119366D
:1023B00039F527C0133719F0153711F51DC0C501C0
:1023C0000E945C12EC0197FD11C00E943312892B10
:1023D00029F0CE01B5010E949E1208C0E114F1045B
:1023E00019F0F701C1937F019A9449F7E114F104C0
:1023F000A9F0F701108212C0006203C0006101C0A1
:102400000064C501692DA701202F0E94B40F882305
:1024100029F4F5018381807379F413C000FF83945C
:10242000F501F380F601F3FC1591F3FE11916F01B4
:10243000112309F00BCF05C0882019F42FEF3FEFCF
:1024400002C0282D30E0C901DF91CF911F910F917B
:10245000FF90EF90DF90CF90BF90AF909F908F90C4
:102460007F906F9008959111E1C0803219F08950EA
:102470008550D0F70895FC010590061621F0002044
:10248000D9F7C00108953197CF010895FC01059057
:10249000615070400110D8F7809590958E0F9F1F66
:1024A0000895FC016150704001900110D8F78095AB
:1024B00090958E0F9F1F0895CF93DF93EC014B8172
:1024C00040FF1AC046FF0AC04F7B4B838E819F811D
:1024D00001969F838E838A81282F2BC042FF13C0D1
:1024E000E881F9818081282F332727FD3095211538
:1024F000310529F440624B832FEF3FEF1BC031962B
:10250000F983E88311C0EA85FB85CE0109959C011A
:1025100097FF0AC09B812F5F3F4F11F080E201C0FF
:1025200080E1892B8B83E8CF8E819F8101969F83E9
:102530008E8330E0C901DF91CF9108959C01FB01AA
:10254000838180FF11C086FD0FC09FEF2F3F3907A9
:1025500059F0228380648F7D8383868197810197E0
:102560009783868330E002C02FEF3FEFC9010895C3
:10257000FA01AA27283051F1203181F1E8946F93B4
:102580006E7F6E5F7F4F8F4F9F4FAF4FB1E03ED05A
:10259000B4E03CD0670F781F891F9A1FA11D680FF8
:1025A000791F8A1F911DA11D6A0F711D811D911D2B
:1025B000A11D20D009F468943F912AE0269F1124A0
:1025C0003019305D3193DEF6CF010895462F477004
:1025D000405D4193B3E00FD0C9F7F6CF462F4F705F
:1025E000405D4A3318F0495D31FD4052419302D0BD
:1025F000A9F7EACFB4E0A695979587957795679563
:10260000BA95C9F700976105710508959B01AC0162
:102610000A2E06945795479537952795BA95C9F789
:10262000620F731F841F951FA01D08959927882787
:062630000895F894FFCFAD
:102636000A0D2057656C636F6D6520746F204B69BA
:10264600746368656E426F74205549200A0D2050E8
:102656006C6561736520696E70757420796F75722B
:1026660020696E737472756374696F6E7320626528
:102676006C6F770A0D20546865206F7074696F6EF1
:1026860073206172653A2074696D652C2074656DDE
:10269600702C2026206567670A0D0A0D0025694300
:1026A60020202020202000257325750074656D707C
:1026B60000506C6561736520696E707574206120C9
:1026C600706F7369746976652074656D7065726183
:1026D600747572652076616C75652E0074696D651A
:1026E60000506C6561736520696E70757420612099
:1026F600706F7369746976652074696D652076619B
:102706006C756520696E207365636F6E64732E0049
:10271600656767000000000300000000D00329047D
:102726000000000000000000000000010202030398
:10273600030304040404040404040505050505054F
:10274600050505050505050505050606060606062D
:102756000606060606060606060606060606060613
:1027660006060606060606060606070707070707FD
:1027760007070707070707070707070707070707E3
:1027860007070707070707070707070707070707D3
:1027960007070707070707070707070707070707C3
:1027A60007070707070707070707080808080808AD
:1027B6000808080808080808080808080808080893
:1027C6000808080808080808080808080808080883
:1027D6000808080808080808080808080808080873
:1027E6000808080808080808080808080808080863
:1027F6000808080808080808080808080808080853
:102806000808080808080808080808080808080842
:102816000808080808080808080808080808080832
:0A2826000808080808080808080858
:00000001FF
