:100000000C9446000C9465000C9465000C946500FB
:100010000C9465000C9465000C9465000C946500CC
:100020000C9465000C9465000C9465000C946500BC
:100030000C9465000C9465000C9465000C946500AC
:100040000C9465000C9465000C9467000C9465009A
:100050000C9465000C9465000C9465000C9465008C
:100060000C9465000C9465000C9465000C9465007C
:100070000C9465000C9465000C9465000C9465006C
:100080000C9465000C9465000C94650011241FBE4F
:10009000CFEFD0E4DEBFCDBF13E0A0E0B1E0ECE2F3
:1000A000F5E000E00BBF02C007900D92A833B10746
:1000B000D9F723E0A8E3B3E001C01D92AB35B20746
:1000C000E1F70E947C020C9494020C9400001F92B1
:1000D0000F920FB60F9211240BB60F922F933F93EE
:1000E0004F935F936F937F938F939F93AF93BF9340
:1000F000CF93DF93EF93FF9380913D0390913E0365
:10010000A0913F03B09140034091380350913903CF
:1001100060913A0370913B03840F951FA61FB71F90
:1001200080933D0390933E03A0933F03B09340031D
:100130008091490390914A03A0914B03B0914C03E5
:1001400040915103509152036091530370915403B5
:10015000840F951FA61FB71F8093490390934A03EE
:10016000A0934B03B0934C0380913D0390913E03C9
:10017000A0913F03B09140038B2F9927AA27BB275B
:1001800080934D038091490390914A03A0914B03C2
:10019000B0914C038B2F9927AA27BB278093560336
:1001A000C0915603E0914D03809145039091460321
:1001B000A0914703B0914803D0E0C85CDD4F48816F
:1001C000F0E0E85CFD4F2081332727FD3095240FB8
:1001D000311D47FD3A95FC01E050FF4F4081429FA1
:1001E000C001439F900D1124892F805887BD8091B5
:1001F000570390915803A0915903B0915A03019667
:10020000A11DB11D8093570390935803A0935903E8
:10021000B0935A038091570390915803A0915903CA
:10022000B0915A0389339140A105B10598F48091AA
:10023000450390914603A0914703B091480301966E
:10024000A11DB11D8093450390934603A0934703DE
:10025000B09348038091570390915803A09159039C
:10026000B0915A0389339140A105B105C8F480913A
:10027000570390915803A0915903B0915A038C3EB3
:10028000924FA105B10560F487E391E0A0E0B0E0F2
:100290008093450390934603A0934703B09348038C
:1002A0008091570390915803A0915903B0915A033C
:1002B0008C3E924FA105B10500F1809157039091BA
:1002C0005803A0915903B0915A038C3E924FA10557
:1002D000B10598F48091450390914603A09147039E
:1002E000B09148030197A109B10980934503909308
:1002F0004603A0934703B09348038091570390911E
:100300005803A0915903B0915A038532944FA10527
:10031000B10540F010924503109246031092470336
:100320001092480380915003815080935003809134
:100330005003811115C08EE38093500380914E03CA
:1003400090914F03019690934F0380934E038091B9
:100350004303909144030196909344038093430395
:10036000FF91EF91DF91CF91BF91AF919F918F91CD
:100370007F916F915F914F913F912F910F900BBEA5
:100380000F900FBE0F901F90189514B8239A1092DB
:100390004F0310924E0315BC85B5816085BDEEE616
:1003A000F0E0108280818160808314BC84B5836C0E
:1003B00084BD17BC7894089520915503211168C01D
:1003C00021E020935503883325E0920761F0853CB6
:1003D00025E09207A9F0893B9440B9F487E398EBB4
:1003E000A3EFB4E004C088E493EEA8E7B5E08093FF
:1003F000380390933903A0933A03B0933B030DC0A5
:100400008BE69CEBACE0B6E0F2CF10923803109292
:10041000390310923A0310923B03623083E078076D
:1004200091F024F4693B724029F508C0693323E058
:100430007207B1F06D3A7340E9F417C087E39AEDA3
:10044000AAEDB2E004C08EED95E6A7E2B3E080939A
:10045000510390935203A0935303B093540312C0DB
:1004600087EB91E1A1E6B3E0F2CF83E891E5ABE859
:10047000B6E2EDCF10925103109252031092530343
:1004800010925403509342034093410380E887BD88
:10049000089510925503109257031092580310922A
:1004A000590310925A03109245031092460310927A
:1004B0004703109248031092510310925203109276
:1004C0005303109254031092380310923903109280
:1004D0003A0310923B031092490310924A03109280
:1004E0004B0310924C0310923D0310923E03109266
:1004F0003F031092400308950E94C50148EE53E067
:1005000069EB72E089EB94E00E94DC0120914E03DC
:1005100030914F038091410390914203281739078E
:0C052000A8F30E944902F2CFF894FFCF2C
:10052C000000000101020202030304040405050695
:10053C000606070708080809090A0A0B0B0B0C0C1E
:10054C000D0D0D0E0E0F0F0F1010111111121213A5
:10055C00131414141515161616171718181819192C
:10056C001A1A1A1B1B1C1C1C1D1D1E1E1F1F1F20B4
:10057C00202121212222232323242425252526263C
:10058C00272728282829292A2A2A2B2B2C2C2C2DC2
:10059C002D2E2E2E2F2F303031313132323333334A
:1005AC003434353535363637373738383939393AD2
:1005BC003A3B3B3C3C3C3D3D3E3E3E3F3F40404059
:1005CC0041414242424343444445454546464747E0
:1005DC004748484949494A4A4B4B4B4C4C4D4D4D69
:1005EC004E4E4F4F505050515152525253535454EF
:1005FC00545555565656575758585959595A5A5B77
:10060C005B5B5C5C5D5D5D5E5E5F5F5F60606161FE
:10061C006262626363646464656566666667676884
:10062C00686869696A6A6A6B6B6C6C6D6D6D6E6E0D
:10063C006F6F6F7070717171727273737374747594
:10064C0075767676777778787879797A7A7A7B7B1B
:10065C007C7C7C7D7D7E7E7F000306090C0F121551
:10066C00181B1E2124272A2D303336393B3E41439B
:10067C0046494B4E50525557595B5E6062646667F3
:10068C00696B6C6E7071727475767778797A7B7B26
:10069C007C7D7D7E7E7E7E7E7E7E7E7E7E7E7D7D74
:1006AC007C7B7B7A7978777675747271706E6C6BF3
:1006BC006967666462605E5B59575552504E4B4990
:1006CC004643413E3B393633302D2A2724211E1B0D
:1006DC001815120F0C09060300FDFAF7F4F1EEEBF6
:1006EC00E8E5E2DFDCD9D6D3D0CDCAC7C5C2BFBDE1
:1006FC00BAB7B5B2B0AEABA9A7A5A2A09E9C9B9968
:10070C0097959492918F8E8C8B8A89888786858514
:10071C0084838382828282828282828282828383A7
:10072C00848585868788898A8B8C8E8F9092949508
:10073C0097999A9C9EA0A2A5A7A9ABAEB0B2B5B74B
:10074C00BABDBFC2C5C7CACDD0D3D6D9DCDFE2E5AE
:08075C00E8EBEEF1F4F7FAFD01
:00000001FF
