:100000000C9455000C9474000C9474000C947400BF
:100010000C9474000C9474000C9474000C94740090
:100020000C9474000C9474000C9474000C94740080
:100030000C9474000C9474000C9474000C94740070
:100040000C9474000C9474000C9476000C9474005E
:100050000C9474000C9474000C9474000C94740050
:100060000C9474000C9474000C9474000C94740040
:100070000C9474000C9474000C9474000C94740030
:100080000C9474000C9474000C94740005A84CCD6E
:10009000B2D44EB93836A9020C50B9918688083CC2
:1000A000A6AAAA2ABE000000803F11241FBECFEFDF
:1000B000D0E4DEBFCDBF23E0A8E0B1E001C01D92D7
:1000C000A833B207E1F711E0A0E0B1E0E2E6F3E126
:1000D00000E00BBF02C007900D92A830B107D9F71E
:1000E0000E945D070C94AF090C9400001F920F92C0
:1000F0000FB60F9211240BB60F922F933F934F938D
:100100005F936F937F938F939F93AF93BF93CF939F
:10011000DF93EF93FF9381E08093210340911503D8
:100120005091160360911703709118038091240376
:1001300090912503A0912603B0912703E09122031B
:10014000F0912303472F552766277727EA01CB5ED7
:10015000DD4F28818B2F9927AA27BB27DC01AB5EB7
:10016000BD4F8C91992787FD9095820F911D27FD9A
:100170009A95E45FFE4F4081489F9001499F300D62
:100180001124832F805887BD809115039091160309
:10019000A0911703B09118034091080150910901F3
:1001A00060910A0170910B01840F951FA61FB71F64
:1001B0008093150390931603A0931703B09318032D
:1001C0008091240390912503A0912603B0912703E9
:1001D00040913003509131036091320370913303A9
:1001E000840F951FA61FB71F8093240390932503A8
:1001F000A0932603B093270380912B038150809313
:100200002B03FF91EF91DF91CF91BF91AF919F9120
:100210008F917F916F915F914F913F912F910F90AF
:100220000BBE0F900FBE0F901F901895EF92FF928C
:100230000F931F93CF93DF9314B8239A55E1E52EC4
:1002400052E0F52E0CE011E0C0E0D0E0BE018827BE
:1002500077FD8095982F0E94180526E53EE049EC31
:1002600050E40E94040420E030E040E85BE30E9498
:1002700004040E941A0820E030E04EEF52E40E948D
:1002800004040E941F02F70161937F01CE0195953E
:100290008795F80181938F012196C115F1E0DF0761
:1002A000A9F610922A031092290381E085BD1092CD
:1002B0006E0080916E00816080936E0014BC83ECB0
:1002C00084BD80E887BD7894DF91CF911F910F9115
:1002D000FF90EF900895893B24E0920789F044F461
:1002E000893B22E0920719F18D3A934051F524C0E1
:1002F000883325E0920749F0853C954011F512C0FE
:1003000087E398EBA3EFB4E004C088E493EEA8E79A
:10031000B5E08093080190930901A0930A01B0937E
:100320000B0117C08BE69CEBACE0B6E0F2CF87E3A5
:100330009AEDAAEDB2E0EDCF83E094EBAAEDB3E045
:10034000E8CF109208011092090110920A01109250
:100350000B01693383E0780719F144F4693B82E0CB
:10036000780761F06230734091F50DC06D3A83E01B
:100370007807D9F0693B744051F51CC087E39AEDCA
:10038000AAEDB2E004C08EED95E6A7E2B3E080935B
:10039000300390933103A0933203B09333031FC013
:1003A00087EB91E1A1E6B3E0F2CF83E094EBAAED15
:1003B000B3E0EDCF87E398EBA3EFB4E080930801BF
:1003C00090930901A0930A01B0930B0108C0109209
:1003D0003003109231031092320310923303509382
:1003E0001A034093190308951092340310923703AF
:1003F00010923603109223031092220310923003BE
:1004000010923103109232031092330310920801BC
:100410001092090110920A0110920B01109224030C
:1004200010922503109226031092270310921503B1
:100430001092160310921703109218030895CF928A
:10044000DF92EF92FF920F931F936B017C0120E0EC
:1004500030E040E05FE40E94E90487FD0EC020E048
:1004600030E040E05FE4C701B6010E94D4030E947F
:1004700074058B019C01305806C0C701B6010E946B
:1004800074058B019C01B801C9011F910F91FF9068
:10049000EF90DF90CF900895A4E0B0E0E2E5F2E0C5
:1004A0000C94E5077C016A01FC018081823008F42C
:1004B0004AC1FB019081923008F442C1843079F442
:1004C000943009F040C1F7019181FB0181819817B7
:1004D00009F439C1A0E0EA2EA1E0FA2E34C194302B
:1004E00009F42EC1923091F4823009F02CC188E0D9
:1004F000F701DA0101900D928A95E1F7FB01818104
:10050000F70191818923FA0181831CC1823009F4AA
:1005100017C1F70182819381FB01A281B381F701A9
:100520000481158126813781FB0184809580A68016
:10053000B780FC01EA1BFB0BAF01F7FF04C04427A7
:1005400055274E1B5F0B403251050CF074C01E1630
:100550001F06B4F524013501042E04C07694679477
:10056000579447940A94D2F749825A826B827C82CC
:10057000412C512C3201439404C0440C551C661C80
:10058000771C4A95D2F741E0441A51086108710876
:10059000482059206A207B20812C912C540183947F
:1005A00045284628472819F4812C912C540149806C
:1005B0005A806B807C8084289528A628B72846C05E
:1005C000EF2B09F443C0840F951F28013901042E35
:1005D00004C076946794579447940A94D2F749825A
:1005E0005A826B827C82412C512C3201439404C08C
:1005F000440C551C661C771C4A95D2F741E0441AFE
:10060000510861087108402251226222732201E0E0
:1006100010E020E030E045284628472819F400E0A3
:1006200010E0980149805A806B807C80042915294C
:10063000262937290BC0A817B90724F4812C912C3F
:10064000540104C0CD0100E010E09801F7014181A0
:10065000FB015181451709F446C0442349F02401A8
:100660003501401A510A620A730A9301820104C0DB
:10067000081919092A093B0937FD05C0F60111823D
:10068000938382830CC041E0F6014183938382838C
:1006900030952095109501951F4F2F4F3F4F0483A4
:1006A0001583268337830EC0880F991FAA1FBB1F8F
:1006B000F60184839583A683B78382819381019712
:1006C00093838283F60184819581A681B781AC01F1
:1006D000BD0141505109610971094F3F5F4F6F4F93
:1006E0007F4310F30CC0F601418393838283080D8E
:1006F000191D2A1D3B1D048315832683378383E040
:10070000F6018083448155816681778177FF1AC025
:10071000DB01CA0181709927AA27BB2776956795C7
:1007200057954795842B952BA62BB72B84839583C0
:10073000A683B7838281938101969383828302C0CB
:100740007B0101C07601C7012496E0E10C94010809
:10075000A0E2B0E0EEEAF3E00C94F3076D8F7E8F39
:100760008F8F98A3298F3A8F4B8F5C8FBE016F5E5E
:100770007F4FCE014D960E948D06BE01675F7F4F71
:10078000CE0149960E948D06AE014F5F5F4FBE01BC
:10079000675F7F4FCE0141960E944C020E94C305C5
:1007A000A096E2E00C940F08A0E2B0E0EAEDF3E0DE
:1007B0000C94F3076D8F7E8F8F8F98A3298F3A8FBC
:1007C0004B8F5C8FBE016F5E7F4FCE014D960E94B6
:1007D0008D06BE01675F7F4FCE0149960E948D0650
:1007E0008A8591E089278A87AE014F5F5F4FBE01FE
:1007F000675F7F4FCE0141960E944C020E94C30565
:10080000A096E2E00C940F08A0E2B0E0EAE0F4E089
:100810000C94E5076D8F7E8F8F8F98A3298F3A8F69
:100820004B8F5C8FBE016F5E7F4FCE014D960E9455
:100830008D06BE01675F7F4FCE0149960E948D06EF
:100840009989923008F412C08985823008F41AC060
:10085000943021F4823009F4B4C008C0843021F40B
:10086000923009F4AEC00EC0923051F481E02A8972
:100870009A85291301C080E08A8BCE014196A3C0DE
:10088000823051F481E02A899A85291301C080E0E1
:100890008A87CE01099697C08D889E88AF88B88CCC
:1008A0000D851E852F853889E0E2F0E080E090E03C
:1008B000DC01C12CD12C760140E050E0BA0180FE71
:1008C00018C0400F511F621F731F8C0D9D1DAE1D60
:1008D000BF1D412C512C3201439440175107620730
:1008E000730718F0412C512C3201840D951DA61D63
:1008F000B71DCC0CDD1CEE1CFF1C37FF02C068943A
:10090000C0F8000F111F221F331FB694A7949794AD
:1009100087943197A1F62B893C89EB85FC852E0FB6
:100920003F1F2E5F3F4F3C832B8321E0EA893A85AE
:10093000E31301C020E02A83EB81FC810CC080FF1F
:1009400005C076956795579547957068B695A795B4
:10095000979587953196B7FDF2CF9F010CC0880F10
:10096000991FAA1FBB1F77FD8160440F551F661F8B
:10097000771F215031090097A105E0E4BE0778F305
:100980002B833C838C019D010F771127222733276E
:10099000003411052105310559F487FD09C0452BA7
:1009A000462B472B29F0805C9F4FAF4FBF4F80787D
:1009B0008D839E83AF83B88783E08983CE010196C0
:1009C00002C080E091E00E94C305A096E0E10C9493
:1009D0000108A8E1B0E0EFEEF4E00C94F3076D8BB2
:1009E0007E8B8F8B988F298B3A8B4B8B5C8BBE01C8
:1009F000675F7F4FCE0145960E948D06BE016F5FF7
:100A00007F4FCE0141960E948D068985823058F035
:100A10008981823040F0BE016F5F7F4FCE01099621
:100A20000E94FC0601C08FEF6896E2E00C940F086C
:100A3000A8E0B0E0EEE1F5E00C94F10723E02983B3
:100A40008B019C01002737FD0395112722273327AF
:100A5000402F0A83611571058105910519F482E023
:100A6000898335C02EE130E03C832B83442371F031
:100A700061157105810520E8920771F100271127A2
:100A80009801061B170B280B390B02C08B019C0128
:100A9000C901B8010E94C8070197181619062CF061
:100AA0000D831E832F83388712C0082E04C0000FC9
:100AB000111F221F331F0A94D2F70D831E832F8329
:100AC00038872EE130E0281B390B3C832B83CE0185
:100AD00001960E94C30504C060E070E080E09FECD6
:100AE0002896E4E00C940D08ACE0B0E0EAE7F5E00D
:100AF0000C94F10769877A878B879C87BE016F5FAB
:100B00007F4FCE0109960E948D068981823091F136
:100B1000823080F1843041F48A81882331F100E011
:100B200010E020E030E829C02B813C8137FD22C055
:100B30002F3131058CF78EE190E0821B930B0D81F4
:100B40001E812F81388504C0369527951795079506
:100B50008A95D2F78A81882381F030952095109567
:100B600001951F4F2F4F3F4F08C00FEF1FEF2FEF83
:100B70003FE703C000E010E09801B801C9012C96DE
:100B8000E4E00C940D080F931F93CF93DF93DC01E7
:100B900014964D915D916D917C9117971196EC9102
:100BA00011978C91823020F460618FEF90E0A6C0A5
:100BB000843009F49EC0823009F495C04115510576
:100BC0006105710509F492C012962D913C9113971D
:100BD00022388FEF38070CF058C0C2E8DFEFC21B95
:100BE000D30BCA31D1056CF58A019B010C2E04C0D0
:100BF00036952795179507950A94D2F781E090E0EE
:100C0000A0E0B0E00C2E04C0880F991FAA1FBB1FE4
:100C10000A94D2F70197A109B10984239523A62349
:100C2000B72341E050E060E070E0892B8A2B8B2BEA
:100C300019F440E050E0BA01402B512B622B732B8A
:100C400003C040E050E0BA01DB01CA018F77992769
:100C5000AA27BB2780349105A105B10539F447FFC8
:100C600009C0405C5F4F6F4F7F4F04C0415C5F4FD6
:100C70006F4F7F4F81E090E041155105610520E401
:100C8000720748F580E090E026C0203831058CF5E9
:100C9000DB01CA018F779927AA27BB2780349105EA
:100CA000A105B10539F447FF09C0405C5F4F6F4FA4
:100CB0007F4F04C0415C5F4F6F4F7F4F77FD04C093
:100CC000C90181589F4F07C07695679557954795FD
:100CD000C90180589F4F97E076956795579547953E
:100CE0009A95D1F70BC080E090E005C080E090E0DD
:100CF00005C08FEF90E040E050E0BA01982F969544
:100D0000E0FB97F9362F80FB37F9642F752F832F7F
:100D1000DF91CF911F910F910895CF92DF92EF92C3
:100D2000DC01FB01CC901196DC90119712968C910E
:100D300012973FE7E32EE8226E2DA60170E0982F70
:100D4000991F9927991F13962C91822F880F892B11
:100D500090E027FB222720F92183009729F54115F0
:100D600051056105710511F482E027C082E89FEF0B
:100D70009383828327E0440F551F661F771F2A95B0
:100D8000D1F783E0808309C0440F551F661F771F8A
:100D90008281938101979383828341155105610577
:100DA00080E4780788F320C08F3F910579F44115DE
:100DB00051056105710519F484E0808319C0E4FED2
:100DC00003C081E0808310C010820EC08F5791094C
:100DD0009383828383E0808387E0440F551F661FDF
:100DE000771F8A95D1F77064448355836683778330
:100DF000EF90DF90CF900895CF93FC01DB019081BD
:100E0000923008F452C08C91823008F44EC0943075
:100E100071F4843039F411962C9130E08181281BD3
:100E2000310948C08181882309F43FC03BC0843028
:100E300029F411968C91811138C034C0923019F484
:100E40008230B9F735C0823069F3C18111968C9137
:100E50001197C8131DC02281338112968D919C91E8
:100E60001397821793070CF413C0281739070CF453
:100E700017C0448155816681778114968D919D912B
:100E80000D90BC91A02D84179507A607B70718F4FD
:100E9000C11108C00AC0481759076A077B0740F408
:100EA000C11103C02FEF3FEF05C021E030E002C0C9
:100EB00020E030E0C901CF9108950E94160148EE6C
:100EC00053E06DEA73E085EC95E00E946B014EE320
:100ED0002FEF30E080912B03811102C040932B0350
:100EE000809121038130B1F7109221038091360364
:100EF0009091370301969093370380933603809146
:100F00003603909137038B3F910530F48091220393
:100F100090912303019626C0809136039091370368
:100F20008B3F910560F080913603909137038237B3
:100F3000924028F43093230320932203CBCF809157
:100F40003603909137038237924088F080913603C0
:100F5000909137038C36934050F480912203909106
:100F6000230301979093230380932203B3CF8091AF
:100F70003603909137038C36934008F4ABCF109230
:100F80002303109222031092370310923603A2CF4C
:100F90000E94D10784FF0895CB010E94D107805F92
:100FA0000895AA27992329F4A85F982B11F480E1CA
:100FB0000895903118F4AD5F9295A395990FE8F7D5
:100FC0008A2F992708952F923F924F925F926F92A6
:100FD0007F928F929F92AF92BF92CF92DF92EF92C9
:100FE000FF920F931F93CF93DF93CDB7DEB7CA1B4A
:100FF000DB0B0FB6F894DEBF0FBECDBF09942A8875
:10100000398848885F846E847D848C849B84AA841C
:10101000B984C884DF80EE80FD800C811B81AA81A9
:10102000B981CE0FD11D0FB6F894DEBF0FBECDBF74
:10103000ED0108959F9305D00F9007FCEE5F28C047
:10104000CEC03FD0E8F3E894E0E0BB279F57F0F034
:101050002AED3FE049EC06C0EE0FBB0F661F771F7D
:10106000881F28F0B23A62077307840728F0B25A43
:10107000620B730B840BE3959A9572F7803830F40A
:101080009A95BB0F661F771F881FD2F790489BC0A9
:10109000EF93E0FF06C0A2EA2AED3FE049EC5FEBE8
:1010A00037D0BFD00F90039401FC9058ECE8F0E0EB
:1010B00099C057FD9058440F551F59F05F3F71F08C
:1010C0004795880F97FB991F61F09F3F79F08795AF
:1010D0000895121613061406551FF2CF4695F1DF38
:1010E00008C0161617061806991FF1CF86957105C8
:1010F00061050894089587D030F08CD020F031F449
:101100009F3F11F41EF46BC00EF4E095E7FB53C053
:10111000E92FCFDF80F3BA176207730784079507BB
:1011200018F071F49EF58EC00EF4E0950B2EBA2FD8
:10113000A02D0B01B90190010C01CA01A0011124DD
:10114000FF27591B99F0593F50F4503E68F11A1689
:10115000F040A22F232F342F4427585FF3CF46951A
:1011600037952795A795F0405395C9F77EF41F163C
:10117000BA0B620B730B840BBAF09150A1F0FF0F06
:10118000BB1F661F771F881FC2F70EC0BA0F621FF2
:10119000731F841F48F4879577956795B795F795E2
:1011A0009E3F08F0B3CF9395880F08F09927EE0F74
:1011B00097958795089597F99F6780E870E060E0BC
:1011C00008959F3F31F0915020F48795779567956A
:1011D000B795880F911D9695879597F908959FEF7C
:1011E00080EC08959F938F937F936F93FF93EF937A
:1011F0009B01AC0109DBEF91FF912BD02F913F9127
:101200004F915F9101CB00240A9416161706180619
:101210000906089500240A941216130614060506FA
:101220000895092E0394000C11F4882352F0BB0F8B
:1012300040F4BF2B11F460FF04C06F5F7F4F8F4FEE
:101240009F4F0895E894BB2766277727CB0197F92E
:101250000895DF93CF931F930F93FF92EF92DF9246
:101260007B018C01689405C0DA2EEF0121D0FE01CC
:10127000E894A5912591359145915591AEF3EF01F3
:1012800047DFFE019701A801DA9479F7DF90EF902C
:10129000FF900F911F91CF91DF910895B4DF28F057
:1012A000B9DF18F0952309F086CF99CF1124CBCF61
:1012B00000DFA0F3959FD1F3950F50E0551F629F7B
:1012C000F001729FBB27F00DB11D639FAA27F00D9F
:1012D000B11DAA1F649F6627B00DA11D661F829FC6
:1012E0002227B00DA11D621F739FB00DA11D621FAB
:1012F000839FA00D611D221F749F3327A00D611DC8
:10130000231F849F600D211D822F762F6A2F1124A9
:101310009F5750408AF0E1F088234AF0EE0FFF1FFC
:10132000BB1F661F771F881F91505040A9F79E3F33
:10133000510570F040CF87CF5F3FECF3983EDCF370
:10134000869577956795B795F795E7959F5FC1F770
:10135000FE2B880F911D9695879597F90895F8941F
:02136000FFCFBD
:08136200000000000000000083
:00000001FF
