:100000000C9446000C94A6000C9465000C946500BA
:100010000C9465000C9465000C9465000C946500CC
:100020000C9465000C9465000C9465000C94D3004E
:100030000C9465000C9465000C9465000C946500AC
:100040000C9465000C9465000C9465000C9465009C
:100050000C9465000C9465000C9465000C9465008C
:100060000C9465000C9465000C9465000C9465007C
:100070000C9465000C9465000C9465000C9465006C
:100080000C9465000C9465000C94650011241FBE4F
:10009000CFEFD0E4DEBFCDBF12E0A0E0B1E0E4E8F6
:1000A000F1E100E00BBF02C007900D92A633B1074B
:1000B000D9F712E0A6E3B2E001C01D92A539B1075D
:1000C000E1F70E94EB000C94C0080C94000081E062
:1000D0008DBB93E09093690097E09093B10080937B
:1000E00070000895AF92BF92CF92DF92EF92FF928D
:1000F0000F931F937C01882777FD8095982F0E948E
:10010000D40320E030E040E752E40E9430025B017B
:100110006C010027F7FC0095102FC801B7010E9461
:10012000D40320E030E040EE50E40E9430029B0116
:10013000AC01C601B5010E942A031F910F91FF90E7
:10014000EF90DF90CF90BF90AF9008951F920F92E5
:100150000FB60F920BB60F9211242F938F939F938C
:10016000EF93FF93E2EBF0E02081809136029091D3
:100170003702820F911D90933902809338021082CA
:10018000109237021092360281E080933A02FF917A
:10019000EF919F918F912F910F900BBE0F900FBEFB
:1001A0000F901F9018951F920F920FB60F92112467
:1001B0008F939F93809136029091370280509F4F8A
:1001C00090933702809336029F918F910F900FBECC
:1001D0000F901F901895CF93DF9391E09DBB83E024
:1001E0008093690087E08093B100909370000E9433
:1001F000430167E171E070939402609393027093FE
:10020000900260938F02709392026093910280E05B
:1002100091E00E94E1057894CEE0D1E080913A022D
:100220008823E1F36091380270913902882777FDC5
:100230008095982F0E94D40320E030E040EE50E4F7
:100240000E9430029B01AC0160EC71EE84E699E4FF
:100250000E942A039F938F937F936F93DF93CF9393
:1002600080919102909192029F938F930E94CE056C
:1002700010923A028DB79EB708960FB6F8949EBFBB
:100280000FBE8DBFCBCF87E68093C40088E18093FB
:10029000C10008951F93182F873049F4609193028D
:1002A0007091940285E291E00E94E1050BC08A30D2
:1002B00019F48DE00E944A018091C00085FFFCCFB7
:1002C0001093C60080E090E01F910895EF92FF9296
:1002D0000F931F93CF93DF937C0180913D02909108
:1002E0003E02892B09F0A0C00FE312E08091C0000C
:1002F00087FFFCCF8091C00084FF03C02EEF3FEF4B
:10030000A7C08091C00083FDA1C09091C6009D3020
:1003100011F09A3069F48AE0F8018083B7010E94F5
:100320004A018FE392E090933E0280933D027CC0AD
:10033000993009F490E2892F80528F3510F0903A6D
:1003400078F0F2E00E381F0719F4B70187E005C016
:10035000F80191938F01B701892F0E944A01C6CFFE
:10036000923139F1933138F4933009F46FC09830F9
:1003700009F0BCCF09C0973109F44BC09F3721F079
:10038000953109F0B3CF32C0F2E00F331F0709F007
:1003900008F4ACCFB70188E00E944A01B70180E2BF
:1003A0000E944A01B70188E00E944A0101501040B2
:1003B0009DCFB7018DE00E944A01CFE3D2E004C097
:1003C000B70189910E944A01C017D107C8F38ECFA7
:1003D000B70188E00E944A01B70180E20E944A0109
:1003E000B70188E00E944A010150104082E00F33BB
:1003F000180709F068F77ACFB70188E00E944A0130
:10040000B70180E20E944A01B70188E00E944A01D8
:100410008E01E2E00F331E0709F008F467CFE80110
:100420008A91803249F762CFE0913D02F0913E021D
:100430008191F0933E02E0933D028A3021F41092C4
:100440003E0210923D02282F30E002C02FEF3FEF16
:10045000C901DF91CF911F910F91FF90EF90089507
:10046000A0E2B0E0E6E3F2E00C94890869837A83C5
:100470008B839C832D833E834F835887BE01675FA8
:100480007F4FCE0101960E945605BE016F5E7F4FE1
:10049000CE0105960E9456059985923088F089898B
:1004A0008230C8F0943019F4823051F404C08430A2
:1004B00029F4923081F48DE291E0C6C0923049F483
:1004C00020E09A858A89981321E02A87CE0109962F
:1004D000BBC0823049F420E09A858A89981321E0D4
:1004E0002A8BCE014196B0C02D843E844F8458881B
:1004F0006D887E888F88988CEE24FF248701AA243B
:10050000BB24650140E050E060E070E0E0E0F0E036
:10051000C10181709070892BE9F0E60CF71C081D71
:10052000191D9A01AB012A0D3B1D4C1D5D1D80E07C
:1005300090E0A0E0B0E0E614F7040805190520F407
:1005400081E090E0A0E0B0E0BA01A901480F591F96
:100550006A1F7B1FAA0CBB1CCC1CDD1C97FE08C0AD
:1005600081E090E0A0E0B0E0A82AB92ACA2ADB2AFC
:100570003196E032F10549F0660C771C881C991C15
:100580005694479437942794C3CFFA85EA892B89E8
:100590003C898B859C85280F391F2E5F3F4F17C0E4
:1005A000CA0181709070892B61F016950795F794B8
:1005B000E79480E090E0A0E0B0E8E82AF92A0A2B6E
:1005C0001B2B76956795579547952F5F3F4F77FD86
:1005D000E7CF0CC0440F551F661F771F17FD416002
:1005E000EE0CFF1C001F111F21503040403090E0E6
:1005F000590790E0690790E4790760F32B8F3C8FEF
:10060000DB01CA018F779070A070B07080349105C3
:10061000A105B10561F447FD0AC0E114F10401052B
:10062000110529F0405C5F4F6F4F7F4F40781A8E65
:10063000FE1711F081E08A8F4D8F5E8F6F8F78A348
:1006400083E0898FCE0149960E948104A096E2E161
:100650000C94A508A8E1B0E0E0E3F3E00C94910865
:1006600069837A838B839C832D833E834F83588752
:10067000B9E0EB2EF12CEC0EFD1EB701CE01019678
:100680000E9456058E010F5E1F4FB801CE010596E0
:100690000E9456052985223008F47CC03989323001
:1006A00010F4B8017AC08A859A8989278A8724300C
:1006B00011F0223031F4231709F06CC06DE271E0C3
:1006C0006CC0343039F41D861E861F86188A1C863D
:1006D0001B8604C0323021F484E08987B7015DC0F5
:1006E0002B853C858B899C89281B390B3C872B8764
:1006F000ED84FE840F851889AD88BE88CF88D88C9C
:10070000EA14FB040C051D0540F4EE0CFF1C001F51
:10071000111F215030403C872B8720E030E040E023
:1007200050E080E090E0A0E0B0E46FE170E0EA1417
:10073000FB040C051D0540F0282B392B4A2B5B2BA5
:10074000EA18FB080C091D09B695A795979587959A
:10075000EE0CFF1C001F111F6150704041F7DA01C1
:10076000C9018F779070A070B07080349105A10599
:10077000B10561F427FD0AC0E114F104010511057A
:1007800029F0205C3F4F4F4F5F4F20782D873E87E9
:100790004F87588BBE01675F7F4FCB010E9481045A
:1007A0006896EAE00C94AD08A8E0B0E0EAEDF3E06A
:1007B0000C9492089B01AC0183E08983DA01C901A2
:1007C0008827B7FD83959927AA27BB27B82E21151F
:1007D00031054105510519F482E089833AC0882327
:1007E000A9F0203080E0380780E0480780E858070B
:1007F00029F460E070E080E09FEC30C0EE24FF243C
:100800008701E21AF30A040B150B02C079018A0171
:100810008EE1C82ED12CDC82CB82ED82FE820F834A
:100820001887C801B7010E943204019718161906EB
:1008300084F4082E04C0EE0CFF1C001F111F0A9444
:10084000D2F7ED82FE820F831887C81AD90ADC829C
:10085000CB82BA82CE0101960E9481042896E9E0FB
:100860000C94AE08EF92FF920F931F937B018C01C3
:1008700080E0E81680E0F80681E0080780E01807CD
:1008800088F48FEFE816F1040105110531F028F026
:1008900088E090E0A0E0B0E017C080E090E0A0E049
:1008A000B0E012C080E0E81680E0F80680E00807BB
:1008B00081E0180728F088E190E0A0E0B0E004C0F3
:1008C00080E190E0A0E0B0E020E230E040E050E0E5
:1008D000281B390B4A0B5B0B04C016950795F79440
:1008E000E7948A95D2F7F701EB5CFE4F8081281BD5
:1008F000310941095109C9011F910F91FF90EF90F2
:100900000895DF92EF92FF920F931F93FC01E48012
:10091000F58006811781D1808081823048F480E0A3
:1009200090E0A0E1B0E0E82AF92A0A2B1B2BA5C031
:10093000843009F49FC0823021F4EE24FF24870123
:1009400005C0E114F1040105110519F4E0E0F0E03F
:1009500096C0628173819FEF623879070CF05BC0AB
:1009600022E83FEF261B370B2A3131052CF020E01F
:1009700030E040E050E02AC0B801A701022E04C0D8
:1009800076956795579547950A94D2F781E090E060
:10099000A0E0B0E004C0880F991FAA1FBB1F2A95D2
:1009A000D2F70197A109B1098E219F21A023B1237C
:1009B0000097A105B10521F081E090E0A0E0B0E052
:1009C0009A01AB01282B392B4A2B5B2BDA01C90189
:1009D0008F779070A070B07080349105A105B1053B
:1009E00039F427FF09C0205C3F4F4F4F5F4F04C0D1
:1009F000215C3F4F4F4F5F4FE0E0F0E02030A0E040
:100A00003A07A0E04A07A0E45A0710F0E1E0F0E05E
:100A100079018A0127C06038710564F5FB01E1584E
:100A2000FF4FD801C7018F779070A070B0708034ED
:100A30009105A105B10539F4E7FE0DC080E490E011
:100A4000A0E0B0E004C08FE390E0A0E0B0E0E80EEA
:100A5000F91E0A1F1B1F17FF05C016950795F7946F
:100A6000E794319687E016950795F794E7948A9571
:100A7000D1F705C0EE24FF248701EFEFF0E06E2FE1
:100A8000679566276795902F9F77D794DD24D79435
:100A90008E2F8695492F462B582F5D29B701CA0105
:100AA0001F910F91FF90EF90DF900895FC01DB0103
:100AB000408151812281622F6F7770E0221F2227AF
:100AC000221F9381892F880F822B282F30E0991FB6
:100AD0009927991F11969C93119721153105A9F516
:100AE000411551056105710511F482E037C082E8B6
:100AF0009FEF13969C938E9312979A01AB0167E038
:100B0000220F331F441F551F6A95D1F783E08C9342
:100B10000DC0220F331F441F551F12968D919C91BB
:100B20001397019713969C938E931297203080E031
:100B3000380780E0480780E4580758F314962D934F
:100B40003D934D935C93179708952F3F310579F4AA
:100B5000411551056105710519F484E08C930895E0
:100B600064FF03C081E08C9312C01C9210C02F5709
:100B7000304013963C932E93129783E08C9387E03A
:100B8000440F551F661F771F8A95D1F7706414961E
:100B90004D935D936D937C9317970895A0E0B0E01B
:100BA000E4EDF5E00C949908CE010996AC016F8153
:100BB00078858D819E810E940A062096E2E00C9441
:100BC000B508EF92FF920F931F93CF93DF937C01B1
:100BD0008B01DB0113968C9181FD03C0CFEFDFEF1A
:100BE00013C0C0E0D0E00BC0D8011896ED91FC9185
:100BF0001997B8010995892B11F0CFEFDFEFF701B5
:100C000081917F01882381F7CE01CDB7DEB7E6E081
:100C10000C94B108ABE0B0E0E0E1F6E00C94890898
:100C20003C012B015A01FC0117821682838181FD50
:100C300003C06FEF7FEFC8C19AE0892E1E010894B0
:100C4000211C311CF3012381F20123FD859123FF37
:100C500081912F01882309F4B4C1853239F423FD31
:100C6000859123FF81912F01853229F4B30190E012
:100C70000E94FF07E7CF982FDD24CC249924FFE1C1
:100C8000FD15D0F09B3269F09C3228F4903259F077
:100C9000933291F40EC09D3249F0903369F441E0F3
:100CA00024C052E0D52A84E0D82A28C098E0D92A66
:100CB00025C0E0E1DE2A22C0D7FC29C0892F80535D
:100CC0008A3070F4D6FE05C0989C902C1124980EA2
:100CD00015C0C89CC02C1124C80EF0E2DF2A0EC03B
:100CE0009E3229F4D6FC6DC140E4D42A07C09C365C
:100CF00019F450E8D52A02C0983649F4F20123FDD0
:100D0000959123FF91912F01992309F0B8CF892F55
:100D10008554833018F08052833038F444E050E03A
:100D2000A40EB51E5FE359830FC0933631F093379D
:100D300079F0933509F056C020C0F5018081898390
:100D400042E050E0A40EB51E710101E010E012C0B7
:100D5000F501E080F180D6FC03C06FEF7FEF02C0A9
:100D6000692D70E042E050E0A40EB51EC7010E945C
:100D7000F4078C015FE7D52214C0F501E080F18013
:100D8000D6FC03C06FEF7FEF02C0692D70E042E038
:100D900050E0A40EB51EC7010E94E9078C0150E87F
:100DA000D52AD3FE07C01AC0B30180E290E00E94AA
:100DB000FF07CA948C2D90E008171907A8F30EC0FE
:100DC000F701D7FC8591D7FE81917F01B30190E0B7
:100DD0000E94FF07C110CA9401501040011511056F
:100DE00079F7ECC0943611F0993671F5D7FE08C04A
:100DF000F501E080F1800281138144E050E00AC0F7
:100E0000F501808191817C010027F7FC0095102F6E
:100E100042E050E0A40EB51E5FE6D52217FF0AC0DF
:100E200010950095F094E094E11CF11C011D111D3A
:100E300080E8D82A2AE030E0A101C801B7010E9469
:100E40002B08F82EF21840C0953729F41D2D1F7E6F
:100E50002AE030E01DC01D2D197F9F3661F09037CC
:100E600020F4983509F0ADC00FC0903739F09837AD
:100E700009F0A7C004C028E030E00AC0106114FDEA
:100E8000146020E130E004C014FD166020E132E07F
:100E900017FF08C0F501608171818281938144E070
:100EA00050E008C0F50180819181BC0180E090E0B4
:100EB00042E050E0A40EB51EA1010E942B08F82EBE
:100EC000F2188FE7D82ED122D6FE0BC05EEFD522C6
:100ED000F91438F4D4FE07C0D2FC05C08FEED82236
:100EE00002C01F2D01C0192DD4FE0DC0FE01EF0D53
:100EF000F11D8081803319F499EED92208C01F5F5B
:100F0000D2FE05C003C08D2D867809F01F5F0D2D20
:100F1000D3FC14C0D0FE0FC01C1510F09F2C0BC0CA
:100F20009F2C9C0C911A1C2D06C0B30180E290E00E
:100F30000E94FF071F5F1C15C0F304C01C1510F4AE
:100F4000C11A01C0CC2404FF10C0B30180E390E0BB
:100F50000E94FF0702FF1EC001FD03C088E790E06A
:100F600002C088E590E0B3010CC0802F867891F034
:100F700001FF02C08BE201C080E2D7FC8DE2B30129
:100F800090E00E94FF0706C0B30180E390E00E945A
:100F9000FF079A94F914C0F3FA94F101EF0DF11DD3
:100FA000B301808190E00E94FF07FF20A9F706C0EF
:100FB000B30180E290E00E94FF07CA94CC20C1F701
:100FC00041CEF30166817781CB012B96E2E10C944F
:100FD000A508FC010590615070400110D8F780957C
:100FE00090958E0F9F1F0895FC01615070400190F5
:100FF0000110D8F7809590958E0F9F1F08950F933D
:101000001F93CF93DF938C01EB018B8181FF1BC07A
:1010100082FF0DC02E813F818C819D812817390769
:1010200064F4E881F9810193F983E88306C0E885D7
:10103000F985802F0995892B31F48E819F81019646
:101040009F838E8302C00FEF1FEFC801DF91CF9106
:101050001F910F910895FA01AA27283051F12031EC
:1010600081F1E8946F936E7F6E5F7F4F8F4F9F4F3C
:10107000AF4FB1E03ED0B4E03CD0670F781F891F7E
:101080009A1FA11D680F791F8A1F911DA11D6A0F4C
:10109000711D811D911DA11D20D009F468943F91FF
:1010A0002AE0269F11243019305D3193DEF6CF01FE
:1010B0000895462F4770405D4193B3E00FD0C9F7C4
:1010C000F6CF462F4F70405D4A3318F0495D31FD31
:1010D0004052419302D0A9F7EACFB4E0A695979584
:1010E000879577956795BA95C9F70097610571055A
:1010F00008959B01AC010A2E0694579547953795A4
:101100002795BA95C9F7620F731F841F951FA01DFD
:1011100008952F923F924F925F926F927F928F929B
:101120009F92AF92BF92CF92DF92EF92FF920F9376
:101130001F93CF93DF93CDB7DEB7CA1BDB0B0FB680
:10114000F894DEBF0FBECDBF09942A88398848883D
:101150005F846E847D848C849B84AA84B984C884D3
:10116000DF80EE80FD800C811B81AA81B981CE0FCA
:10117000D11D0FB6F894DEBF0FBECDBFED010895AF
:04118000F894FFCF11
:101184005374617274696E672E2E2E0A0D005250CC
:101194004D3A2025660A0000000003000000004AC2
:1011A40001660100002A72696E672A0A00000000C5
:1011B400000000000000010202030303030404040E
:1011C40004040404040505050505050505050505D0
:1011D40005050505050606060606060606060606B0
:1011E400060606060606060606060606060606069B
:1011F4000606060606070707070707070707070780
:10120400070707070707070707070707070707076A
:10121400070707070707070707070707070707075A
:10122400070707070707070707070707070707074A
:10123400070707070708080808080808080808082F
:10124400080808080808080808080808080808081A
:10125400080808080808080808080808080808080A
:1012640008080808080808080808080808080808FA
:1012740008080808080808080808080808080808EA
:1012840008080808080808080808080808080808DA
:1012940008080808080808080808080808080808CA
:1012A40008080808080808080808080808080808BA
:0612B4000808080808000C
:00000001FF
